:020000040800F2
:1000000000500020350200087B0200087D02000835
:100010007F0200088102000883020008000000003F
:100020000000000000000000000000008502000841
:100030008702000800000000890200088B02000807
:100040008F02000891020008930200089502000840
:1000500097020008990200089B0200089D02000810
:100060009F020008A1020008A3020008A5020008E0
:10007000A7020008A9020008AB020008AD020008B0
:10008000AF020008B1020008B3020008B502000880
:10009000B7020008B9020008BB020008BD02000850
:1000A000BF020008C1020008C3020008C502000820
:1000B000C7020008C9020008CB020008CD020008F0
:1000C000CF020008D1020008D3020008D5020008C0
:1000D000D7020008D9020008DB020008DD02000890
:1000E000DF020008E1020008E302000810B5054C39
:1000F000237833B9044B13B10448AFF300800123D4
:10010000237010BD68000020000000009804000863
:10011000084B10B51BB108490848AFF300800848E8
:10012000036803B910BD074B002BFBD0BDE810409E
:10013000184700BF000000006C0000209804000871
:100140006800002000000000154B002B08BF134B77
:100150009D46A3F5803A00218B460F461348144A6A
:10016000121A00F07FF90F4B002B00D098470E4B6E
:10017000002B00D098470020002104000D000D48FE
:10018000002802D00C48AFF3008000F045F92000B1
:10019000290000F013F800F02BF900BF0000080060
:1001A0000050002000000000000000006800002057
:1001B00084000020000000000000000041F2000068
:1001C000C4F2020040F21802815841F00801815047
:1001D00040F60040C4F2010040F2040240F2000187
:1001E000C0F20101815040F21002C1F200018150C1
:1001F0000F4B00BF013BFCD140F60040C4F20100B0
:1002000040F21002C0F2000141F200018150084B9F
:1002100000BF013BFCD140F60040C4F2010040F2B7
:10022000100240F20001C1F200018150E0E700BF7E
:1002300080841E000649074A074B9A42BEBF51F808
:10024000040B42F8040BF8E70448804704480047D1
:10025000A40400080000002068000020ED0200084F
:10026000490100081F49204A002301E041F8043BEE
:100270009142FBD3FFF7A2FFFEE7FEE7FEE7FEE7B2
:10028000FEE7FEE7FEE7FEE7FEE7FEE7FEE7FEE746
:10029000FEE7FEE7FEE7FEE7FEE7FEE7FEE7FEE736
:1002A000FEE7FEE7FEE7FEE7FEE7FEE7FEE7FEE726
:1002B000FEE7FEE7FEE7FEE7FEE7FEE7FEE7FEE716
:1002C000FEE7FEE7FEE7FEE7FEE7FEE7FEE7FEE706
:1002D000FEE7FEE7FEE7FEE7FEE7FEE7FEE7FEE7F6
:1002E000FEE7FEE7680000208400002030B43C4BAD
:1002F0003C49186882B040F0010018605D68002039
:100300002940596019684FF41F0421F0847121F4C9
:100310008031196019681A4621F4802119605968E2
:1003200021F4FE0159609C6000900190196841F42D
:100330008031196003E0009BB3F5A06F09D013680A
:1003400003F400330193009B01330093019B002BC6
:10035000F1D0234B1B6813F4003318BF0123019322
:10036000019B012B06D0204B4FF000629A6002B037
:1003700030BC70471D4A1A4B1068194640F01000F7
:100380001060106820F003001060106840F0020058
:1003900010605A685A605A685A605A6842F480621B
:1003A0005A605A6822F47C125A605A6842F4E81281
:1003B0005A601A6842F080721A600B68084A9B0102
:1003C000FBD51146536823F003035360536843F091
:1003D000020353604B6803F00C03082BFAD1C2E709
:1003E000001002400000FFF800ED00E00020024095
:1003F00008B5074B044613B10021AFF30080054B4D
:100400001868836A03B19847204600F033F800BFAC
:1004100000000000940400080E4B70B51E460E4C00
:100420000025E41AA410A54204D056F825309847B8
:100430000135F8E700F020F8084B094C1E46E41A95
:10044000A4100025A54204D056F825309847013560
:10045000F8E770BD60000020600000206000002010
:100460006400002003460244934202D003F8011BBB
:10047000FAE77047FEE70000F8B500BFF8BC08BC1B
:100480009E467047F8B500BFF8BC08BC9E46704752
:0C049000430000000000002000000000FD
:08049C00ACFCFF7F0100000031
:1004A4000000000000000000000000000000000048
:1004B4000000000000000000000000000000000038
:1004C400900400080000000000000000000000008C
:1004D4000000000000000000000000000000000018
:1004E4000000000000000000000000000000000008
:1004F40000000000000000000000000000000000F8
:0805040011010008ED000008E0
:0400000508000000EF
:00000001FF
