:020000040800F2
:1000000000500020650A0008AB0A0008AD0A00088D
:10001000AF0A0008B10A0008B30A00080000000097
:10002000000000000000000000000000B50A000809
:10003000B70A000800000000B90A0008BB0A00085F
:10004000BF0A0008C10A0008C30A0008C50A000860
:10005000C70A0008C90A0008CB0A0008CD0A000830
:10006000CF0A0008D10A0008D30A0008D50A000800
:10007000D70A0008D90A0008DB0A0008DD0A0008D0
:10008000DF0A0008E10A0008E30A0008E50A0008A0
:10009000E70A0008E90A0008EB0A0008ED0A000870
:1000A000EF0A0008F10A0008F30A0008F50A000840
:1000B000110A0008F90A0008FB0A0008FD0A0008F6
:1000C000FF0A0008010B0008030B0008050B0008DD
:1000D000070B0008090B00080B0B00080D0B0008AC
:1000E0000F0B0008110B0008130B000810B5054C8E
:1000F000237833B9044B13B10448AFF300800123D4
:10010000237010BD7C00002000000000D00C00080F
:10011000084B10B51BB108490848AFF300800848E8
:10012000036803B910BD074B002BFBD0BDE810409E
:10013000184700BF0000000080000020D00C00081D
:100140007C00002000000000154B002B08BF134B63
:100150009D46A3F5803A00218B460F461348144A6A
:10016000121A00F097FD0F4B002B00D098470E4B52
:10017000002B00D098470020002104000D000D48FE
:10018000002802D00C48AFF3008000F05DFD200095
:10019000290000F0F5FB00F043FD00BF000008005F
:1001A0000050002000000000000000007C00002043
:1001B000980000200000000000000000C3785BB938
:1001C000037801215A09164803F01F03203201FA6F
:1001D00003F340F82230704730B4124B8278D9686C
:1001E0004478C9430F23C1F30221C1F10405CB4078
:1001F000AC401340027823431B0102F16042DBB2A2
:1002000002F5614282F800330378012203F01F00F7
:1002100003495B09824041F8232030BC704700BF8E
:1002200000E100E000ED00E0CB782DE9F04103F0C3
:100230000F06DB0648BF8B780C8848BF1E4314F0BE
:10024000FF0F26D00568002301274FF00F0803E0B9
:100250000133082B1BD00C8807FA03F232EA04049E
:10026000F6D19C0091F803E008FA04FC25EA0C059D
:1002700006FA04F4BEF1280F45EA040538D0BEF1B1
:10028000480F03F1010308BF0261082BE3D10560A9
:100290000C88FF2C2AD94568002301274FF00F0C4A
:1002A00003E00133082B20D00C8803F1080207FA81
:1002B00002F232EA0404F4D191F803E09C00BEF1AA
:1002C000280F04BF426191F803E00CFA04F8BEF174
:1002D000480F03F1010325EA080506FA04F408BFF4
:1002E0000261082B45EA0405DED14560BDE8F081D6
:1002F0004261ADE7C368194214BF01200020704776
:100300000161704741617047034A536823F47C13CD
:10031000194308435060704700100240014B1860B9
:10032000704700BF60004242034A536823F0030352
:1003300018435060704700BF00100240034A5368E2
:1003400023F0F00318435060704700BF00100240D4
:10035000034A536823F4E06318435060704700BFBA
:1003600000100240034A536823F4605343EAC0007C
:10037000506070470010024030B4214A536803F0C7
:100380000C03042B06D0082B25D01BB11D4A1346A5
:10039000026001E01B4B0360194A1B4C51681B4D66
:1003A000C1F30311615CCB4043605168C1F302218A
:1003B000615C23FA01F181605168C1F3C221615C83
:1003C000CB40C3605268C2F38132AA5C30BCB3FB3D
:1003D000F2F30361704753685168C3F38343C90361
:1003E00003F1020307D55268920304D4054A02FBC5
:1003F00003F30360D0E7064A02FB03F30360CBE795
:100400000010024000127A000400002000000020CA
:1004100000093D0029B9054A936923EA000090616B
:100420007047024B9A691043986170470010024070
:1004300029B9054AD36923EA0000D0617047024B0D
:10044000DA691043D8617047001002404309012B5C
:100450000BD0022B094B00F01F000CBF1B6A5B6A1C
:1004600023FA00F000F001007047044B00F01F0079
:100470001B6823FA00F000F00100704700100240F2
:10048000254A038890429BB212D002F50062904246
:100490000ED0B0F1804F0BD0A2F59832904207D029
:1004A00002F58062904203D002F58062904203D14F
:1004B0004A8823F070031343184A904224D002F56F
:1004C0008062904220D0CA8823F440739BB21343C9
:1004D00003808A88104B82850A88984202850ED054
:1004E0000F4B98420BD003F54063984207D003F5B9
:1004F0008063984203D003F58063984201D10B7A60
:10050000038601238382704703808B8883850B8851
:100510000385012383827047002C014000100040B6
:1005200000340140038CF0B423F001031B041B0CC6
:100530000384048C8788028B0E8924F002044B8884
:100540001B4D240422F07302240C334312040E8842
:100550002343120CA8429BB2BCB242EA060216D058
:1005600005F50065A84212D005F54065A8420ED0F9
:1005700005F58065A8420AD005F58065A84206D039
:1005800084800283CA88F0BC8286038470474E89C7
:100590008F89CD8923F00803334324F440748E8877
:1005A0003D4323F004032C433343A4B2E8E700BFE8
:1005B000002C01404FF6FF72002382800380C3802D
:1005C00043800372704700BF002303804380838011
:1005D000C380038143818381C3817047038829B924
:1005E00023F001031B041B0C038070479BB243F0F4
:1005F00001030380704700BF83899BB21AB923EAC5
:10060000010181817047194381817047FFF7F4BF71
:10061000038923F007031B041B0C0381704700BFF1
:10062000038B23F008031B041B0C19430183704741
:10063000038A828911EA030092B203D0114214BFE7
:1006400001200020704700BFC94389B20182704772
:1006500030B504460D46038ACA889BB223F4405342
:100660001343038282890B89888892B249890343A4
:1006700022F4B0520B4322F00C0213439BB2A3812D
:10068000A38AAA899BB223F4407387B01343A38241
:1006900001A8FFF771FE04991A48039BA2898442BE
:1006A00008BF0B4612F4004F2A6803EB830314BF04
:1006B0005200920003EB8303B3FBF2F3124DA189C6
:1006C000A5FB03206422400900FB12330A044FEA11
:1006D00000100AD41A013232A5FB0223C3F34313DC
:1006E00003439BB2238107B030BDD9003231A5FB53
:1006F0000131C1F3421242EA00039BB2238107B0E9
:1007000030BD00BF003801401F85EB5100234FF47E
:1007100016510C22016042818380C3800381838152
:10072000704700BF838929B923F400531B041B0CB5
:10073000838170479BB243F400538381704700BFAD
:10074000C1F30801818070470388194214BF01205A
:100750000020704708B50020FFF7E6FD0020FFF7F6
:10076000DDFD4FF440304FF44011FFF7CDFD012087
:10077000FFF7D4FD3920FFF769FE0028FAD00220E8
:10078000FFF7D2FD0020FFF7D9FD0020FFF7EAFDBB
:10079000BDE808404FF48060FFF7DABD30B51023A4
:1007A00083B0184602220B4C01218DF807308DF8DA
:1007B00006204FF40055FFF72DFE02A921F8045D35
:1007C0002046FFF731FD29462046FFF799FD03B08B
:1007D00030BD00BF0010014030B5012189B00220BA
:1007E000FFF726FE1C48FFF713FF6846FFF7E2FEFF
:1007F00003A8FFF7C1FD059A039B40F2CF759A420B
:100800000CBF0123022303FB02F3144A0024A2FBC2
:1008100003239B09013B69460F48ADF80030ADF852
:100820000450ADF80640ADF802408DF80840FFF7DF
:1008300027FE012211460848FFF7E8FE1C2303A803
:100840008DF80D408DF80E408DF80F408DF80C306E
:10085000FFF7B4FC09B030BD00040040D34D621076
:1008600070B5194E86B0012144F20500FFF7D2FDA4
:100870000325304601A94FF400721823ADF8042077
:100880008DF80730114C8DF80650FFF7CDFC4FF472
:10089000806201A904233046ADF804208DF80730AA
:1008A0008DF80650FFF7C0FC02A8FFF72FFF4FF4AA
:1008B000165302A920460293FFF7CAFE20460121E3
:1008C000FFF730FF06B070BD00080140003801405E
:1008D000024630B5274C85B02068616801AB03C380
:1008E00024891C80002A34D00024234D00E01C46BB
:1008F000A5FB0231C90801EB8103303204A8A2EB49
:1009000043022044631C00F80C2CDBB20A46002989
:10091000EDD143B39D1E2C1B01AA013B1519D41820
:1009200080211648FFF710FF0028F9D014F80119AC
:100930001248FFF705FFAC42F2D180210F48FFF7C4
:1009400003FF80B10D482C2105B0BDE83040FFF712
:10095000F7BE80210948FFF7F7FE0028F9D03021C3
:100960000648FFF7EDFE80210448FFF7EDFE002862
:10097000F9D0E7E7C00C0008CDCCCCCC0038014062
:1009800030B587B0FFF7E6FEFFF708FFFFF768FF17
:10099000FFF722FF01A8FFF7EFFC0398019B01245A
:1009A00098420CBF2346022303FB00F0FFF790FFA1
:1009B00001A8FFF709FE022530224FF47A7301A93E
:1009C0001148ADF80420ADF80A30ADF80640ADF896
:1009D0000C50FFF7A7FD00210B48FFF721FE214631
:1009E0000420FFF717FD06A9402321F8183D07480A
:1009F00018238DF802508DF80330FFF715FC2146BF
:100A00000148FFF7EBFDFEE700040040000801404D
:100A100008B501214FF08040FFF70AFE00B908BD7C
:100A20004FF400510E48FFF765FC4FF4005148B1F8
:100A30000B48FFF767FCBDE8084001214FF08040FC
:100A4000FFF702BE00F1804000F58830FFF758FC48
:100A5000BDE8084001214FF08040FFF7F5BD00BF21
:100A6000001001400649074A074B9A42BEBF51F8A1
:100A7000040B42F8040BF8E7044880470448004799
:100A8000DC0C0008000000207C0000201D0B00088A
:100A9000490100081F49204A002301E041F8043BB6
:100AA0009142FBD3FFF76CFFFEE7FEE7FEE7FEE7B0
:100AB000FEE7FEE7FEE7FEE7FEE7FEE7FEE7FEE70E
:100AC000FEE7FEE7FEE7FEE7FEE7FEE7FEE7FEE7FE
:100AD000FEE7FEE7FEE7FEE7FEE7FEE7FEE7FEE7EE
:100AE000FEE7FEE7FEE7FEE7FEE7FEE7FEE7FEE7DE
:100AF000FEE7FEE7FEE7FEE7FEE7FEE7FEE7FEE7CE
:100B0000FEE7FEE7FEE7FEE7FEE7FEE7FEE7FEE7BD
:100B1000FEE7FEE77C0000209800002030B43C4B4C
:100B20003C49186882B040F0010018605D68002000
:100B30002940596019684FF41F0421F0847121F491
:100B40008031196019681A4621F4802119605968AA
:100B500021F4FE0159609C6000900190196841F4F5
:100B60008031196003E0009BB3F5A06F09D01368D2
:100B700003F400330193009B01330093019B002B8E
:100B8000F1D0234B1B6813F4003318BF01230193EA
:100B9000019B012B06D0204B4FF000629A6002B0FF
:100BA00030BC70471D4A1A4B1068194640F01000BF
:100BB0001060106820F003001060106840F0020020
:100BC00010605A685A605A685A605A6842F48062E3
:100BD0005A605A6822F47C125A605A6842F4E81249
:100BE0005A601A6842F080721A600B68084A9B01CA
:100BF000FBD51146536823F003035360536843F059
:100C0000020353604B6803F00C03082BFAD1C2E7D0
:100C1000001002400000FFF800ED00E0002002405C
:100C200008B5074B044613B10021AFF30080054B14
:100C30001868836A03B19847204600F033F800BF74
:100C400000000000CC0C00080E4B70B51E460E4C88
:100C50000025E41AA410A54204D056F82530984780
:100C60000135F8E700F020F8084B094C1E46E41A5D
:100C7000A4100025A54204D056F825309847013528
:100C8000F8E770BD7400002074000020740000209C
:100C90007800002003460244934202D003F8011B6F
:100CA000FAE77047FEE70000F8B500BFF8BC08BCE3
:100CB0009E467047F8B500BFF8BC08BC9E4670471A
:100CC00030303030303030303030430014000020CD
:040CD0000000000020
:080CD40074F4FF7F0100000031
:100CDC0002040608000000000102030401020304E0
:100CEC0006070809000000000000000000000000DA
:100CFC0000000000000000000000000000000000E8
:100D0C0000000000CA0C00080000000000000000F9
:100D1C0000000000000000000000000000000000C7
:100D2C0000000000000000000000000000000000B7
:100D3C0000000000000000000000000000000000A7
:0C0D4C000000000011010008ED0000088C
:0400000508000000EF
:00000001FF
