:020000040800F2
:1000000000500020BD07000803080008050800088C
:1000100007080008090800080B0800080000000095
:100020000000000000000000000000000D080008B3
:100030000F0800080000000011080008130800085D
:1000400017080008190800081B0800081D08000808
:100050001F080008210800082308000825080008D8
:1000600027080008290800082B0800082D080008A8
:100070002F08000831080008330800083508000878
:1000800037080008390800083B0800083D08000848
:100090003F08000841080008430800084508000818
:1000A00047080008490800084B0800084D080008E8
:1000B0004F080008510800085308000855080008B8
:1000C00057080008590800085B0800085D08000888
:1000D0005F08000861080008630800086508000858
:1000E00067080008690800086B08000810B5054C8F
:1000F000237833B9044B13B10448AFF300800123D4
:10010000237010BD7C00002000000000200A0008C1
:10011000084B10B51BB108490848AFF300800848E8
:10012000036803B910BD074B002BFBD0BDE810409E
:10013000184700BF0000000080000020200A0008CF
:100140007C00002000000000154B002B08BF134B63
:100150009D46A3F5803A00218B460F461348144A6A
:10016000121A00F043FC0F4B002B00D098470E4BA7
:10017000002B00D098470020002104000D000D48FE
:10018000002802D00C48AFF3008000F009FC2000EA
:10019000290000F0E1FA00F0EFFB00BF00000800CA
:1001A0000050002000000000000000007C00002043
:1001B000980000200000000000000000CB782DE92E
:1001C000F04103F00F06DB0648BF8B780C8848BF70
:1001D0001E4314F0FF0F26D00568002301274FF0BF
:1001E0000F0803E00133082B1BD00C8807FA03F239
:1001F00032EA0404F6D19C0091F803E008FA04FC0A
:1002000025EA0C0506FA04F4BEF1280F45EA0405B8
:1002100038D0BEF1480F03F1010308BF0261082B7B
:10022000E3D105600C88FF2C2AD9456800230127FB
:100230004FF00F0C03E00133082B20D00C8803F1A2
:10024000080207FA02F232EA0404F4D191F803E05A
:100250009C00BEF1280F04BF426191F803E00CFA44
:1002600004F8BEF1480F03F1010325EA080506FA78
:1002700004F408BF0261082B45EA0405DED145609D
:10028000BDE8F0814261ADE7034A536823F47C1373
:10029000194308435060704700100240014B18603A
:1002A000704700BF60004242034A536823F00303D3
:1002B00018435060704700BF00100240034A536863
:1002C00023F0F00318435060704700BF0010024055
:1002D000034A536823F4E06318435060704700BF3B
:1002E00000100240034A536823F4605343EAC000FD
:1002F000506070470010024030B4214A536803F048
:100300000C03042B06D0082B25D01BB11D4A134625
:10031000026001E01B4B0360194A1B4C51681B4DE6
:10032000C1F30311615CCB4043605168C1F302210A
:10033000615C23FA01F181605168C1F3C221615C03
:10034000CB40C3605268C2F38132AA5C30BCB3FBBD
:10035000F2F30361704753685168C3F38343C903E1
:1003600003F1020307D55268920304D4054A02FB45
:1003700003F30360D0E7064A02FB03F30360CBE715
:100380000010024000127A0004000020000000204B
:1003900000093D0029B9054A936923EA00009061EC
:1003A0007047024B9A6910439861704700100240F1
:1003B00029B9054AD36923EA0000D0617047024B8E
:1003C000DA691043D8617047001002404309012BDD
:1003D0000BD0022B094B00F01F000CBF1B6A5B6A9D
:1003E00023FA00F000F001007047044B00F01F00FA
:1003F0001B6823FA00F000F0010070470010024073
:100400004A8830B40C888B882243CC881A430B89E5
:1004100022434C898D891A4322430388CC892A437D
:10042000224303F4415313439BB20380838B30BCBC
:1004300023F400631B041B0C83830B8A0382704725
:10044000002307220282038043808380C3800381CC
:1004500043818381C3817047038829B923F0400316
:100460001B041B0C038070479BB243F040030380C6
:10047000704700BF81817047808980B2704700BF9C
:100480000389194214BF01200020704730B504468B
:100490000D46038ACA889BB223F440531343038258
:1004A00082890B89888892B24989034322F4B05229
:1004B0000B4322F00C0213439BB2A381A38AAA89A7
:1004C0009BB223F4407387B01343A38201A8FFF7C4
:1004D00013FF04991A48039BA289844208BF0B4664
:1004E00012F4004F2A6803EB830314BF52009200FA
:1004F00003EB8303B3FBF2F3124DA189A5FB0320A9
:100500006422400900FB12330A044FEA00100AD4A7
:100510001A013232A5FB0223C3F3431303439BB2F8
:10052000238107B030BDD9003231A5FB0131C1F3C1
:10053000421242EA00039BB2238107B030BD00BFE4
:10054000003801401F85EB5100234FF416510C2257
:10055000016042818380C38003818381704700BF33
:10056000838929B923F400531B041B0C8381704732
:100570009BB243F400538381704700BFC1F308016D
:10058000818070478088C0F3080070470388194253
:1005900014BF01200020704708B50020FFF784FE3B
:1005A0000020FFF77BFE4FF440304FF44011FFF77F
:1005B0006BFE0120FFF772FE3920FFF707FF0028CE
:1005C000FAD00220FFF770FE0020FFF777FE002030
:1005D000FFF788FEBDE808404FF48060FFF778BE63
:1005E00070B586B002A8184EFFF7AEFF4FF4165351
:1005F000012144F2050002930325FFF7CBFE134CC3
:10060000304601A94FF400721823ADF804208DF88C
:1006100007308DF80650FFF7D1FD4FF480620423B8
:1006200001A93046ADF804208DF807308DF806504A
:10063000FFF7C4FD20460121FFF792FF02A92046E3
:10064000FFF724FF06B070BD0008014000380140EC
:1006500030B51B4D87B0012141F20500FFF79AFE2E
:10066000B0242846694603221823ADF800408DF8CF
:1006700002208DF80330134CFFF7A0FD694640229D
:1006800004232846ADF800208DF80330FFF796FDCF
:1006900001A8FFF7D5FE10254FF482724FF40073C6
:1006A00001A92046ADF80620ADF80E30ADF8105087
:1006B000FFF7A6FE20460121FFF7CEFE07B030BDB2
:1006C000000801400030014030B5012187B01F4DC6
:1006D0004FF48040FFF76CFE01210920FFF75AFE1E
:1006E0004FF480442846694603221823ADF80040A1
:1006F0008DF802208DF80330154CFFF75FFD694639
:100700004FF4304204232846ADF800208DF8033022
:10071000FFF754FD01A8FFF793FE082500224FF4D0
:10072000007301A92046ADF80620ADF80E30ADF8F3
:100730001050FFF765FE01210648FFF78DFE2046A9
:100740000121FFF789FE07B030BD00BF000C01405A
:10075000003800400030014008B5FFF71DFFFFF7EB
:100760003FFFFFF775FFFFF7AFFF20211048FFF7AE
:100770000DFF0028F9D00E48FFF704FF01460D4891
:10078000FFF778FE01210C48FFF77AFE0028F9D028
:100790000948FFF771FE0146A0F161039BB2192BD6
:1007A0009CBFA0F1200189B20148FFF7E7FEDCE71A
:1007B0000038014000300140003800400649074A37
:1007C000074B9A42BEBF51F8040B42F8040BF8E7FE
:1007D00004488047044800472C0A00080000002015
:1007E0007C00002075080008490100081F49204AC4
:1007F000002301E041F8043B9142FBD3FFF7ACFF3B
:10080000FEE7FEE7FEE7FEE7FEE7FEE7FEE7FEE7C0
:10081000FEE7FEE7FEE7FEE7FEE7FEE7FEE7FEE7B0
:10082000FEE7FEE7FEE7FEE7FEE7FEE7FEE7FEE7A0
:10083000FEE7FEE7FEE7FEE7FEE7FEE7FEE7FEE790
:10084000FEE7FEE7FEE7FEE7FEE7FEE7FEE7FEE780
:10085000FEE7FEE7FEE7FEE7FEE7FEE7FEE7FEE770
:10086000FEE7FEE7FEE7FEE7FEE7FEE77C0000208E
:100870009800002030B43C4B3C49186882B040F0EE
:10088000010018605D6800202940596019684FF424
:100890001F0421F0847121F48031196019681A460F
:1008A00021F480211960596821F4FE0159609C608F
:1008B00000900190196841F48031196003E0009BB9
:1008C000B3F5A06F09D0136803F400330193009BC4
:1008D00001330093019B002BF1D0234B1B6813F4D1
:1008E000003318BF01230193019B012B06D0204B3D
:1008F0004FF000629A6002B030BC70471D4A1A4B3C
:100900001068194640F010001060106820F00300D5
:100910001060106840F0020010605A685A605A680F
:100920005A605A6842F480625A605A6822F47C1213
:100930005A605A6842F4E8125A601A6842F08072AB
:100940001A600B68084A9B01FBD51146536823F0D7
:1009500003035360536843F0020353604B6803F092
:100960000C03082BFAD1C2E7001002400000FFF888
:1009700000ED00E00020024008B5074B044613B12B
:100980000021AFF30080054B1868836A03B19847D4
:10099000204600F033F800BF000000001C0A0008E9
:1009A0000E4B70B51E460E4C0025E41AA410A5424D
:1009B00004D056F8253098470135F8E700F020F8C4
:1009C000084B094C1E46E41AA4100025A54204D089
:1009D00056F8253098470135F8E770BD74000020BF
:1009E00074000020740000207800002003460244B8
:1009F000934202D003F8011BFAE77047FEE70000BC
:100A0000F8B500BFF8BC08BC9E467047F8B500BFFB
:100A1000F8BC08BC9E46704743000000140000204C
:040A200000000000D2
:080A240024F7FF7F0100000030
:100A2C000204060800000000010203040102030492
:100A3C00060708090000000000000000000000008C
:100A4C00000000000000000000000000000000009A
:100A5C0000000000180A0008000000000000000060
:100A6C00000000000000000000000000000000007A
:100A7C00000000000000000000000000000000006A
:100A8C00000000000000000000000000000000005A
:0C0A9C000000000011010008ED0000083F
:0400000508000000EF
:00000001FF
