:020000040800F2
:10000000005000201D050008630500086505000874
:1000100067050008690500086B050008000000007E
:100020000000000000000000000000006D05000856
:100030006F05000800000000710500087305000846
:1000400077050008790500087B0500087D05000894
:100050007F05000881050008830500088505000864
:100060008705000889050008050400088D050008BB
:100070008F05000891050008930500089505000804
:1000800097050008990500089B0500089D050008D4
:100090009F050008A1050008A3050008A5050008A4
:1000A000A7050008A9050008AB050008AD05000874
:1000B000AF050008B1050008B3050008B505000844
:1000C000B7050008B9050008BB050008BD05000814
:1000D000BF050008C1050008C3050008C5050008E4
:1000E000C7050008C9050008CB05000810B5054C78
:1000F000237833B9044B13B10448AFF300800123D4
:10010000237010BD68000020000000008007000878
:10011000084B10B51BB108490848AFF300800848E8
:10012000036803B910BD074B002BFBD0BDE810409E
:10013000184700BF000000006C0000208007000886
:100140006800002000000000154B002B08BF134B77
:100150009D46A3F5803A00218B460F461348144A6A
:10016000121A00F0F3FA0F4B002B00D098470E4BF9
:10017000002B00D098470020002104000D000D48FE
:10018000002802D00C48AFF3008000F0B9FA20003C
:10019000290000F065F900F09FFA00BF0000080098
:1001A0000050002000000000000000006800002057
:1001B000850000200000000000000000C3785BB94B
:1001C000037801215A09164803F01F03203201FA6F
:1001D00003F340F82230704730B4124B8278D9686C
:1001E0004478C9430F23C1F30221C1F10405CB4078
:1001F000AC401340027823431B0102F16042DBB2A2
:1002000002F5614282F800330378012203F01F00F7
:1002100003495B09824041F8232030BC704700BF8E
:1002200000E100E000ED00E08379002B2BD010B45A
:100230001F4B01681A6822EA01021A605A680168B5
:1002400022EA01025A600279016802F1804202F555
:1002500082321468214311609A68016822EA01021F
:100260009A60DA68016822EA0102DA604279102AAB
:1002700014D002F1804303F58233026819680A43FF
:100280001A6010BC70470379016803F1804303F5DD
:1002900082331A6822EA01021A607047996802687C
:1002A0000A439A600268D9680A43DA6010BC704752
:1002B00000040140054B1A685B69034004D0024208
:1002C00014BF012000207047184670470004014009
:1002D000014B5861704700BF00040140CB782DE905
:1002E000F04103F00F06DB0648BF8B780C8848BF4F
:1002F0001E4314F0FF0F26D00568002301274FF09E
:100300000F0803E00133082B1BD00C8807FA03F217
:1003100032EA0404F6D19C0091F803E008FA04FCE8
:1003200025EA0C0506FA04F4BEF1280F45EA040597
:1003300038D0BEF1480F03F1010308BF0261082B5A
:10034000E3D105600C88FF2C2AD9456800230127DA
:100350004FF00F0C03E00133082B20D00C8803F181
:10036000080207FA02F232EA0404F4D191F803E039
:100370009C00BEF1280F04BF426191F803E00CFA23
:1003800004F8BEF1480F03F1010325EA080506FA57
:1003900004F408BF0261082B45EA0405DED145607C
:1003A000BDE8F0814261ADE7C368194214BF012086
:1003B00000207047016170474161704710B401F03F
:1003C000FC0303F1804303F5803301F003019C68D3
:1003D00089000F228A4024EA02029A609A688840C3
:1003E0001043986010BC704729B9054A936923EA05
:1003F000000090617047024B9A6910439861704702
:100400000010024008B51020FFF754FF00B908BDE6
:10041000034B01221A701020BDE80840FFF758BFB7
:100420008400002030B5102383B0184602220B4C04
:1004300001218DF807308DF806204FF40055FFF7A5
:10044000D3FF02A921F8045D2046FFF747FF2946A4
:100450002046FFF7AFFF03B030BD00BF00100140E2
:10046000F0B585B0FFF7DEFF01210846FFF7BCFFBE
:10047000102703224823012108208DF802208DF83F
:100480000330ADF80070FFF7AFFF69461F48FFF774
:1004900025FF04210120FFF791FF002501260C23F1
:1004A00002A88DF80E608DF80D3002978DF80C5073
:1004B000FFF7BAFE8DF807602E46154C0A2301A8F7
:1004C0008DF805508DF806508DF80430FFF776FE54
:1004D0002570104B00BF013BFCD12378012BF8D1D4
:1004E0004FF400510C48FFF75FFF4FF4005138B94B
:1004F00000F1804000F58830FFF75CFF2670E8E7E8
:100500000548FFF759FF2670E3E700BF000C0140E4
:100510008400002080841E00001001400649074A24
:10052000074B9A42BEBF51F8040B42F8040BF8E7A0
:1005300004488047044800478C070008000000205A
:1005400068000020D5050008490100081F49204A1D
:10055000002301E041F8043B9142FBD3FFF780FF09
:10056000FEE7FEE7FEE7FEE7FEE7FEE7FEE7FEE763
:10057000FEE7FEE7FEE7FEE7FEE7FEE7FEE7FEE753
:10058000FEE7FEE7FEE7FEE7FEE7FEE7FEE7FEE743
:10059000FEE7FEE7FEE7FEE7FEE7FEE7FEE7FEE733
:1005A000FEE7FEE7FEE7FEE7FEE7FEE7FEE7FEE723
:1005B000FEE7FEE7FEE7FEE7FEE7FEE7FEE7FEE713
:1005C000FEE7FEE7FEE7FEE7FEE7FEE76800002045
:1005D0008500002030B43C4B3C49186882B040F0A4
:1005E000010018605D6800202940596019684FF4C7
:1005F0001F0421F0847121F48031196019681A46B2
:1006000021F480211960596821F4FE0159609C6031
:1006100000900190196841F48031196003E0009B5B
:10062000B3F5A06F09D0136803F400330193009B66
:1006300001330093019B002BF1D0234B1B6813F473
:10064000003318BF01230193019B012B06D0204BDF
:100650004FF000629A6002B030BC70471D4A1A4BDE
:100660001068194640F010001060106820F0030078
:100670001060106840F0020010605A685A605A68B2
:100680005A605A6842F480625A605A6822F47C12B6
:100690005A605A6842F4E8125A601A6842F080724E
:1006A0001A600B68084A9B01FBD51146536823F07A
:1006B00003035360536843F0020353604B6803F035
:1006C0000C03082BFAD1C2E7001002400000FFF82B
:1006D00000ED00E00020024008B5074B044613B1CE
:1006E0000021AFF30080054B1868836A03B1984777
:1006F000204600F033F800BF000000007C0700082F
:100700000E4B70B51E460E4C0025E41AA410A542EF
:1007100004D056F8253098470135F8E700F020F866
:10072000084B094C1E46E41AA4100025A54204D02B
:1007300056F8253098470135F8E770BD6000002075
:100740006000002060000020640000200346024496
:10075000934202D003F8011BFAE77047FEE700005E
:10076000F8B500BFF8BC08BC9E467047F8B500BF9E
:10077000F8BC08BC9E467047430000000000002003
:040780000000000075
:08078400C4F9FF7F0100000031
:10078C00000000000000000000000000000000005D
:10079C00000000000000000000000000000000004D
:1007AC0078070008000000000000000000000000B6
:1007BC00000000000000000000000000000000002D
:1007CC00000000000000000000000000000000001D
:1007DC00000000000000000000000000000000000D
:0807EC0011010008ED000008F6
:0400000508000000EF
:00000001FF
