:020000040800F2
:100000000050002011070008570700085907000892
:100010005B0700085D0700085F070008000000009C
:100020000000000000000000000000006107000860
:100030006307000800000000650700086707000864
:100040006B0700086D0700086F07000871070008BC
:10005000730700087507000877070008790700088C
:100060007B0700087D0700087F070008810700085C
:10007000830700088507000887070008890700082C
:100080008B0700088D0700088F07000891070008FC
:1000900093070008950700089707000899070008CC
:1000A0009B0700089D0700089F070008A10700089C
:1000B000A3070008A5070008A7070008A90700086C
:1000C000AB070008AD070008AF070008B10700083C
:1000D000B3070008B5070008B7070008B90700080C
:1000E000BB070008BD070008BF07000810B5054C96
:1000F000237833B9044B13B10448AFF300800123D4
:10010000237010BD68000020000000007409000882
:10011000084B10B51BB108490848AFF300800848E8
:10012000036803B910BD074B002BFBD0BDE810409E
:10013000184700BF000000006C0000207409000890
:100140006800002000000000154B002B08BF134B77
:100150009D46A3F5803A00218B460F461348144A6A
:10016000121A00F0EDFB0F4B002B00D098470E4BFE
:10017000002B00D098470020002104000D000D48FE
:10018000002802D00C48AFF3008000F0B3FB200041
:10019000290000F04BFA00F099FB00BF00000800B6
:1001A0000050002000000000000000006800002057
:1001B000840000200000000000000000CB782DE942
:1001C000F04103F00F06DB0648BF8B780C8848BF70
:1001D0001E4314F0FF0F26D00568002301274FF0BF
:1001E0000F0803E00133082B1BD00C8807FA03F239
:1001F00032EA0404F6D19C0091F803E008FA04FC0A
:1002000025EA0C0506FA04F4BEF1280F45EA0405B8
:1002100038D0BEF1480F03F1010308BF0261082B7B
:10022000E3D105600C88FF2C2AD9456800230127FB
:100230004FF00F0C03E00133082B20D00C8803F1A2
:10024000080207FA02F232EA0404F4D191F803E05A
:100250009C00BEF1280F04BF426191F803E00CFA44
:1002600004F8BEF1480F03F1010325EA080506FA78
:1002700004F408BF0261082B45EA0405DED145609D
:10028000BDE8F0814261ADE74FF6FF710222042321
:1002900001808270C370704729B9054A936923EAC7
:1002A000000090617047024B9A6910439861704753
:1002B0000010024029B9054AD36923EA0000D06141
:1002C0007047024BDA691043D86170470010024052
:1002D000254A038890429BB212D002F500629042F8
:1002E0000ED0B0F1804F0BD0A2F59832904207D0DB
:1002F00002F58062904203D002F58062904203D101
:100300004A8823F070031343184A904224D002F520
:100310008062904220D0CA8823F440739BB213437A
:1003200003808A88104B82850A88984202850ED005
:100330000F4B98420BD003F54063984207D003F56A
:100340008063984203D003F58063984201D10B7A11
:10035000038601238382704703808B8883850B8803
:100360000385012383827047002C01400010004068
:1003700000340140038CF0B423F001031B041B0C78
:100380000384048C8788028B0E8924F002044B8836
:100390001B4D240422F07302240C334312040E88F4
:1003A0002343120CA8429BB2BCB242EA060216D00A
:1003B00005F50065A84212D005F54065A8420ED0AB
:1003C00005F58065A8420AD005F58065A84206D0EB
:1003D00084800283CA88F0BC8286038470474E8979
:1003E0008F89CD8923F00803334324F440748E8829
:1003F0003D4323F004032C433343A4B2E8E700BF9A
:10040000002C0140038CF0B423F010031B041B0CE0
:100410000384038C858823F02003028B0C891B0442
:1004200022F4E6421B0C43EA0413174E0C88120414
:100430004F88120C43EA071342EA0422B0429BB2EF
:10044000ADB294B209D0114A904206D0858004839F
:10045000CA88F0BC0287038470474FF6BF7623F04A
:1004600080024B8992B242EA03128F89164025F42A
:1004700040658B88CA8945EA870546EA031345EA41
:1004800082059BB2ADB2E1E7002C0140003401408F
:10049000038CF0B423F480731B041B0C0384038CC3
:1004A000848823F40073828B0D891B04194E1B0C66
:1004B00022F073024F8843EA052312040D8843EAB1
:1004C0000723120CB0429BB2A4B245EA02050AD03F
:1004D00006F50066B04206D084808583CA88F0BCE9
:1004E0008287038470474FF6FF3623F400624B89FE
:1004F00092B242EA03228F89164024F440548B883A
:10050000CA8944EA071446EA032344EA02149BB268
:10051000A4B2E1E7002C0140038CF0B423F4805333
:100520001B041B0C0384028C848822F40052838BEE
:100530000E89120423F4E643120C42EA0632104DEF
:100540001B044F880E881B0C42EA073243EA06233D
:10055000A84292B2A4B29BB20BD005F50065A842A6
:1005600007D084808383CB88F0BCA0F8403002841D
:1005700070478D8924F4804444EA8514A4B2F0E7DE
:10058000002C01404FF6FF72002382800380C3805D
:1005900043800372704700BF002303804380838041
:1005A000C380038143818381C3817047038829B954
:1005B00023F001031B041B0C038070479BB243F024
:1005C00001030380704700BF038829B923F080032B
:1005D0001B041B0C038070479BB243F08003038015
:1005E000704700BF038B23F008031B041B0C194347
:1005F00001837047038B23F400631B041B0C43EA45
:10060000012189B201837047838B23F008031B0407
:100610001B0C194381837047838B23F400631B04F5
:100620001B0C43EA012189B28183704710B5012177
:1006300088B00D20FFF730FE6846FFF725FEC02288
:10064000182369462F48ADF800208DF80330FFF7D6
:10065000B5FD032369462C48ADF80030FFF7AEFD29
:1006600001210220FFF726FE01A8FFF78BFF40F2D1
:100670001F32022301A92548ADF80820ADF8043047
:10068000FFF726FE01212148FFF79EFF04A8FFF790
:1006900083FF01246022502304A91C48ADF81020D8
:1006A000ADF81630ADF81240FFF764FE0821174888
:1006B000FFF798FFA02304A91448ADF81630FFF700
:1006C000A1FE08211148FFF795FF4FF4C87304A954
:1006D0000E48ADF81630FFF7DBFE08210B48FFF798
:1006E00093FF4FF4207304A90848ADF81630FFF7C4
:1006F00013FF08210548FFF78FFF21460348FFF746
:1007000055FFFEE700080140000C014000040040D6
:100710000649074A074B9A42BEBF51F8040B42F8FC
:10072000040BF8E7044880470448004780090008A4
:100730000000002068000020C907000849010008E7
:100740001F49204A002301E041F8043B9142FBD3BA
:10075000FFF76CFFFEE7FEE7FEE7FEE7FEE7FEE7DA
:10076000FEE7FEE7FEE7FEE7FEE7FEE7FEE7FEE761
:10077000FEE7FEE7FEE7FEE7FEE7FEE7FEE7FEE751
:10078000FEE7FEE7FEE7FEE7FEE7FEE7FEE7FEE741
:10079000FEE7FEE7FEE7FEE7FEE7FEE7FEE7FEE731
:1007A000FEE7FEE7FEE7FEE7FEE7FEE7FEE7FEE721
:1007B000FEE7FEE7FEE7FEE7FEE7FEE7FEE7FEE711
:1007C000680000208400002030B43C4B3C4918688D
:1007D00082B040F0010018605D6800202940596037
:1007E00019684FF41F0421F0847121F480311960DD
:1007F00019681A4621F480211960596821F4FE0114
:1008000059609C6000900190196841F48031196032
:1008100003E0009BB3F5A06F09D0136803F4003325
:100820000193009B01330093019B002BF1D0234BDC
:100830001B6813F4003318BF01230193019B012BA4
:1008400006D0204B4FF000629A6002B030BC704777
:100850001D4A1A4B1068194640F0100010601068CD
:1008600020F003001060106840F0020010605A6829
:100870005A605A685A605A6842F480625A605A68EC
:1008800022F47C125A605A6842F4E8125A601A68DC
:1008900042F080721A600B68084A9B01FBD5114632
:1008A000536823F003035360536843F0020353601B
:1008B0004B6803F00C03082BFAD1C2E7001002408A
:1008C0000000FFF800ED00E00020024008B5074BF3
:1008D000044613B10021AFF30080054B1868836A0A
:1008E00003B19847204600F033F800BF0000000035
:1008F000700900080E4B70B51E460E4C0025E41A18
:10090000A410A54204D056F8253098470135F8E7E1
:1009100000F020F8084B094C1E46E41AA4100025EC
:10092000A54204D056F8253098470135F8E770BD48
:1009300060000020600000206000002064000020B3
:1009400003460244934202D003F8011BFAE77047C2
:10095000FEE70000F8B500BFF8BC08BC9E46704733
:10096000F8B500BFF8BC08BC9E46704743000000C5
:0809700000000020000000005F
:08097800D0F7FF7F0100000031
:100980000000000000000000000000000000000067
:100990000000000000000000000000000000000057
:1009A0006C090008000000000000000000000000CA
:1009B0000000000000000000000000000000000037
:1009C0000000000000000000000000000000000027
:1009D0000000000000000000000000000000000017
:0809E00011010008ED00000800
:0400000508000000EF
:00000001FF
