:020000040800F2
:100000000050002089090008CF090008D109000824
:10001000D3090008D5090008D7090008000000002E
:10002000000000000000000000000000D9090008E6
:10003000DB09000800000000DD090008DF090008F6
:10004000E3090008E5090008E7090008F1080008CD
:10005000EB090008ED090008EF090008F1090008A4
:10006000F3090008F5090008F7090008F909000874
:10007000FB090008FD090008FF090008010A000843
:10008000030A0008050A0008070A0008090A000810
:100090000B0A00080D0A00080F0A0008110A0008E0
:1000A000130A0008150A0008170A0008190A0008B0
:1000B0001B0A00081D0A00081F0A0008210A000880
:1000C000230A0008250A0008270A0008290A000850
:1000D0002B0A00082D0A00082F0A0008310A000820
:1000E000330A0008350A0008370A000810B5054C25
:1000F000237833B9044B13B10448AFF300800123D4
:10010000237010BD7C00002000000000580C000887
:10011000084B10B51BB108490848AFF300800848E8
:10012000036803B910BD074B002BFBD0BDE810409E
:10013000184700BF0000000080000020580C000895
:100140007C00002000000000154B002B08BF134B63
:100150009D46A3F5803A00218B460F461348144A6A
:10016000121A00F029FD0F4B002B00D098470E4BC0
:10017000002B00D098470020002104000D000D48FE
:10018000002802D00C48AFF3008000F0EFFC200004
:10019000290000F025FB00F0D5FC00BF000008009E
:1001A0000050002000000000000000007C00002043
:1001B000990000200000000000000000C3785BB937
:1001C000037801215A09164803F01F03203201FA6F
:1001D00003F340F82230704730B4124B8278D9686C
:1001E0004478C9430F23C1F30221C1F10405CB4078
:1001F000AC401340027823431B0102F16042DBB2A2
:1002000002F5614282F800330378012203F01F00F7
:1002100003495B09824041F8232030BC704700BF8E
:1002200000E100E000ED00E0CB782DE9F04103F0C3
:100230000F06DB0648BF8B780C8848BF1E4314F0BE
:10024000FF0F26D00568002301274FF00F0803E0B9
:100250000133082B1BD00C8807FA03F232EA04049E
:10026000F6D19C0091F803E008FA04FC25EA0C059D
:1002700006FA04F4BEF1280F45EA040538D0BEF1B1
:10028000480F03F1010308BF0261082BE3D10560A9
:100290000C88FF2C2AD94568002301274FF00F0C4A
:1002A00003E00133082B20D00C8803F1080207FA81
:1002B00002F232EA0404F4D191F803E09C00BEF1AA
:1002C000280F04BF426191F803E00CFA04F8BEF174
:1002D000480F03F1010325EA080506FA04F408BFF4
:1002E0000261082B45EA0405DED14560BDE8F081D6
:1002F0004261ADE7C368194214BF01200020704776
:100300000161704741617047014B1860704700BF41
:1003100020000E42064B002201281A701A7005D0E8
:10032000042802D105221A70704770471870704770
:1003300020100240024A136A18431062704700BF3F
:1003400000100240014B1860704700BF3C0442425D
:1003500030B4214A536803F00C03042B06D0082B59
:1003600025D01BB11D4A1346026001E01B4B036000
:10037000194A1B4C51681B4DC1F30311615CCB4002
:1003800043605168C1F30221615C23FA01F181608D
:100390005168C1F3C221615CCB40C3605268C2F3B3
:1003A0008132AA5C30BCB3FBF2F30361704753683F
:1003B0005168C3F38343C90303F1020307D55268AD
:1003C000920304D4054A02FB03F30360D0E7064A14
:1003D00002FB03F30360CBE70010024000127A0037
:1003E000040000200000002000093D0029B9054A52
:1003F000936923EA000090617047024B9A691043A9
:10040000986170470010024029B9054AD36923EA70
:100410000000D0617047024BDA691043D861704721
:1004200000100240014B1860704700BF4004424278
:100430004309012B0BD0022B094B00F01F000CBF0E
:100440001B6A5B6A23FA00F000F001007047044B5E
:1004500000F01F001B6823FA00F000F00100704755
:1004600000100240054A13889BB219B923EA000024
:100470001080704718431080704700BF002800406C
:10048000034A938B108B9BB243EA0040704700BF36
:1004900000280040084A010C938880B29BB243F0C8
:1004A0001003938011839083938823F010031B041F
:1004B0001B0C9380704700BF00280040084AC0F31F
:1004C0000341938880B29BB243F010039380118163
:1004D0009081938823F010031B041B0C93807047BA
:1004E00000280040084A010C938880B29BB243F078
:1004F0001003938011849084938823F010031B04CD
:100500001B0C9380704700BF00280040024A93886C
:100510009B06FCD5704700BF0028004005490A46ED
:100520008B8823F008031B041B0C8B8093881B070C
:10053000FCD5704700280040064B9A881B8892B271
:10054000034005D01040C0B2003018BF01207047F2
:100550001846704700280040034A93889BB223EA5C
:1005600000009080704700BF0028004030B504466E
:100570000D46038ACA889BB223F440531343038277
:1005800082890B89888892B24989034322F4B05248
:100590000B4322F00C0213439BB2A381A38AAA89C6
:1005A0009BB223F4407387B01343A38201A8FFF7E3
:1005B000CFFE04991A48039BA289844208BF0B46C8
:1005C00012F4004F2A6803EB830314BF5200920019
:1005D00003EB8303B3FBF2F3124DA189A5FB0320C8
:1005E0006422400900FB12330A044FEA00100AD4C7
:1005F0001A013232A5FB0223C3F3431303439BB218
:10060000238107B030BDD9003231A5FB0131C1F3E0
:10061000421242EA00039BB2238107B030BD00BF03
:10062000003801401F85EB5100234FF416510C2276
:10063000016042818380C38003818381704700BF52
:10064000838929B923F400531B041B0C8381704751
:100650009BB243F400538381704700BFC1F308018C
:10066000818070470388194214BF01200020704721
:1006700030B5102383B0184602220B4C01218DF8AF
:1006800007308DF806204FF40055FFF7AFFE02A9A2
:1006900021F8045D2046FFF7C7FD29462046FFF7F5
:1006A0002FFE03B030BD00BF0010014070B5194EE1
:1006B00086B0012144F20500FFF798FE032530467D
:1006C00001A94FF400721823ADF804208DF807300B
:1006D000114C8DF80650FFF7A7FD4FF4806201A979
:1006E00004233046ADF804208DF807308DF806500D
:1006F000FFF79AFD02A8FFF797FF4FF4165302A9E0
:1007000020460293FFF732FF20460121FFF798FFB2
:1007100006B070BD0008014000380140024630B507
:10072000204C85B02068616801AB03C324891C801C
:1007300052B300241C4D00E01C46A5FB0231C90841
:1007400001EB8103303204A8A2EB43022044631C76
:1007500000F80C2CDBB20A460029EDD193B19D1EA6
:100760002C1B01AA013B1519D41880210F48FFF753
:1007700079FF0028F9D014F801190C48FFF76EFF33
:10078000AC42F2D105B030BD80210848FFF76AFFC6
:100790000028F9D00548302105B0BDE83040FFF70A
:1007A0005DBF00BFE40B0008CDCCCCCC00380140CD
:1007B00091B138B54D1EADB20544441E80210748A5
:1007C000FFF750FF0028F9D014F8011F0348FFF786
:1007D00045FFAC42F2D138BD704700BF0038014040
:1007E00030B583B0FFF744FFFFF760FF1E213948A3
:1007F000FFF7DEFF01214FF0C050FFF705FE01209B
:10080000FFF782FD0120FFF70DFE0020FFF70AFE33
:100810000120FFF77FFD4120FFF70AFE0028FAD0F4
:100820004FF48070FFF786FD47F6FF70FFF746FE36
:100830000120FFF787FDFFF771FEFFF767FE01213B
:100840000320FFF70FFE0720FFF786FE224D002052
:10085000FFF720FE00240123032201A88DF80730B2
:100860008DF804208DF805408DF80640FFF7A6FCB2
:100870002C70234600E02B7800BF012BFBD14FF4F6
:1008800000511648FFF736FD4FF40051C0B900F192
:10089000804000F58830FFF733FD0B211048FFF74B
:1008A00087FF0A210F48FFF783FFFFF7E9FDFFF7F6
:1008B00035FF01210C48FFF77BFF00232B70DAE79F
:1008C0004FF400510548FFF71DFD0E210748FFF7C3
:1008D0006FFFE6E7F00B00089800002000100140D1
:1008E000100C00082C0C0008440C00081C0C00081C
:1008F00038B5FFF7C5FD05460220FFF71DFE0128AC
:1009000023D00420FFF718FE01282DD00120FFF787
:1009100013FE0128044603D0174B01221A7038BD7C
:1009200005211648FFF744FF2046FFF715FE052D69
:10093000F2D120460021FFF795FD21460220FFF766
:1009400091FD0A20FFF7CEFDE6E70146FFF78AFD9D
:1009500005210B48FFF72CFF0220FFF7FDFD0420C7
:10096000FFF7EAFD0128D1D105210648FFF720FF56
:100970000420FFF7F1FDC9E798000020480C0008AB
:10098000380C0008400C00080649074A074B9A42F9
:10099000BEBF51F8040B42F8040BF8E70448804747
:1009A00004480047640C0008000000207C00002080
:1009B000410A0008490100081F49204A002301E0BC
:1009C00041F8043B9142FBD3FFF70AFFFEE7FEE745
:1009D000FEE7FEE7FEE7FEE7FEE7FEE7FEE7FEE7EF
:1009E000FEE7FEE7FEE7FEE7FEE7FEE7FEE7FEE7DF
:1009F000FEE7FEE7FEE7FEE7FEE7FEE7FEE7FEE7CF
:100A0000FEE7FEE7FEE7FEE7FEE7FEE7FEE7FEE7BE
:100A1000FEE7FEE7FEE7FEE7FEE7FEE7FEE7FEE7AE
:100A2000FEE7FEE7FEE7FEE7FEE7FEE7FEE7FEE79E
:100A3000FEE7FEE7FEE7FEE77C00002099000020CD
:100A400030B43C4B3C49186882B040F0010018605B
:100A50005D6800202940596019684FF41F0421F097
:100A6000847121F48031196019681A4621F48021BB
:100A70001960596821F4FE0159609C600090019052
:100A8000196841F48031196003E0009BB3F5A06F51
:100A900009D0136803F400330193009B01330093E2
:100AA000019B002BF1D0234B1B6813F4003318BFBC
:100AB00001230193019B012B06D0204B4FF00062D4
:100AC0009A6002B030BC70471D4A1A4B1068194634
:100AD00040F010001060106820F0030010601068F3
:100AE00040F0020010605A685A605A685A605A68AA
:100AF00042F480625A605A6822F47C125A605A6842
:100B000042F4E8125A601A6842F080721A600B6868
:100B1000084A9B01FBD51146536823F00303536039
:100B2000536843F0020353604B6803F00C03082B37
:100B3000FAD1C2E7001002400000FFF800ED00E02B
:100B40000020024008B5074B044613B10021AFF363
:100B50000080054B1868836A03B19847204600F06F
:100B600033F800BF00000000540C00080E4B70B5B5
:100B70001E460E4C0025E41AA410A54204D056F8D7
:100B8000253098470135F8E700F020F8084B094C6C
:100B90001E46E41AA4100025A54204D056F82530BC
:100BA00098470135F8E770BD7400002074000020FC
:100BB000740000207800002003460244934202D0D3
:100BC00003F8011BFAE77047FEE70000F8B500BF25
:100BD000F8BC08BC9E467047F8B500BFF8BC08BC1E
:100BE0009E4670473030303030303030303000008A
:100BF000456A656D706C6F2052544320636F6E20A0
:100C0000696E7465727275706369F36E200A000014
:100C10006170616761206C6564200A00656E6369BC
:100C2000656E6465206C6564200A0000636F6E74F5
:100C300061646F723D200000414C52200A000000A8
:100C40004F5720200A000000534543200A000000AF
:0C0C500043000000140000200000000021
:080C5C00ECF4FF7F0100000031
:100C64000204060800000000010203040102030458
:100C74000607080900000000000000000000000052
:100C84000000000000000000000000000000000060
:100C940000000000500C00080000000000000000EC
:100CA4000000000000000000000000000000000040
:100CB4000000000000000000000000000000000030
:100CC4000000000000000000000000000000000020
:0C0CD4000000000011010008ED00000805
:0400000508000000EF
:00000001FF
