:020000040800F2
:1000000000500020A9070008EF070008F1070008CA
:10001000F3070008F5070008F707000800000000D4
:10002000000000000000000000000000F9070008C8
:10003000FB07000800000000FD070008FF0700089C
:100040000308000805080008070800080908000858
:100050000B0800080D0800080F0800081108000828
:1000600013080008150800081708000819080008F8
:100070001B0800081D0800081F08000821080008C8
:100080002308000825080008270800082908000898
:100090002B0800082D0800082F0800083108000868
:1000A0003308000835080008370800083908000838
:1000B0003B0800083D0800083F0800084108000808
:1000C00043080008450800084708000849080008D8
:1000D0004B0800084D0800084F08000851080008A8
:1000E00053080008550800085708000810B5054CCB
:1000F000237833B9044B13B10448AFF300800123D4
:10010000237010BD7C00002000000000340A0008AD
:10011000084B10B51BB108490848AFF300800848E8
:10012000036803B910BD074B002BFBD0BDE810409E
:10013000184700BF0000000080000020340A0008BB
:100140007C00002000000000154B002B08BF134B63
:100150009D46A3F5803A00218B460F461348144A6A
:10016000121A00F039FC0F4B002B00D098470E4BB1
:10017000002B00D098470020002104000D000D48FE
:10018000002802D00C48AFF3008000F0FFFB2000F5
:10019000290000F09FFA00F0E5FB00BF0000080016
:1001A0000050002000000000000000007C00002043
:1001B0009800002000000000000000004FF6FE72D2
:1001C00003683A491A4088424FF000030260036016
:1001D00043608360C36027D0354B98422AD0354BAB
:1001E00098422DD0344B984230D0344B984239D07D
:1001F000334B98423CD0334B98420FD0324B98420D
:100200003CD0324B98423FD0314B984242D0314B98
:10021000984245D0304B98421ED070472F4A5368C1
:1002200043F07063536070472C4A536843F00F03E8
:1002300053607047294A536843F0F0035360704796
:10024000264A536843F4706353607047234A5368E7
:1002500043F4704353607047214A536843F470235A
:100260005360DAE71D4A536843F4702353607047C4
:100270001A4A536843F4700353607047184A53682E
:1002800043F00F0353607047154A536843F0F0037F
:1002900053607047124A536843F470635360704769
:1002A0000F4A536843F4704353607047080002409C
:1002B0001C0002403000024044000240580002404E
:1002C0006C00024080000240080402401C0402400E
:1002D000300402404404024058040240000002403E
:1002E000000402400A6A30B48D680B692A434D69E4
:1002F00013438A691D43CB6945EA02044D6A0268CB
:1003000023438C6A1D4322F4FF432C4323F07003E4
:1003100023430360CB6830BC43600B6883604B6849
:10032000C36070470023036043608360C360036160
:1003300043618361C361036243628362704700BFAC
:1003400029B94FF6FE7302681340036070470368D3
:1003500043F001030360704741607047C3004CBF26
:10036000034B044B1B68034214BF0120002070475D
:100370000004024000000240FFF7F0BFCB782DE9F7
:10038000F04103F00F06DB0648BF8B780C8848BFAE
:100390001E4314F0FF0F26D00568002301274FF0FD
:1003A0000F0803E00133082B1BD00C8807FA03F277
:1003B00032EA0404F6D19C0091F803E008FA04FC48
:1003C00025EA0C0506FA04F4BEF1280F45EA0405F7
:1003D00038D0BEF1480F03F1010308BF0261082BBA
:1003E000E3D105600C88FF2C2AD94568002301273A
:1003F0004FF00F0C03E00133082B20D00C8803F1E1
:10040000080207FA02F232EA0404F4D191F803E098
:100410009C00BEF1280F04BF426191F803E00CFA82
:1004200004F8BEF1480F03F1010325EA080506FAB6
:1004300004F408BF0261082B45EA0405DED14560DB
:10044000BDE8F0814261ADE70161704741617047ED
:1004500030B4214A536803F00C03042B06D0082B58
:1004600025D01BB11D4A1346026001E01B4B0360FF
:10047000194A1B4C51681B4DC1F30311615CCB4001
:1004800043605168C1F30221615C23FA01F181608C
:100490005168C1F3C221615CCB40C3605268C2F3B2
:1004A0008132AA5C30BCB3FBF2F30361704753683E
:1004B0005168C3F38343C90303F1020307D55268AC
:1004C000920304D4054A02FB03F30360D0E7064A13
:1004D00002FB03F30360CBE70010024000127A0036
:1004E000040000200000002000093D0029B9054A51
:1004F000536923EA000050617047024B5A69104368
:10050000586170470010024029B9054A936923EAEF
:10051000000090617047024B9A69104398617047E0
:100520000010024030B504460D46038ACA889BB2CB
:1005300023F440531343038282890B89888892B243
:100540004989034322F4B0520B4322F00C021343B7
:100550009BB2A381A38AAA899BB223F4407387B07C
:100560001343A38201A8FFF773FF04991A48039B62
:10057000A289844208BF0B4612F4004F2A6803EB9D
:10058000830314BF5200920003EB8303B3FBF2F327
:10059000124DA189A5FB03206422400900FB123300
:1005A0000A044FEA00100AD41A013232A5FB0223D2
:1005B000C3F3431303439BB2238107B030BDD9007B
:1005C0003231A5FB0131C1F3421242EA00039BB272
:1005D000238107B030BD00BF003801401F85EB51BB
:1005E00000234FF416510C22016042818380C380A6
:1005F00003818381704700BF838929B923F40053A5
:100600001B041B0C838170479BB243F4005383810E
:10061000704700BF838A9BB21AB923EA0101818225
:10062000704719438182704730B5102383B0184654
:1006300002220B4C01218DF807308DF806204FF473
:100640000055FFF761FF02A921F8045D2046FFF77E
:1006500095FE29462046FFF7F7FE03B030BD00BFE8
:100660000010014070B5194E86B0012144F205001A
:10067000FFF74AFF0325304601A94FF40072182303
:10068000ADF804208DF80730114C8DF80650FFF7B7
:1006900075FE4FF4806201A904233046ADF80420B2
:1006A0008DF807308DF80650FFF768FE02A8FFF7B7
:1006B00097FF4FF4165302A920460293FFF732FF2B
:1006C00020460121FFF798FF06B070BD00080140E9
:1006D00000380140F0B52F4D97B001ACFFF7A4FFF3
:1006E000FFF7C0FF0FCD0FC40FCD0FC495E8030077
:1006F00084E8030001210846FFF7F8FE2648FFF7CB
:100700005DFD0BA8FFF70EFE244A102000230BA965
:1007100080250B920D904FF400621F4801AC0A2710
:100720004FF400760F9313931493159312920C9435
:100730000E9710951196FFF7D5FD2946184801220E
:10074000FFF768FF01211448FFF7FAFD4FF400504E
:10075000FFF712FE0028F9D0392344F8043B013B8F
:100760002F2BFAD100210C48FFF7EAFD0A210A4895
:10077000FFF7F2FD01210848FFF7E2FD4FF40050BA
:10078000FFF7FAFD0028F9D04FF400510548FFF7B4
:100790005DFEFEE7040A0008440002400438014000
:1007A00000380140001001400649074A074B9A42B1
:1007B000BEBF51F8040B42F8040BF8E70448804729
:1007C00004480047400A0008000000207C00002088
:1007D00061080008490100081F49204A002301E080
:1007E00041F8043B9142FBD3FFF774FFFEE7FEE7BD
:1007F000FEE7FEE7FEE7FEE7FEE7FEE7FEE7FEE7D1
:10080000FEE7FEE7FEE7FEE7FEE7FEE7FEE7FEE7C0
:10081000FEE7FEE7FEE7FEE7FEE7FEE7FEE7FEE7B0
:10082000FEE7FEE7FEE7FEE7FEE7FEE7FEE7FEE7A0
:10083000FEE7FEE7FEE7FEE7FEE7FEE7FEE7FEE790
:10084000FEE7FEE7FEE7FEE7FEE7FEE7FEE7FEE780
:10085000FEE7FEE7FEE7FEE77C00002098000020B0
:1008600030B43C4B3C49186882B040F0010018603D
:100870005D6800202940596019684FF41F0421F079
:10088000847121F48031196019681A4621F480219D
:100890001960596821F4FE0159609C600090019034
:1008A000196841F48031196003E0009BB3F5A06F33
:1008B00009D0136803F400330193009B01330093C4
:1008C000019B002BF1D0234B1B6813F4003318BF9E
:1008D00001230193019B012B06D0204B4FF00062B6
:1008E0009A6002B030BC70471D4A1A4B1068194616
:1008F00040F010001060106820F0030010601068D5
:1009000040F0020010605A685A605A685A605A688B
:1009100042F480625A605A6822F47C125A605A6823
:1009200042F4E8125A601A6842F080721A600B684A
:10093000084A9B01FBD51146536823F0030353601B
:10094000536843F0020353604B6803F00C03082B19
:10095000FAD1C2E7001002400000FFF800ED00E00D
:100960000020024008B5074B044613B10021AFF345
:100970000080054B1868836A03B19847204600F051
:1009800033F800BF00000000300A00080E4B70B5BD
:100990001E460E4C0025E41AA410A54204D056F8B9
:1009A000253098470135F8E700F020F8084B094C4E
:1009B0001E46E41AA4100025A54204D056F825309E
:1009C00098470135F8E770BD7400002074000020DE
:1009D000740000207800002003460244934202D0B5
:1009E00003F8011BFAE77047FEE70000F8B500BF07
:1009F000F8BC08BC9E467047F8B500BFF8BC08BC00
:100A00009E467047300000003100000032000000B8
:100A10003300000034000000350000003600000004
:100A200037000000380000003900000043000000DB
:080A300014000020000000008A
:080A380010F7FF7F0100000030
:100A4000020406080000000001020304010203047E
:100A50000607080900000000000000000000000078
:100A60000000000000000000000000000000000086
:100A7000000000002C0A0008000000000000000038
:100A80000000000000000000000000000000000066
:100A90000000000000000000000000000000000056
:100AA0000000000000000000000000000000000046
:0C0AB0000000000011010008ED0000082B
:0400000508000000EF
:00000001FF
