:020000040800F2
:1000000000500020150900085B0900085D09000880
:100010005F0900086109000863090008000000008A
:10002000000000000000000000000000650900085A
:100030006709000800000000690900086B09000852
:100040006F090008710900087309000875090008A4
:1000500077090008790900087B0900087D09000874
:100060007F09000881090008830900088509000844
:100070008709000889090008ED0800088D090008B3
:100080008F090008910900089309000895090008E4
:1000900097090008990900089B0900089D090008B4
:1000A0009F090008A1090008A3090008A509000884
:1000B000A7090008A9090008AB090008AD09000854
:1000C000AF090008B1090008B3090008B509000824
:1000D000B7090008B9090008BB090008BD090008F4
:1000E000BF090008C1090008C309000810B5054C84
:1000F000237833B9044B13B10448AFF300800123D4
:10010000237010BD7C00002000000000A00B000840
:10011000084B10B51BB108490848AFF300800848E8
:10012000036803B910BD074B002BFBD0BDE810409E
:10013000184700BF0000000080000020A00B00084E
:100140007C00002000000000154B002B08BF134B63
:100150009D46A3F5803A00218B460F461348144A6A
:10016000121A00F0EFFC0F4B002B00D098470E4BFB
:10017000002B00D098470020002104000D000D48FE
:10018000002802D00C48AFF3008000F0B5FC20003E
:10019000290000F0EBFA00F09BFC00BF0000080013
:1001A0000050002000000000000000007C00002043
:1001B000980000200000000000000000C3785BB938
:1001C000037801215A09164803F01F03203201FA6F
:1001D00003F340F82230704730B4124B8278D9686C
:1001E0004478C9430F23C1F30221C1F10405CB4078
:1001F000AC401340027823431B0102F16042DBB2A2
:1002000002F5614282F800330378012203F01F00F7
:1002100003495B09824041F8232030BC704700BF8E
:1002200000E100E000ED00E04FF6FE7203683A499D
:100230001A4088424FF0000302600360436083600D
:10024000C36027D0354B98422AD0354B98422DD0E9
:10025000344B984230D0344B984239D0334B98428B
:100260003CD0334B98420FD0324B98423CD0324B6B
:1002700098423FD0314B984242D0314B984245D0C2
:10028000304B98421ED070472F4A536843F070633A
:10029000536070472C4A536843F00F035360704714
:1002A000294A536843F0F00353607047264A536865
:1002B00043F4706353607047234A536843F47043B8
:1002C00053607047214A536843F470235360DAE760
:1002D0001D4A536843F47023536070471A4A5368A9
:1002E00043F4700353607047184A536843F00F0398
:1002F00053607047154A536843F0F00353607047EA
:10030000124A536843F47063536070470F4A53684E
:1003100043F4704353607047080002401C000240E1
:100320003000024044000240580002406C0002408D
:1003300080000240080402401C04024030040240D5
:1003400044040240580402400000024000040240FD
:100350000A6A30B48D680B692A434D6913438A6970
:100360001D43CB6945EA02044D6A026823438C6A47
:100370001D4322F4FF432C4323F070032343036007
:10038000CB6830BC43600B6883604B68C3607047C8
:100390000023036043608360C36003614361836142
:1003A000C361036243628362704700BF29B94FF69D
:1003B000FE730268134003607047036843F0010353
:1003C0000360704703681AB923EA010101607047AE
:1003D00019430160704700BF41607047C3004CBFC4
:1003E000034B044B1B68034214BF012000207047DD
:1003F0000004024000000240FFF7F0BFC3004CBF02
:10040000014B024B5860704700040240000002405C
:10041000FFF7F4BFCB782DE9F04103F00F06DB06C0
:1004200048BF8B780C8848BF1E4314F0FF0F26D0BE
:100430000568002301274FF00F0803E00133082B64
:100440001BD00C8807FA03F232EA0404F6D19C00B0
:1004500091F803E008FA04FC25EA0C0506FA04F416
:10046000BEF1280F45EA040538D0BEF1480F03F16C
:10047000010308BF0261082BE3D105600C88FF2C43
:100480002AD94568002301274FF00F0C03E0013300
:10049000082B20D00C8803F1080207FA02F232EA96
:1004A0000404F4D191F803E09C00BEF1280F04BFCE
:1004B000426191F803E00CFA04F8BEF1480F03F131
:1004C000010325EA080506FA04F408BF0261082BB7
:1004D00045EA0405DED14560BDE8F0814261ADE743
:1004E000016170474161704730B4214A536803F09D
:1004F0000C03042B06D0082B25D01BB11D4A134634
:10050000026001E01B4B0360194A1B4C51681B4DF4
:10051000C1F30311615CCB4043605168C1F3022118
:10052000615C23FA01F181605168C1F3C221615C11
:10053000CB40C3605268C2F38132AA5C30BCB3FBCB
:10054000F2F30361704753685168C3F38343C903EF
:1005500003F1020307D55268920304D4054A02FB53
:1005600003F30360D0E7064A02FB03F30360CBE723
:100570000010024000127A00040000200000002059
:1005800000093D0029B9054A536923EA000050617A
:100590007047024B5A69104358617047001002407F
:1005A00029B9054A936923EA000090617047024B1C
:1005B0009A691043986170470010024030B50446B4
:1005C0000D46038ACA889BB223F440531343038227
:1005D00082890B89888892B24989034322F4B052F8
:1005E0000B4322F00C0213439BB2A381A38AAA8976
:1005F0009BB223F4407387B01343A38201A8FFF793
:1006000073FF04991A48039BA289844208BF0B46D2
:1006100012F4004F2A6803EB830314BF52009200C8
:1006200003EB8303B3FBF2F3124DA189A5FB032077
:100630006422400900FB12330A044FEA00100AD476
:100640001A013232A5FB0223C3F3431303439BB2C7
:10065000238107B030BDD9003231A5FB0131C1F390
:10066000421242EA00039BB2238107B030BD00BFB3
:10067000003801401F85EB5100234FF416510C2226
:10068000016042818380C38003818381704700BF02
:10069000838929B923F400531B041B0C8381704701
:1006A0009BB243F400538381704700BF838A9BB29F
:1006B0001AB923EA01018182704719438182704788
:1006C00030B5102383B0184602220B4C01218DF85F
:1006D00007308DF806204FF40055FFF761FF02A99F
:1006E00021F8045D2046FFF795FE29462046FFF7D6
:1006F000F7FE03B030BD00BF0010014070B5194EC9
:1007000086B0012144F20500FFF74AFF0325304679
:1007100001A94FF400721823ADF804208DF80730BA
:10072000114C8DF80650FFF775FE4FF4806201A959
:1007300004233046ADF804208DF807308DF80650BC
:10074000FFF768FE02A8FFF797FF4FF4165302A9C0
:1007500020460293FFF732FF20460121FFF798FF62
:1007600006B070BD0008014000380140F0B55A4D98
:1007700097B001ACFFF7A4FFFFF7C0FF0FCD0FC488
:100780000FCD0FC495E8030084E80300012108465B
:10079000FFF7F8FE0BAD5148FFF746FD504F2846D6
:1007A000FFF7F6FD10220A200023294680260B972A
:1007B0000D920E904FF40062484801AC4FF4007760
:1007C0000F9313931493159312920C941096119700
:1007D000FFF7BEFD314601224248FFF767FF3F4861
:1007E0000121FFF7E3FD4FF40050FFF711FE4FF436
:1007F0000050FFF701FE0028F9D02246392342F8C5
:10080000043B013B2F2BFAD100213448FFF7CEFDEA
:100810000A213248FFF7E0FD30480121FFF7C6FD0D
:100820004FF40050FFF7F4FD4FF40050FFF7E4FDE4
:100830000028F9D000212948FFF7B8FD2748FFF725
:10084000F3FC0023294628480D93FFF781FD012280
:1008500040212448FFF72AFF23480121FFF7A6FD86
:100860004FF40030FFF7D4FD4FF40030FFF7C4FD24
:100870000028F9D023461A68203A43F8042B9D42F9
:10088000F9D100211848FFF791FD1748FFF7CCFC7C
:100890001023294611480D93FFF75AFD01228021AC
:1008A0001048FFF703FF022101220C48FFF78AFDE1
:1008B000012400230E2268468DF800208DF80130B7
:1008C0008DF802308DF80340FFF778FC214603488D
:1008D000FFF76CFDFEE700BF700B0008440002400C
:1008E00004380140003801405800024008B54FF478
:1008F0000050FFF773FD00B908BD4FF40050FFF73B
:100900007DFDBDE808404FF400510148FFF7EABD06
:10091000001001400649074A074B9A42BEBF51F8F2
:10092000040B42F8040BF8E70448804704480047EA
:10093000AC0B0008000000207C000020CD0900085E
:10094000490100081F49204A002301E041F8043B07
:100950009142FBD3FFF70AFFFEE7FEE7FEE7FEE763
:10096000FEE7FEE7FEE7FEE7FEE7FEE7FEE7FEE75F
:10097000FEE7FEE7FEE7FEE7FEE7FEE7FEE7FEE74F
:10098000FEE7FEE7FEE7FEE7FEE7FEE7FEE7FEE73F
:10099000FEE7FEE7FEE7FEE7FEE7FEE7FEE7FEE72F
:1009A000FEE7FEE7FEE7FEE7FEE7FEE7FEE7FEE71F
:1009B000FEE7FEE7FEE7FEE7FEE7FEE7FEE7FEE70F
:1009C000FEE7FEE77C0000209800002030B43C4B9E
:1009D0003C49186882B040F0010018605D68002052
:1009E0002940596019684FF41F0421F0847121F4E3
:1009F0008031196019681A4621F4802119605968FC
:100A000021F4FE0159609C6000900190196841F446
:100A10008031196003E0009BB3F5A06F09D0136823
:100A200003F400330193009B01330093019B002BDF
:100A3000F1D0234B1B6813F4003318BF012301933B
:100A4000019B012B06D0204B4FF000629A6002B050
:100A500030BC70471D4A1A4B1068194640F0100010
:100A60001060106820F003001060106840F0020071
:100A700010605A685A605A685A605A6842F4806234
:100A80005A605A6822F47C125A605A6842F4E8129A
:100A90005A601A6842F080721A600B68084A9B011B
:100AA000FBD51146536823F003035360536843F0AA
:100AB000020353604B6803F00C03082BFAD1C2E722
:100AC000001002400000FFF800ED00E000200240AE
:100AD00008B5074B044613B10021AFF30080054B66
:100AE0001868836A03B19847204600F033F800BFC6
:100AF000000000009C0B00080E4B70B51E460E4C0B
:100B00000025E41AA410A54204D056F825309847D1
:100B10000135F8E700F020F8084B094C1E46E41AAE
:100B2000A4100025A54204D056F825309847013579
:100B3000F8E770BD740000207400002074000020ED
:100B40007800002003460244934202D003F8011BC0
:100B5000FAE77047FEE70000F8B500BFF8BC08BC34
:100B60009E467047F8B500BFF8BC08BC9E4670476B
:100B700030000000310000003200000033000000AF
:100B8000340000003500000036000000370000008F
:100B9000380000003900000043000000140000206D
:040BA0000000000051
:080BA400A4F5FF7F0100000031
:100BAC000204060800000000010203040102030411
:100BBC00060708090000000000000000000000000B
:100BCC000000000000000000000000000000000019
:100BDC0000000000980B000800000000000000005E
:100BEC0000000000000000000000000000000000F9
:100BFC0000000000000000000000000000000000E9
:100C0C0000000000000000000000000000000000D8
:0C0C1C000000000011010008ED000008BD
:0400000508000000EF
:00000001FF
