:020000040800F2
:10000000005000201D060008630600086506000871
:1000100067060008690600086B060008000000007B
:100020000000000000000000000000006D06000855
:100030006F06000800000000710600087306000843
:1000400077060008790600087B0600087D06000890
:100050007F06000881060008830600088506000860
:1000600087060008890600088B0600088D06000830
:100070008F06000891060008930600089506000800
:1000800097060008990600089B0600089D060008D0
:100090009F060008A1060008A3060008A5060008A0
:1000A000A7060008CD050008AB060008AD0600084D
:1000B000AF060008B1060008B3060008B506000840
:1000C000B7060008B9060008BB060008BD06000810
:1000D000BF060008C1060008C3060008C5060008E0
:1000E000C7060008C9060008CB06000810B5054C75
:1000F000237833B9044B13B10448AFF300800123D4
:10010000237010BD68000020000000008008000877
:10011000084B10B51BB108490848AFF300800848E8
:10012000036803B910BD074B002BFBD0BDE810409E
:10013000184700BF000000006C0000208008000885
:100140006800002000000000154B002B08BF134B77
:100150009D46A3F5803A00218B460F461348144A6A
:10016000121A00F073FB0F4B002B00D098470E4B78
:10017000002B00D098470020002104000D000D48FE
:10018000002802D00C48AFF3008000F039FB2000BB
:10019000290000F013FA00F01FFB00BF0000080068
:1001A0000050002000000000000000006800002057
:1001B000840000200000000000000000C3785BB94C
:1001C000037801215A09164803F01F03203201FA6F
:1001D00003F340F82230704730B4124B8278D9686C
:1001E0004478C9430F23C1F30221C1F10405CB4078
:1001F000AC401340027823431B0102F16042DBB2A2
:1002000002F5614282F800330378012203F01F00F7
:1002100003495B09824041F8232030BC704700BF8E
:1002200000E100E000ED00E0CB782DE9F04103F0C3
:100230000F06DB0648BF8B780C8848BF1E4314F0BE
:10024000FF0F26D00568002301274FF00F0803E0B9
:100250000133082B1BD00C8807FA03F232EA04049E
:10026000F6D19C0091F803E008FA04FC25EA0C059D
:1002700006FA04F4BEF1280F45EA040538D0BEF1B1
:10028000480F03F1010308BF0261082BE3D10560A9
:100290000C88FF2C2AD94568002301274FF00F0C4A
:1002A00003E00133082B20D00C8803F1080207FA81
:1002B00002F232EA0404F4D191F803E09C00BEF1AA
:1002C000280F04BF426191F803E00CFA04F8BEF174
:1002D000480F03F1010325EA080506FA04F408BFF4
:1002E0000261082B45EA0405DED14560BDE8F081D6
:1002F0004261ADE7C368194214BF01200020704776
:100300000161704741617047034A536823F47C13CD
:10031000194308435060704700100240014B1860B9
:10032000704700BF60004242034A536823F0030352
:1003300018435060704700BF00100240034A5368E2
:1003400023F0F00318435060704700BF00100240D4
:10035000034A536823F4605343EAC0005060704777
:100360000010024029B9054A936923EA0000906110
:100370007047024B9A691043986170470010024021
:100380004309012B0BD0022B094B00F01F000CBFBF
:100390001B6A5B6A23FA00F000F001007047044B0F
:1003A00000F01F001B6823FA00F000F00100704706
:1003B00000100240254A038890429BB212D002F5F9
:1003C000006290420ED0B0F1804F0BD0A2F598326F
:1003D000904207D002F58062904203D002F580621D
:1003E000904203D14A8823F070031343184A904285
:1003F00024D002F58062904220D0CA8823F4407352
:100400009BB2134303808A88104B82850A889842E6
:1004100002850ED00F4B98420BD003F540639842F3
:1004200007D003F58063984203D003F580639842B8
:1004300001D10B7A038601238382704703808B8866
:1004400083850B880385012383827047002C01403C
:1004500000100040003401404FF6FF7200238280FC
:100460000380C38043800372704700BF038829B9AB
:1004700023F001031B041B0C038070479BB243F065
:1004800001030380704700BF83899BB21AB923EA36
:10049000010181817047194381817047FFF7F4BFE3
:1004A000038923F007031B041B0C0381704700BF63
:1004B000038A828911EA030092B203D0114214BF69
:1004C00001200020704700BFC94389B201827047F4
:1004D00008B50020FFF728FF0020FFF71FFF4FF4AB
:1004E00040304FF44011FFF70FFF0120FFF716FFD8
:1004F0003920FFF745FF0028FAD00220FFF714FF4C
:100500000020FFF71BFFBDE808400020FFF720BFD9
:1005100030B5102383B0184602220B4C01218DF810
:1005200007308DF806204FF40055FFF71BFF02A996
:1005300021F8045D2046FFF777FE29462046FFF7A5
:10054000DFFE03B030BD00BF0010014030B51A4CD3
:1005500085B001214FF40060FFF704FF2046FFF74C
:100560009FFF01A8FFF778FF4DF6C0224FF47A7382
:10057000002501A92046ADF80830ADF80420ADF8FB
:100580000650FFF717FF20460121FFF76FFF0122FA
:1005900011462046FFF782FF1922012368468DF895
:1005A00001508DF802508DF800208DF80330FFF7D0
:1005B00005FE05B030BD00BF002C014008B5FFF7B7
:1005C00087FFFFF7A5FFFFF7C1FFFEE708B5012191
:1005D0001048FFF76DFF00B908BD4FF400510E48F9
:1005E000FFF788FE4FF4005140B10B48FFF78AFE39
:1005F000BDE8084001210748FFF766BF00F18040D1
:1006000000F58830FFF77CFEBDE808400121014875
:10061000FFF75ABF002C0140001001400649074A6D
:10062000074B9A42BEBF51F8040B42F8040BF8E79F
:1006300004488047044800478C0800080000002058
:1006400068000020D5060008490100081F49204A1B
:10065000002301E041F8043B9142FBD3FFF7AEFFDA
:10066000FEE7FEE7FEE7FEE7FEE7FEE7FEE7FEE762
:10067000FEE7FEE7FEE7FEE7FEE7FEE7FEE7FEE752
:10068000FEE7FEE7FEE7FEE7FEE7FEE7FEE7FEE742
:10069000FEE7FEE7FEE7FEE7FEE7FEE7FEE7FEE732
:1006A000FEE7FEE7FEE7FEE7FEE7FEE7FEE7FEE722
:1006B000FEE7FEE7FEE7FEE7FEE7FEE7FEE7FEE712
:1006C000FEE7FEE7FEE7FEE7FEE7FEE76800002044
:1006D0008400002030B43C4B3C49186882B040F0A4
:1006E000010018605D6800202940596019684FF4C6
:1006F0001F0421F0847121F48031196019681A46B1
:1007000021F480211960596821F4FE0159609C6030
:1007100000900190196841F48031196003E0009B5A
:10072000B3F5A06F09D0136803F400330193009B65
:1007300001330093019B002BF1D0234B1B6813F472
:10074000003318BF01230193019B012B06D0204BDE
:100750004FF000629A6002B030BC70471D4A1A4BDD
:100760001068194640F010001060106820F0030077
:100770001060106840F0020010605A685A605A68B1
:100780005A605A6842F480625A605A6822F47C12B5
:100790005A605A6842F4E8125A601A6842F080724D
:1007A0001A600B68084A9B01FBD51146536823F079
:1007B00003035360536843F0020353604B6803F034
:1007C0000C03082BFAD1C2E7001002400000FFF82A
:1007D00000ED00E00020024008B5074B044613B1CD
:1007E0000021AFF30080054B1868836A03B1984776
:1007F000204600F033F800BF000000007C0800082D
:100800000E4B70B51E460E4C0025E41AA410A542EE
:1008100004D056F8253098470135F8E700F020F865
:10082000084B094C1E46E41AA4100025A54204D02A
:1008300056F8253098470135F8E770BD6000002074
:100840006000002060000020640000200346024495
:10085000934202D003F8011BFAE77047FEE700005D
:10086000F8B500BFF8BC08BC9E467047F8B500BF9D
:10087000F8BC08BC9E467047430000000000002002
:040880000000000074
:08088400C4F8FF7F0100000031
:10088C00000000000000000000000000000000005C
:10089C00000000000000000000000000000000004C
:1008AC0078080008000000000000000000000000B4
:1008BC00000000000000000000000000000000002C
:1008CC00000000000000000000000000000000001C
:1008DC00000000000000000000000000000000000C
:0808EC0011010008ED000008F5
:0400000508000000EF
:00000001FF
