:020000040800F2
:1000000000500020210E0008670E0008690E00084D
:100010006B0E00086D0E00086F0E00080000000057
:10002000000000000000000000000000710E000849
:10003000730E000800000000750E0008770E00081F
:100040007B0E00087D0E00087F0E0008810E000860
:10005000830E0008850E0008870E0008890E000830
:100060008B0E00088D0E00088F0E0008910E000800
:10007000930E0008950E0008970E0008990E0008D0
:100080009B0E00089D0E00089F0E0008A10E0008A0
:10009000A30E0008A50E0008A70E0008A90E000870
:1000A000AB0E0008AD0E0008AF0E0008B10E000840
:1000B000B30E0008B50E0008B70E0008B90E000810
:1000C000BB0E0008BD0E0008BF0E0008C10E0008E0
:1000D000C30E0008C50E0008C70E0008C90E0008B0
:1000E000CB0E0008CD0E0008CF0E000810B5054C51
:1000F000237833B9044B13B10448AFF300800123D4
:10010000237010BD7C00002000000000701100086A
:10011000084B10B51BB108490848AFF300800848E8
:10012000036803B910BD074B002BFBD0BDE810409E
:10013000184700BF00000000800000207011000878
:100140007C00002000000000154B002B08BF134B63
:100150009D46A3F5803A00218B460F461348144A6A
:10016000121A00F075FF0F4B002B00D098470E4B72
:10017000002B00D098470020002104000D000D48FE
:10018000002802D00C48AFF3008000F03BFF2000B5
:10019000290000F097FD00F021FF00BF00000800DB
:1001A0000050002000000000000000007C00002043
:1001B000B00000200000000000000000CB782DE916
:1001C000F04103F00F06DB0648BF8B780C8848BF70
:1001D0001E4314F0FF0F26D00568002301274FF0BF
:1001E0000F0803E00133082B1BD00C8807FA03F239
:1001F00032EA0404F6D19C0091F803E008FA04FC0A
:1002000025EA0C0506FA04F4BEF1280F45EA0405B8
:1002100038D0BEF1480F03F1010308BF0261082B7B
:10022000E3D105600C88FF2C2AD9456800230127FB
:100230004FF00F0C03E00133082B20D00C8803F1A2
:10024000080207FA02F232EA0404F4D191F803E05A
:100250009C00BEF1280F04BF426191F803E00CFA44
:1002600004F8BEF1480F03F1010325EA080506FA78
:1002700004F408BF0261082B45EA0405DED145609D
:10028000BDE8F0814261ADE7F0B504460D4687B0A8
:10029000868801A800F0DEF8314F039B26F03F0668
:1002A000A7FB03273604BF0C360CB8B20643A68062
:1002B00021882C4E21F001010904090C21802A68B3
:1002C000B24223D85200B3FBF2F39BB2032B00F1EE
:1002D000010098BF04232084A38323889BB243F0AA
:1002E000010323802388A98823F481636A8923F08A
:1002F00002031B040A431B0C13439BB22380AA89ED
:100300002B8913439BB2238107B0F0BD4BF6FF71DD
:10031000E88888421DD002EB820202EB8202B3FB26
:10032000F2F39BB243F48043C3F30B020AB943F0E8
:1003300001034FF4967202FB07F70B4AF91782FB91
:100340000702C1EBA212013292B243F400432284AD
:10035000C2E702EB4200B3FBF0F39BB2E4E700BF5D
:1003600083DE1B43A0860100D34D6210038829B9A8
:1003700023F001031B041B0C038070479BB243F066
:1003800001030380704700BF038829B923F48073F9
:100390001B041B0C038070479BB243F480730380E3
:1003A000704700BF038829B923F400731B041B0C9A
:1003B000038070479BB243F400730380704700BF13
:1003C000038829B923F480631B041B0C0380704746
:1003D0009BB243F480630380704700BF0182704783
:1003E000008AC0B2704700BF22B901F0FE0189B295
:1003F0000182704741F0010189B20182704700BF5C
:10040000838A008B9BB243EA004321F07F4203EAD8
:100410000200401AB0FA80F04009704782B0002311
:100420000A0F0093019301900092009B21F07F41FD
:1004300053B1019B14330193019B1B68194214BFF4
:100440000120002002B07047019B090C1833019372
:10045000F2E700BF30B4214A536803F00C03042BC9
:1004600006D0082B25D01BB11D4A1346026001E0BF
:100470001B4B0360194A1B4C51681B4DC1F3031100
:10048000615CCB4043605168C1F30221615C23FA97
:1004900001F181605168C1F3C221615CCB40C3604E
:1004A0005268C2F38132AA5C30BCB3FBF2F3036141
:1004B000704753685168C3F38343C90303F10203D0
:1004C00007D55268920304D4054A02FB03F3036084
:1004D000D0E7064A02FB03F30360CBE700100240BB
:1004E00000127A00040000200000002000093D00F6
:1004F00029B9054A936923EA000090617047024BCD
:100500009A691043986170470010024029B9054A62
:10051000D36923EA0000D0617047024BDA691043C7
:10052000D86170470010024030B504460D46038A7A
:10053000CA889BB223F440531343038282890B89F8
:10054000888892B24989034322F4B0520B4322F0C7
:100550000C0213439BB2A381A38AAA899BB223F402
:10056000407387B01343A38201A8FFF773FF049978
:100570001A48039BA289844208BF0B4612F4004F1D
:100580002A6803EB830314BF5200920003EB83033A
:10059000B3FBF2F3124DA189A5FB032064224009AD
:1005A00000FB12330A044FEA00100AD41A01323257
:1005B000A5FB0223C3F3431303439BB2238107B07C
:1005C00030BDD9003231A5FB0131C1F3421242EAFC
:1005D00000039BB2238107B030BD00BF003801404B
:1005E0001F85EB5100234FF416510C22016042810C
:1005F0008380C38003818381704700BF838929B9C9
:1006000023F400531B041B0C838170479BB243F4FB
:1006100000538381704700BFC1F308018180704798
:100620000388194214BF01200020704708B5034910
:100630000348FFF7E5FE0028F9D008BD02000300DB
:100640000058004008B54FF400310848FFF7E6FEB7
:100650000028F8D101210548FFF796FE0449034818
:10066000FFF7CEFE0028F9D008BD00BF00580040BB
:100670000100030008B501210448FFF793FE044977
:100680000248FFF7CBFE0028F9D108BD0058004012
:100690001000001010B50C46014622460848FFF72E
:1006A000A3FE14B1012C07D010BD06490448FFF782
:1006B000A7FE0028F9D010BDBDE81040FFF7B6BF77
:1006C0000058004082000700014608B50448FFF7C3
:1006D00085FE04490248FFF793FE0028F9D008BDC3
:1006E0000058004080000700F8B507460E461D463A
:1006F0001446FFF7A7FF38460021FFF7CBFF30462F
:10070000FFF7E2FF4DB1013DEDB22544013C14F885
:10071000010FFFF7D9FFAC42F9D1BDE8F840FFF770
:10072000A9BF00BFF0B50D4E00F0070435780C4BA3
:1007300064F38405AA0083B0187802F00C02012348
:1007400042EA04141946002701AA35708DF80440C6
:100750008DF80570FFF7C8FF03B0F0BDAC000020B6
:10076000A0000020F0B50B4E0B4B357883B06FF333
:1007700041051878AC00012304F0740419460027E1
:1007800001AA35708DF804408DF80570FFF7ACFFB5
:1007900003B0F0BDAC000020A000002008B501218E
:1007A0000648FFF70DFE06490448FFF729FE00281A
:1007B000F9D00248BDE80840FFF712BE00580040DB
:1007C0004000030008B500210648FFF7F9FD06497F
:1007D0000448FFF715FE0028F9D00248BDE808409C
:1007E000FFF7FEBD0058004040000300F8B5044686
:1007F0000E461D461746FFF725FF00212046FFF74E
:1008000049FF3046FFF760FFFFF734FFFFF71AFF9D
:10081000214601220C48FFF7E7FDFFF707FF6B1E9B
:1008200013F0FF0609D0023DEDB23D447C1EFFF7F8
:10083000B5FF04F8010FAC42F9D1FFF7C3FFB8557B
:10084000BDE8F840FFF716BF0058004000B50F4A5A
:1008500083B0107801230DF107020021FFF7C6FFD6
:100860000B4A9DF807301078D90863F3000061F354
:100870004100190961F38200DB0963F3C3001070C2
:10088000C0F3400003B05DF804FB00BFA0000020EF
:10089000A800002070B5104A82B0107808236A467C
:1008A0000221FFF7A3FF0D489DF8006000789DF836
:1008B000012010F001009DF802509DF80330084C13
:1008C000084918BF9DF8050042EA062243EA0523BD
:1008D00022800B8002B070BDA0000020A800002084
:1008E000A60000209800002000B50F4A83B01078C1
:1008F00001230DF107020021FFF778FF0B4A9DF855
:1009000007001378C10860F3000361F34103010994
:1009100061F38203C10961F3C30300F001001370A6
:1009200003B05DF804FB00BFA0000020A800002079
:1009300030B5204B4400186883B0E4B21E4D0190DE
:1009400001AA20460423FF212C70FFF7CDFE1B4C8B
:1009500000BF013CFCD101232021287801AAFFF728
:1009600045FF9DF804301449812B02D0204603B086
:1009700030BD0878234601AAF4218DF804408DF893
:100980000540FFF7B1FE0D4C00BF013CFCD1FFF765
:10099000ABFF0028EAD10A4B1B7803F0080303F0F1
:1009A000FF00002BE3D0FFF7DDFE0120FFF7BAFECA
:1009B0000120DCE77C100008A0000020C0C62D004C
:1009C000A8000020F0B54BF6FF7787B001214FF467
:1009D0008000FFF79BFD01210920FFF789FD01261B
:1009E0004FF440621C2301A91348ADF804208DF890
:1009F00006608DF80730114DFFF7E0FB104B06AC99
:100A000044F8103D4FF480420023314628464FF40D
:100A10008066ADF80C30ADF81030ADF81420ADF8AC
:100A20000E70ADF81260FFF7A1FC21462846FFF7D3
:100A30002BFC07B0F0BD00BF000C01400058004087
:100A4000A086010070B506460D461446FFF7FAFD74
:100A500000213046FFF71EFE2846FFF735FE200A2C
:100A6000FFF732FEE0B2FFF72FFEBDE87040FFF760
:100A700001BE00BF38B504460D46FFF7E3FD002177
:100A80002046FFF707FE2846FFF71EFEFFF7F2FDA0
:100A9000FFF7D8FD214601220848FFF7A5FCFFF724
:100AA000C5FDFFF77BFE000284B2FFF78BFE2044FA
:100AB00084B2FFF7DFFD204638BD00BF005800407C
:100AC00010B51E4B1A88032832D8DFE800F02C2717
:100AD000220242F4E34242F00302194C42F4004283
:100AE00020780121FFF7AEFF47F23053154A127804
:100AF00003FB02F222B1002300BF01339342FBD17A
:100B000020780021FFF7B6FF0F4B1B78184180B209
:100B100010BD42F4C34242F00302DEE742F4A342B6
:100B200042F00302D9E742F4834242F00302D4E7E1
:100B300042F4C17242F00102CFE700BFAE000020D4
:100B4000A2000020A1000020A300002070B586B004
:100B500002A8184EFFF746FD4FF41653012144F248
:100B6000050002930325FFF7C3FC134C304601A98F
:100B70004FF400721823ADF804208DF807308DF87B
:100B80000650FFF71BFB4FF48062042301A9304697
:100B9000ADF804208DF807308DF80650FFF70EFBF6
:100BA00020460121FFF72AFD02A92046FFF7BCFCE1
:100BB00006B070BD000801400038014070B5044621
:100BC0002C4E86B030687168B268F36801AD0FC50D
:100BD00030692860002C3BD00025274E00E01D46E0
:100BE000A6FB0432D20802EB8201A4EB410106A865
:100BF00030316B1C00EB450020F8141C1446DBB2AE
:100C0000002AECD173B303F10042023A03F100432E
:100C1000551B013B01AA02EB450502EB4304802171
:100C20001648FFF7FDFC0028F9D034F802191348E4
:100C3000FFF7F2FCAC42F2D180211048FFF7F0FC44
:100C400080B10E480A2106B0BDE87040FFF7E4BC51
:100C500080210A48FFF7E4FC0028F9D0302107483A
:100C6000FFF7DAFC80210548FFF7DAFC0028F9D00D
:100C7000E7E700BF80100008CDCCCCCC00380140A5
:100C800038B504460D4680210D48FFF7C9FC002801
:100C9000F9D00D210A48FFF7BFFC85B1013DEDB247
:100CA0002544013C80210648FFF7BAFC0028F9D012
:100CB00014F8011F0248FFF7AFFCAC42F2D138BD77
:100CC000003801402DE9F843FFF740FFFFF77AFEB7
:100CD0004048414A414C424E092700232B210770CE
:100CE00090254048337023801570FFF7C9FF3E21DF
:100CF0003D48FFF7C5FF4FF400733C480C212380AB
:100D0000FFF7BEFF5A20FFF713FE00285CD0FFF765
:100D10009DFD0028FBD0DFF80091DFF80081002066
:100D2000FFF7CEFE07460120FFF7CAFE0646022067
:100D3000FFF7C6FE05460320FFF7C2FE0446062164
:100D40002B48FFF79DFF38B2FFF738FF06212948EF
:100D5000FFF796FF30B2FFF731FF06212648FFF775
:100D60008FFF28B2FFF72AFF06212448FFF788FFEC
:100D700020B2FFF723FF02212148FFF781FFFFF791
:100D800065FD20B91F4B00BF013BFCD1C7E7FFF752
:100D90005DFD80B905211C48FFF772FFB9F800001E
:100DA000FFF70CFF0B211948FFF76AFFB8F80000A6
:100DB000FFF704FFE6E7FFF76DFD0028EAD0082102
:100DC0001348FFF75DFFFEE70E211248FFF758FFBB
:100DD000FEE700BFA1000020A2000020AE0000201E
:100DE000A300002094100008C010000800110008A3
:100DF00020110008281100083011000838110008DF
:100E000040110008C0E1E40048110008501100083A
:100E10005C11000810110008A600002098000020B6
:100E20000649074A074B9A42BEBF51F8040B42F8E5
:100E3000040BF8E704488047044800477C11000889
:100E4000000000207C000020D90E000849010008A5
:100E50001F49204A002301E041F8043B9142FBD3A3
:100E6000FFF730FFFEE7FEE7FEE7FEE7FEE7FEE7FF
:100E7000FEE7FEE7FEE7FEE7FEE7FEE7FEE7FEE74A
:100E8000FEE7FEE7FEE7FEE7FEE7FEE7FEE7FEE73A
:100E9000FEE7FEE7FEE7FEE7FEE7FEE7FEE7FEE72A
:100EA000FEE7FEE7FEE7FEE7FEE7FEE7FEE7FEE71A
:100EB000FEE7FEE7FEE7FEE7FEE7FEE7FEE7FEE70A
:100EC000FEE7FEE7FEE7FEE7FEE7FEE7FEE7FEE7FA
:100ED0007C000020B000002030B43C4B3C49186836
:100EE00082B040F0010018605D6800202940596020
:100EF00019684FF41F0421F0847121F480311960C6
:100F000019681A4621F480211960596821F4FE01FC
:100F100059609C6000900190196841F4803119601B
:100F200003E0009BB3F5A06F09D0136803F400330E
:100F30000193009B01330093019B002BF1D0234BC5
:100F40001B6813F4003318BF01230193019B012B8D
:100F500006D0204B4FF000629A6002B030BC704760
:100F60001D4A1A4B1068194640F0100010601068B6
:100F700020F003001060106840F0020010605A6812
:100F80005A605A685A605A6842F480625A605A68D5
:100F900022F47C125A605A6842F4E8125A601A68C5
:100FA00042F080721A600B68084A9B01FBD511461B
:100FB000536823F003035360536843F00203536004
:100FC0004B6803F00C03082BFAD1C2E70010024073
:100FD0000000FFF800ED00E00020024008B5074BDC
:100FE000044613B10021AFF30080054B1868836AF3
:100FF00003B19847204600F033F800BF000000001E
:101000006C1100080E4B70B51E460E4C0025E41AFC
:10101000A410A54204D056F8253098470135F8E7CA
:1010200000F020F8084B094C1E46E41AA4100025D5
:10103000A54204D056F8253098470135F8E770BD31
:10104000740000207400002074000020780000204C
:1010500003460244934202D003F8011BFAE77047AB
:10106000FEE70000F8B500BFF8BC08BC9E4670471C
:10107000F8B500BFF8BC08BC9E46704711E5728AFF
:1010800030003000300030003000300030003000E0
:101090003000300047657474696E672073696E674D
:1010A0006C652D656E6465642072656164696E6748
:1010B000732066726F6D2041494E302E2E330A0028
:1010C0004144432052616E67653A202B2F2D203416
:1010D0002E3039365620283120626974203D203266
:1010E0006D562F414453313031352C20302E313262
:1010F000356D562F41445331313135290A000000F6
:1011000043435338313120746573740A0000000082
:1011100046616C6C6120656E20746573740A000012
:1011200041494E303A20000041494E313A200000FA
:1011300041494E323A20000041494E333A200000E6
:10114000200A3A2000000000434F323A20000000FD
:1011500070706D2C2054564F433A20004552524F28
:101160005221200A0000000043000000140000206B
:04117000000000007B
:08117400D4EFFF7F0100000031
:10117C00020406080000000001020304010203043B
:10118C000607080900000000000000000000000035
:10119C000000000000000000000000000000000043
:1011AC0000000000681100080000000000000000B2
:1011BC000000000000000000000000000000000023
:1011CC000000000000000000000000000000000013
:1011DC000000000000000000000000000000000003
:0C11EC000000000011010008ED000008E8
:0400000508000000EF
:00000001FF
