:020000040800F2
:1000000000500020291100086F110008711100082C
:100010007311000875110008771100080000000036
:10002000000000000000000000000000791100083E
:100030007B110008000000007D1100087F110008FE
:100040008311000885110008871100088911000834
:100050008B1100088D1100088F1100089111000804
:1000600093110008951100089711000899110008D4
:100070009B1100089D1100089F110008A1110008A4
:10008000A3110008A5110008A7110008A911000874
:10009000AB110008AD110008AF110008B111000844
:1000A000B3110008B5110008B7110008B911000814
:1000B000BB110008BD110008BF110008C1110008E4
:1000C000C3110008C5110008C7110008C9110008B4
:1000D000CB110008CD110008CF110008D111000884
:1000E000D3110008D5110008D711000810B5054C30
:1000F000237833B9044B13B10448AFF300800123D4
:10010000237010BD7C0000200000000004140008D3
:10011000084B10B51BB108490848AFF300800848E8
:10012000036803B910BD074B002BFBD0BDE810409E
:10013000184700BF000000008000002004140008E1
:100140007C00002000000000154B002B08BF134B63
:100150009D46A3F5803A00218B460F461348144A6A
:10016000121A01F0F9F80F4B002B00D098470E4BF4
:10017000002B00D098470020002104000D000D48FE
:10018000002802D00C48AFF3008001F0BFF8200037
:10019000290000F081FF01F0A5F800BF0000080071
:1001A0000050002000000000000000007C00002043
:1001B000990000200000000000000000CB782DE92D
:1001C000F04103F00F06DB0648BF8B780C8848BF70
:1001D0001E4314F0FF0F26D00568002301274FF0BF
:1001E0000F0803E00133082B1BD00C8807FA03F239
:1001F00032EA0404F6D19C0091F803E008FA04FC0A
:1002000025EA0C0506FA04F4BEF1280F45EA0405B8
:1002100038D0BEF1480F03F1010308BF0261082B7B
:10022000E3D105600C88FF2C2AD9456800230127FB
:100230004FF00F0C03E00133082B20D00C8803F1A2
:10024000080207FA02F232EA0404F4D191F803E05A
:100250009C00BEF1280F04BF426191F803E00CFA44
:1002600004F8BEF1480F03F1010325EA080506FA78
:1002700004F408BF0261082B45EA0405DED145609D
:10028000BDE8F0814261ADE74FF6FF710222042321
:1002900001808270C37070478368194214BF0120C7
:1002A000002070474161704708B50D4B012198420D
:1002B0000AD04FF4800000F0B7F9BDE808400021F3
:1002C0004FF4800000F0B0B94FF4001000F0ACF92A
:1002D000BDE8084000214FF4001000F0A5B900BFB0
:1002E00000540040F0B504460D4687B0868801A84A
:1002F00000F030F9314F039B26F03F06A7FB0327A0
:100300003604BF0C360CB8B20643A68021882C4EAA
:1003100021F001010904090C21802A68B24223D886
:100320005200B3FBF2F39BB2032B00F1010098BF24
:1003300004232084A38323889BB243F001032380FA
:100340002388A98823F481636A8923F002031B04AC
:100350000A431B0C13439BB22380AA892B891343A6
:100360009BB2238107B0F0BD4BF6FF71E88888424D
:100370001DD002EB820202EB8202B3FBF2F39BB2CE
:1003800043F48043C3F30B020AB943F001034FF473
:10039000967202FB07F70B4AF91782FB0702C1EBC3
:1003A000A212013292B243F400432284C2E702EB6C
:1003B0004200B3FBF0F39BB2E4E700BF83DE1B43D4
:1003C000A0860100D34D6210038829B923F00103F0
:1003D0001B041B0C038070479BB243F00103038096
:1003E000704700BF038829B923F480731B041B0CDA
:1003F000038070479BB243F480730380704700BF53
:10040000038829B923F400731B041B0C0380704775
:100410009BB243F400730380704700BF038829B97F
:1004200023F480631B041B0C038070479BB243F4CE
:1004300080630380704700BF01827047008AC0B2AA
:10044000704700BF22B901F0FE0189B201827047F6
:1004500041F0010189B20182704700BF838A008B9D
:100460009BB243EA004321F07F4203EA0200401AB4
:10047000B0FA80F04009704782B000230A0F009361
:10048000019301900092009B21F07F4153B1019BA9
:1004900014330193019B1B68194214BF01200020F3
:1004A00002B07047019B090C18330193F2E700BFBB
:1004B000014B1860704700BF20000E42034A53688A
:1004C00023F47C1319430843506070470010024026
:1004D000014B1860704700BF60004242034A5368F6
:1004E00023F0030318435060704700BF0010024020
:1004F000034A536823F0F00318435060704700BF6D
:1005000000100240034A536823F4605343EAC000DA
:100510005060704700100240064B002201281A70FC
:100520001A7005D0042802D105221A70704770474E
:100530001870704720100240024A136A1843106274
:10054000704700BF00100240014B1860704700BFA9
:100550003C04424230B4214A536803F00C03042B9C
:1005600006D0082B25D01BB11D4A1346026001E0BE
:100570001B4B0360194A1B4C51681B4DC1F30311FF
:10058000615CCB4043605168C1F30221615C23FA96
:1005900001F181605168C1F3C221615CCB40C3604D
:1005A0005268C2F38132AA5C30BCB3FBF2F3036140
:1005B000704753685168C3F38343C90303F10203CF
:1005C00007D55268920304D4054A02FB03F3036083
:1005D000D0E7064A02FB03F30360CBE700100240BA
:1005E00000127A00040000200000002000093D00F5
:1005F00029B9054A936923EA000090617047024BCC
:100600009A691043986170470010024029B9054A61
:10061000D36923EA0000D0617047024BDA691043C6
:10062000D86170470010024029B9054A136923EACE
:10063000000010617047024B1A691043186170473F
:10064000001002404309012B0BD0022B094B00F094
:100650001F000CBF1B6A5B6A23FA00F000F0010068
:100660007047044B00F01F001B6823FA00F000F0F5
:100670000100704700100240034A938B108B9BB21D
:1006800043EA0040704700BF00280040084A010CC0
:10069000938880B29BB243F01003938011839083C0
:1006A000938823F010031B041B0C9380704700BF3A
:1006B00000280040084AC0F30341938880B29BB2EF
:1006C00043F01003938011819081938823F01003ED
:1006D0001B041B0C938070470028004005490A4604
:1006E0008B8823F008031B041B0C8B8093881B074B
:1006F000FCD5704700280040034B9B88184214BF6C
:1007000001200020704700BF00280040254A0388D0
:1007100090429BB212D002F5006290420ED0B0F12E
:10072000804F0BD0A2F59832904207D002F580623C
:10073000904203D002F58062904203D14A8823F0B0
:1007400070031343184A904224D002F5806290420D
:1007500020D0CA8823F440739BB2134303808A8855
:10076000104B82850A88984202850ED00F4B984222
:100770000BD003F54063984207D003F5806398429D
:1007800003D003F58063984201D10B7A03860123DD
:100790008382704703808B8883850B8803850123C0
:1007A00083827047002C014000100040003401405B
:1007B0004FF6FF72002382800380C3804380037260
:1007C000704700BF038829B923F001031B041B0CE9
:1007D000038070479BB243F001030380704700BF62
:1007E000038923F007031B041B0C0381704700BF20
:1007F00030B504460D46038ACA889BB223F44053A1
:100800001343038282890B89888892B24989034302
:1008100022F4B0520B4322F00C0213439BB2A3818B
:10082000A38AAA899BB223F4407387B01343A3829F
:1008300001A8FFF78FFE04991A48039BA2898442FE
:1008400008BF0B4612F4004F2A6803EB830314BF62
:100850005200920003EB8303B3FBF2F3124DA18924
:10086000A5FB03206422400900FB12330A044FEA6F
:1008700000100AD41A013232A5FB0223C3F343133A
:1008800003439BB2238107B030BDD9003231A5FBB1
:100890000131C1F3421242EA00039BB2238107B047
:1008A00030BD00BF003801401F85EB5100234FF4DD
:1008B00016510C22016042818380C38003818381B1
:1008C000704700BF838929B923F400531B041B0C14
:1008D000838170479BB243F400538381704700BF0C
:1008E000C1F30801818070470388194214BF0120B9
:1008F0000020704708B50020FFF7F0FD0020FFF74B
:10090000E7FD4FF440304FF44011FFF7D7FD0120D1
:10091000FFF7DEFD3920FFF795FE0028FAD0022010
:10092000FFF7DCFD0020FFF7E3FDBDE808400020F5
:10093000FFF7E8BD70B5194E86B0012144F20500FD
:10094000FFF756FE0325304601A94FF40072182325
:10095000ADF804208DF80730114C8DF80650FFF7E4
:100960002DFC4FF4806201A904233046ADF8042029
:100970008DF807308DF80650FFF720FC02A8FFF72E
:1009800095FF4FF4165302A920460293FFF730FF5C
:1009900020460121FFF796FF06B070BD0008014018
:1009A000003801400346F0B5334C85B020680E4650
:1009B000616801AA03C224891480002B38D02F4813
:1009C0000024A0FB0312D20802EB82013033A3EB18
:1009D000410304A92144013401F80C3CE4B213465C
:1009E000002AEED1002E30D0ACB100252B46671E78
:1009F00001AA1744B34233D080212148FFF774FF86
:100A00000028F9D0013517F801191D48FFF768FFD4
:100A1000EBB2A342EED380211948FFF765FF00280F
:100A2000F9D01748202105B0BDE8F040FFF758BFC6
:100A300080211348FFF758FF0028F9D030211048D3
:100A4000FFF74EFF002EE6D1344680210C48FFF719
:100A50004BFF0028F9D030210948FFF741FFC3E7D9
:100A600080210748FFF740FF0028F9D02E210448D5
:100A7000FFF736FFC0E700BF84130008CDCCCCCC15
:100A80000038014091B138B54D1EEDB20544441E09
:100A900080210748FFF728FF0028F9D014F8011F2C
:100AA0000348FFF71DFFAC42F2D138BD704700BFCD
:100AB0000038014008B501214FF08050FFF7A6FD36
:100AC0000120FFF7F5FC0120FFF726FD4120FFF78D
:100AD000B9FD0028FAD04FF48070FFF72DFD0120FA
:100AE000FFF732FDFFF7FAFD2020FFF705FE002893
:100AF000FAD04FF40040FFF7DDFDBDE808400020CC
:100B0000FFF7C4BD2DE9F0410E46440082B0054612
:100B1000E4B2012149488DF801608DF80040FFF7EB
:100B20007DFC4FF400314548FFF7A6FC0028F8D1C2
:100B300001214248FFF756FC41494048FFF78EFC2F
:100B40000028F9D0002229463C48FFF77BFC3D49AC
:100B50003A48FFF783FC0028F9D031463748FFF7C1
:100B60006BFC39493548FFF779FC0028F9D00121A1
:100B70003248FFF737FC32493048FFF76FFC002856
:100B8000F9D0294601222D48FFF75CFC2F492B485C
:100B9000FFF764FC0028F9D02D492848FFF75EFCD8
:100BA0000028F9D02548FFF749FC06462849234884
:100BB000FFF754FC0028F9D02048FFF73FFC002144
:100BC00007461E48FFF72AFC21491C48FFF746FC50
:100BD0000028F9D01948FFF731FC694680462346C2
:100BE00001348DF802408DF803608DF804700DF12A
:100BF000040E0024082584EA0302640012F0800F2A
:100C000005F1FF30E4B24FEA430318BF84F0070454
:100C100010F0FF05DBB2EED1714502D011F8013FB3
:100C2000E8E706480121FFF7EBFBA04512BF284685
:100C300006EB072080B202B0BDE8F081005800400A
:100C40000100030082000700840007000200030087
:100C500040000300F8B501211E48FFF7DFFB002527
:100C6000FF27EEB24FF400311A48FFF705FC0028C9
:100C7000F8D101211748FFF7B5FB17491548FFF7D1
:100C8000EDFB0028F9D0002231461248FFF7DAFBCD
:100C90004CF2503400E0A4B110490E48FFF7DEFBDF
:100CA000013CA4B20028F6D00B210D48FFF7EAFE64
:100CB0000A212846FFF776FE01210A483746FFF74A
:100CC000E1FE013501210348FFF79AFB7F2DC8D1D2
:100CD0003846F8BD005800400100030082000700BC
:100CE000D4130008E013000830B54FF6FF750F4C21
:100CF00085B001214FF40060FFF77AFC2046FFF732
:100D00006FFD01A8FFF754FD3822002301A92046FA
:100D1000ADF80420ADF80630ADF80850FFF7F6FC4A
:100D200020460121FFF74EFD05B030BD002C0140EB
:100D3000F0B51E4C87B02046FFF7B6FA01214FF4FC
:100D40008000FFF763FC01210920FFF751FC4FF4FD
:100D5000406603221C2301A91548ADF804608DF8F4
:100D600006208DF80730FFF729FA44F620634BF68A
:100D7000FF7706AD45F8103D4FF480420023204632
:100D80004FF480660121ADF80C30ADF81030ADF8AD
:100D90001420ADF80E70ADF81260FFF715FB294670
:100DA0002046FFF79FFA07B0F0BD00BF0058004093
:100DB000000C014030B5012183B00D4C0820FFF735
:100DC00017FC01A8FFF760FA03250422012301A9FB
:100DD00020468DF807208DF80630ADF80450FFF757
:100DE000EDF929462046FFF75DFA03B030BD00BF9C
:100DF000000C014010B5044682B001A8FFF744FA88
:100E00001022012301A90548ADF804408DF8072000
:100E10008DF80630FFF7D2F902B010BD000C01408A
:100E200010B5044682B001A8FFF72EFA0422012370
:100E300001A90548ADF804408DF807208DF806306B
:100E4000FFF7BCF902B010BD000C014008B502204C
:100E5000FFF7D0FF41F2883300BF013BFCD10120F6
:100E6000FFF7DEFF41F2883300BF013BFCD10220D7
:100E7000FFF7D6FF41F2883300BF013BFCD108BD2C
:100E800038B5054608240120FFF7B4FF41F2883346
:100E900000BF013BFCD1EB074FF002003CD5FFF750
:100EA000BFFF41F2883300BF013BFCD10120FFF7B7
:100EB000B7FF41F2883300BF013BFCD1631E13F042
:100EC000FF044FEA5505DED10120FFF793FF022012
:100ED000FFF7A6FF41F2883300BF013BFCD10120A0
:100EE000FFF79EFF41F2883300BF013BFCD1022196
:100EF0000D48FFF7D1F9044688B141F2883300BFAD
:100F0000013BFCD10120FFF775FF41F2883300BFA0
:100F1000013BFCD1204638BDFFF76CFFC1E7022042
:100F2000FFF768FFE9E700BF000C014070B5044619
:100F300002200D461646FFF75DFF41F2883300BFE1
:100F4000013BFCD14020FFF79BFFFFF77FFF022012
:100F5000FFF750FF41F2883300BF013BFCD106F0A0
:100F600003004038C0B2FFF78BFF4DB1013DEDB239
:100F70002544013C14F8010FFFF782FFAC42F9D180
:100F8000FFF764FF0220FFF735FF41F2883300BF0F
:100F9000013BFCD1054B187800F00F0040F08000B9
:100FA000FFF76EFFBDE87040FFF750BF98000020CC
:100FB0002DE9F04F071E83B0B8BF7F429DF8308007
:100FC0009DF834A0BABF7FB24FF0010C4FF0000C77
:100FD00009B9002B42D001A8B8F1000F1FD0DFF8EB
:100FE000B4E000EB08054FF03F094FF0400B91FBD8
:100FF000F7F607FB161414F0FF0404F00F0422D1D7
:1010000031BB43BB05F8013CBCF1000F03D005F830
:1010100001BC4FF0000C013D8542B1B2E7D15AB19D
:10102000034602AD1C7822F07F01214303F8011B27
:1010300052009D42D2B2F5D152464146FFF776FFAB
:1010400003B0BDE8F08F1EF8041005F8011CE2E7BC
:1010500005F8019CDFE705F8019CD5E708F1FF31B1
:1010600000290ADD1A4618460132D2B202AC2344E6
:101070008A4203F8040C1346F6DB02AB19443F2303
:1010800001F8043C01A852464146FFF74FFF03B068
:10109000BDE8F08F9813000830B583B0FFF72AFC45
:1010A000FFF748FCFFF720FEFFF704FDFFF740FEC7
:1010B000FFF780FEFFF7E0FA0A2104461648FFF723
:1010C000E1FCFFF7C7FD154B0F221A700025FFF753
:1010D000D3FA8442FBD007210020FFF713FD400024
:1010E000A0F5D5440023333C0422A1B200920A208B
:1010F0001A460195FFF75CFF06210948FFF7C2FC7D
:1011000020460221FFF74EFC03210648FFF7BAFCF8
:10111000FFF7B2FA0446DAE7E4130008980000206B
:10112000F0130008F81300080649074A074B9A42D3
:10113000BEBF51F8040B42F8040BF8E7044880479F
:101140000448004710140008000000207C00002024
:10115000E1110008490100081F49204A002301E06D
:1011600041F8043B9142FBD3FFF796FFFEE7FEE711
:10117000FEE7FEE7FEE7FEE7FEE7FEE7FEE7FEE747
:10118000FEE7FEE7FEE7FEE7FEE7FEE7FEE7FEE737
:10119000FEE7FEE7FEE7FEE7FEE7FEE7FEE7FEE727
:1011A000FEE7FEE7FEE7FEE7FEE7FEE7FEE7FEE717
:1011B000FEE7FEE7FEE7FEE7FEE7FEE7FEE7FEE707
:1011C000FEE7FEE7FEE7FEE7FEE7FEE7FEE7FEE7F7
:1011D000FEE7FEE7FEE7FEE77C0000209900002026
:1011E00030B43C4B3C49186882B040F001001860B4
:1011F0005D6800202940596019684FF41F0421F0F0
:10120000847121F48031196019681A4621F4802113
:101210001960596821F4FE0159609C6000900190AA
:10122000196841F48031196003E0009BB3F5A06FA9
:1012300009D0136803F400330193009B013300933A
:10124000019B002BF1D0234B1B6813F4003318BF14
:1012500001230193019B012B06D0204B4FF000622C
:101260009A6002B030BC70471D4A1A4B106819468C
:1012700040F010001060106820F00300106010684B
:1012800040F0020010605A685A605A685A605A6802
:1012900042F480625A605A6822F47C125A605A689A
:1012A00042F4E8125A601A6842F080721A600B68C1
:1012B000084A9B01FBD51146536823F00303536092
:1012C000536843F0020353604B6803F00C03082B90
:1012D000FAD1C2E7001002400000FFF800ED00E084
:1012E0000020024008B5074B044613B10021AFF3BC
:1012F0000080054B1868836A03B19847204600F0C8
:1013000033F800BF00000000001400080E4B70B559
:101310001E460E4C0025E41AA410A54204D056F82F
:10132000253098470135F8E700F020F8084B094CC4
:101330001E46E41AA4100025A54204D056F8253014
:1013400098470135F8E770BD740000207400002054
:10135000740000207800002003460244934202D02B
:1013600003F8011BFAE77047FEE70000F8B500BF7D
:10137000F8BC08BC9E467047F8B500BFF8BC08BC76
:101380009E467047303030303030303030300000E2
:1013900000010258595A5B5C3F065B4F666D7D0742
:1013A0007F6F777C395E79710A4465766963652061
:1013B00070726F62656420003A20446576696365E7
:1013C00020666F756E6400000A46696E6973686511
:1013D000640A000064697265636369F36E3A200011
:1013E0000A000000496E696369612E2E2E0A000012
:1013F0004F626A313D200000200D0A0043000000CA
:081400001400002000000000B0
:0814080040EDFF7F0100000030
:1014100002040608000000000102030401020304A4
:10142000060708090000000000000000000000009E
:1014300000000000000000000000000000000000AC
:1014400000000000FC130008000000000000000085
:10145000000000000000000000000000000000008C
:10146000000000000000000000000000000000007C
:10147000000000000000000000000000000000006C
:0C1480000000000011010008ED00000851
:00000001FF
