:020000040800F2
:1000000000500020F10A0008370B0008390B0008E7
:100010003B0B00083D0B00083F0B000800000000F0
:10002000000000000000000000000000410B00087C
:10003000430B000800000000450B0008470B0008B8
:100040004B0B00084D0B00084F0B0008510B00082C
:10005000530B0008550B0008570B0008590B0008FC
:100060005B0B00085D0B00085F0B0008610B0008CC
:10007000630B0008650B0008670B0008690B00089C
:100080006B0B00086D0B00086F0B0008710B00086C
:10009000730B0008750B0008770B0008790B00083C
:1000A0007B0B00087D0B00087F0B0008810B00080C
:1000B000830B0008850B0008870B0008890B0008DC
:1000C0008B0B00088D0B00088F0B0008910B0008AC
:1000D000930B0008950B0008970B0008990B00087C
:1000E0009B0B00089D0B00089F0B000810B5054CEA
:1000F000237833B9044B13B10448AFF300800123D4
:10010000237010BD7C00002000000000680D000876
:10011000084B10B51BB108490848AFF300800848E8
:10012000036803B910BD074B002BFBD0BDE810409E
:10013000184700BF0000000080000020680D000884
:100140007C00002000000000154B002B08BF134B63
:100150009D46A3F5803A00218B460F461348144A6A
:10016000121A00F0DDFD0F4B002B00D098470E4B0C
:10017000002B00D098470020002104000D000D48FE
:10018000002802D00C48AFF3008000F0A3FD20004F
:10019000290000F0D9FB00F089FD00BF0000080035
:1001A0000050002000000000000000007C00002043
:1001B00098000020000000000000000042680B686A
:1001C00022F4702230B422F480720C79134343EA93
:1001D000042343608568CC688A68094B22432B401E
:1001E0004C79134343EA440383600A7CC36A013AAF
:1001F000D2B223F4700343EA0253C36230BC7047A7
:10020000FDF7F1FF836819B923F00103836070479C
:1002100043F0010383607047836819B923F4807346
:100220008360704743F4807383607047836843F052
:1002300008038360704700BF8068C0F3C000704748
:10024000836843F004038360704700BF8068C0F395
:1002500080007047836819B923F4A0038360704756
:1002600043F4A00383607047092970B41DD9A1F13C
:100270000A0606EB4606C5680724B440B34025EAE3
:1002800004042343062AC3601BD90C2A27D90D3A3C
:1002900002EB8202C36A1F24944001FA02F223EAAD
:1002A00004010A43C26270BC704701EB4106056954
:1002B0000724B440B34025EA04042343062A03611B
:1002C000E3D8013A02EB8202436B1F24944001FA07
:1002D00002F223EA04010A43426370BC7047073A02
:1002E00002EB8202036B1F24944001FA02F223EA1C
:1002F00004010A43026370BC704700BF4FF6FE72F0
:1003000003683A491A4088424FF0000302600360D4
:1003100043608360C36027D0354B98422AD0354B69
:1003200098422DD0344B984230D0344B984239D03B
:10033000334B98423CD0334B98420FD0324B9842CB
:100340003CD0324B98423FD0314B984242D0314B57
:10035000984245D0304B98421ED070472F4A536880
:1003600043F07063536070472C4A536843F00F03A7
:1003700053607047294A536843F0F0035360704755
:10038000264A536843F4706353607047234A5368A6
:1003900043F4704353607047214A536843F4702319
:1003A0005360DAE71D4A536843F470235360704783
:1003B0001A4A536843F4700353607047184A5368ED
:1003C00043F00F0353607047154A536843F0F0033E
:1003D00053607047124A536843F470635360704728
:1003E0000F4A536843F4704353607047080002405B
:1003F0001C0002403000024044000240580002400D
:100400006C00024080000240080402401C040240CC
:1004100030040240440402405804024000000240FC
:10042000000402400A6A30B48D680B692A434D69A2
:1004300013438A691D43CB6945EA02044D6A026889
:1004400023438C6A1D4322F4FF432C4323F07003A3
:1004500023430360CB6830BC43600B6883604B6808
:10046000C360704729B94FF6FE73026813400360FA
:100470007047036843F0010303607047CB782DE9B0
:10048000F04103F00F06DB0648BF8B780C8848BFAD
:100490001E4314F0FF0F26D00568002301274FF0FC
:1004A0000F0803E00133082B1BD00C8807FA03F276
:1004B00032EA0404F6D19C0091F803E008FA04FC47
:1004C00025EA0C0506FA04F4BEF1280F45EA0405F6
:1004D00038D0BEF1480F03F1010308BF0261082BB9
:1004E000E3D105600C88FF2C2AD945680023012739
:1004F0004FF00F0C03E00133082B20D00C8803F1E0
:10050000080207FA02F232EA0404F4D191F803E097
:100510009C00BEF1280F04BF426191F803E00CFA81
:1005200004F8BEF1480F03F1010325EA080506FAB5
:1005300004F408BF0261082B45EA0405DED14560DA
:10054000BDE8F0814261ADE74FF6FF71022204235E
:1005500001808270C3707047034A536823F47C1390
:10056000194308435060704700100240014B186067
:10057000704700BF60004242034A536823F0030300
:1005800018435060704700BF00100240034A536890
:1005900023F0F00318435060704700BF0010024082
:1005A000034A536823F4605343EAC0005060704725
:1005B00000100240034A536823F44043184350603C
:1005C000704700BF0010024030B4214A536803F066
:1005D0000C03042B06D0082B25D01BB11D4A134653
:1005E000026001E01B4B0360194A1B4C51681B4D14
:1005F000C1F30311615CCB4043605168C1F3022138
:10060000615C23FA01F181605168C1F3C221615C30
:10061000CB40C3605268C2F38132AA5C30BCB3FBEA
:10062000F2F30361704753685168C3F38343C9030E
:1006300003F1020307D55268920304D4054A02FB72
:1006400003F30360D0E7064A02FB03F30360CBE742
:100650000010024000127A00040000200000002078
:1006600000093D0029B9054A536923EA0000506199
:100670007047024B5A69104358617047001002409E
:1006800029B9054A936923EA000090617047024B3B
:100690009A69104398617047001002404309012B8A
:1006A0000BD0022B094B00F01F000CBF1B6A5B6ACA
:1006B00023FA00F000F001007047044B00F01F0027
:1006C0001B6823FA00F000F00100704700100240A0
:1006D00030B504460D46038ACA889BB223F44053C2
:1006E0001343038282890B89888892B24989034324
:1006F00022F4B0520B4322F00C0213439BB2A381AD
:10070000A38AAA899BB223F4407387B01343A382C0
:1007100001A8FFF759FF04991A48039BA289844254
:1007200008BF0B4612F4004F2A6803EB830314BF83
:100730005200920003EB8303B3FBF2F3124DA18945
:10074000A5FB03206422400900FB12330A044FEA90
:1007500000100AD41A013232A5FB0223C3F343135B
:1007600003439BB2238107B030BDD9003231A5FBD2
:100770000131C1F3421242EA00039BB2238107B068
:1007800030BD00BF003801401F85EB5100234FF4FE
:1007900016510C22016042818380C38003818381D2
:1007A000704700BF838929B923F400531B041B0C35
:1007B000838170479BB243F400538381704700BF2D
:1007C000C1F30801818070470388194214BF0120DA
:1007D0000020704770B586B002A8184EFFF7D6FF0C
:1007E0004FF41653012144F2050002930325FFF74D
:1007F00047FF134C304601A94FF400721823ADF89F
:1008000004208DF807308DF80650FFF737FE4FF4BF
:100810008062042301A93046ADF804208DF807302A
:100820008DF80650FFF72AFE20460121FFF7BAFF98
:1008300002A92046FFF74CFF06B070BD000801403A
:100840000038014008B50020FFF796FE0020FFF7B2
:100850008DFE4FF440304FF44011FFF77DFE012034
:10086000FFF784FE3920FFF719FF0028FAD0022095
:10087000FFF782FE0020FFF789FEBDE80840002058
:10088000FFF78EBE70B504462C4E86B03068716896
:10089000B268F36801AD0FC530692860002C3BD009
:1008A0000025274E00E01D46A6FB0432D20802EBCD
:1008B0008201A4EB410106A830316B1C00EB45001E
:1008C00020F8141C1446DBB2002AECD173B303F1F8
:1008D0000042023A03F10043551B013B01AA02EB1F
:1008E000450502EB430480211648FFF76DFF002801
:1008F000F9D034F802191348FFF762FFAC42F2D185
:1009000080211048FFF760FF80B10E480A2106B031
:10091000BDE87040FFF754BF80210A48FFF754FF3D
:100920000028F9D030210748FFF74AFF8021054809
:10093000FFF74AFF0028F9D0E7E700BF4C0D000899
:10094000CDCCCCCC00380140F0B593B00024FFF7FB
:1009500079FFFFF73FFF4FF48040ADF80040ADF85E
:100960000240FFF727FE01214FF40170FFF788FED8
:1009700001A8FFF7E9FD032301A957480125ADF8B8
:10098000043002268DF80740FFF778FD4FF460230E
:1009900002A95248049302948DF80D4005948DF8F5
:1009A0000C508DF81860FFF709FC21462A460723F2
:1009B0004A48FFF759FC3246294607234748FFF7C4
:1009C00053FC46482946FFF71DFC4448FFF72EFC20
:1009D0004248FFF731FC0028FAD14048FFF730FCCD
:1009E0003E48FFF733FC04460028F9D101210846B0
:1009F000FFF738FE3A48FFF781FC3A492020802271
:100A0000022307910F9007A935484FF480574FF400
:100A100080764FF480650C920A9311940B9409949C
:100A200010970D960E95CDF820D0FFF7FBFC012115
:100A30002B48FFF717FD01212848FFF7EDFB0121A7
:100A40002648FFF707FC80212748FFF7BDFE002856
:100A5000F9D043212448FFF7B3FE80212248FFF755
:100A6000B3FE0028F9D030211F48FFF7A9FE8021EE
:100A70001D48FFF7A9FE0028F9D01B483D21FFF7CC
:100A80009FFEBDF80000FFF7FDFE80211648FFF72E
:100A90009BFE0028F9D043211348FFF791FE8021E7
:100AA0001148FFF791FE0028F9D031210E48FFF7D9
:100AB00087FE80210C48FFF787FE0028F9D03D21F2
:100AC0000948FFF77DFEBDF80200FFF7DBFE074B8C
:100AD00000BF013BFCD1B2E7000801400024014007
:100AE000080002404C2401400038014080841E0070
:100AF0000649074A074B9A42BEBF51F8040B42F819
:100B0000040BF8E70448804704480047740D0008C8
:100B1000000000207C000020A90B0008490100080B
:100B20001F49204A002301E041F8043B9142FBD3D6
:100B3000FFF70AFFFEE7FEE7FEE7FEE7FEE7FEE758
:100B4000FEE7FEE7FEE7FEE7FEE7FEE7FEE7FEE77D
:100B5000FEE7FEE7FEE7FEE7FEE7FEE7FEE7FEE76D
:100B6000FEE7FEE7FEE7FEE7FEE7FEE7FEE7FEE75D
:100B7000FEE7FEE7FEE7FEE7FEE7FEE7FEE7FEE74D
:100B8000FEE7FEE7FEE7FEE7FEE7FEE7FEE7FEE73D
:100B9000FEE7FEE7FEE7FEE7FEE7FEE7FEE7FEE72D
:100BA0007C0000209800002030B43C4B3C49186881
:100BB00082B040F0010018605D6800202940596053
:100BC00019684FF41F0421F0847121F480311960F9
:100BD00019681A4621F480211960596821F4FE0130
:100BE00059609C6000900190196841F4803119604F
:100BF00003E0009BB3F5A06F09D0136803F4003342
:100C00000193009B01330093019B002BF1D0234BF8
:100C10001B6813F4003318BF01230193019B012BC0
:100C200006D0204B4FF000629A6002B030BC704793
:100C30001D4A1A4B1068194640F0100010601068E9
:100C400020F003001060106840F0020010605A6845
:100C50005A605A685A605A6842F480625A605A6808
:100C600022F47C125A605A6842F4E8125A601A68F8
:100C700042F080721A600B68084A9B01FBD511464E
:100C8000536823F003035360536843F00203536037
:100C90004B6803F00C03082BFAD1C2E700100240A6
:100CA0000000FFF800ED00E00020024008B5074B0F
:100CB000044613B10021AFF30080054B1868836A26
:100CC00003B19847204600F033F800BF0000000051
:100CD000640D00080E4B70B51E460E4C0025E41A3C
:100CE000A410A54204D056F8253098470135F8E7FE
:100CF00000F020F8084B094C1E46E41AA410002509
:100D0000A54204D056F8253098470135F8E770BD64
:100D1000740000207400002074000020780000207F
:100D200003460244934202D003F8011BFAE77047DE
:100D3000FEE70000F8B500BFF8BC08BC9E4670474F
:100D4000F8B500BFF8BC08BC9E46704730003000C4
:100D50003000300030003000300030003000300013
:0C0D600043000000140000200000000010
:080D6C00DCF3FF7F0100000031
:100D74000204060800000000010203040102030447
:100D84000607080900000000000000000000000041
:100D9400000000000000000000000000000000004F
:100DA40000000000600D00080000000000000000CA
:100DB400000000000000000000000000000000002F
:100DC400000000000000000000000000000000001F
:100DD400000000000000000000000000000000000F
:0C0DE4000000000011010008ED000008F4
:0400000508000000EF
:00000001FF
