:020000040800F2
:1000000000500020190C00085F0C0008610C00086B
:10001000630C0008650C0008670C00080000000075
:10002000000000000000000000000000690C000853
:100030006B0C0008000000006D0C00086F0C00083D
:10004000730C0008750C0008770C0008790C000888
:100050007B0C00087D0C00087F0C0008810C000858
:10006000830C0008850C0008870C0008890C000828
:100070008B0C00088D0C00088F0C0008910C0008F8
:10008000930C0008950C0008970C0008990C0008C8
:100090009B0C00089D0C00089F0C0008A10C000898
:1000A000A30C0008A50C0008A70C0008A90C000868
:1000B000AB0C0008AD0C0008AF0C0008B10C000838
:1000C000B30C0008B50C0008B70C0008B90C000808
:1000D000BB0C0008BD0C0008BF0C0008C10C0008D8
:1000E000C30C0008C50C0008C70C000810B5054C6F
:1000F000237833B9044B13B10448AFF300800123D4
:10010000237010BD7C00002000000000D40E000809
:10011000084B10B51BB108490848AFF300800848E8
:10012000036803B910BD074B002BFBD0BDE810409E
:10013000184700BF0000000080000020D40E000817
:100140007C00002000000000154B002B08BF134B63
:100150009D46A3F5803A00218B460F461348144A6A
:10016000121A00F071FE0F4B002B00D098470E4B77
:10017000002B00D098470020002104000D000D48FE
:10018000002802D00C48AFF3008000F037FE2000BA
:10019000290000F0F5FC00F01DFE00BF0000080083
:1001A0000050002000000000000000007C00002043
:1001B000AD0000200000000000000000CB782DE919
:1001C000F04103F00F06DB0648BF8B780C8848BF70
:1001D0001E4314F0FF0F26D00568002301274FF0BF
:1001E0000F0803E00133082B1BD00C8807FA03F239
:1001F00032EA0404F6D19C0091F803E008FA04FC0A
:1002000025EA0C0506FA04F4BEF1280F45EA0405B8
:1002100038D0BEF1480F03F1010308BF0261082B7B
:10022000E3D105600C88FF2C2AD9456800230127FB
:100230004FF00F0C03E00133082B20D00C8803F1A2
:10024000080207FA02F232EA0404F4D191F803E05A
:100250009C00BEF1280F04BF426191F803E00CFA44
:1002600004F8BEF1480F03F1010325EA080506FA78
:1002700004F408BF0261082B45EA0405DED145609D
:10028000BDE8F0814261ADE7F0B504460D4687B0A8
:10029000868801A800F0DEF8314F039B26F03F0668
:1002A000A7FB03273604BF0C360CB8B20643A68062
:1002B00021882C4E21F001010904090C21802A68B3
:1002C000B24223D85200B3FBF2F39BB2032B00F1EE
:1002D000010098BF04232084A38323889BB243F0AA
:1002E000010323802388A98823F481636A8923F08A
:1002F00002031B040A431B0C13439BB22380AA89ED
:100300002B8913439BB2238107B0F0BD4BF6FF71DD
:10031000E88888421DD002EB820202EB8202B3FB26
:10032000F2F39BB243F48043C3F30B020AB943F0E8
:1003300001034FF4967202FB07F70B4AF91782FB91
:100340000702C1EBA212013292B243F400432284AD
:10035000C2E702EB4200B3FBF0F39BB2E4E700BF5D
:1003600083DE1B43A0860100D34D6210038829B9A8
:1003700023F001031B041B0C038070479BB243F066
:1003800001030380704700BF038829B923F48073F9
:100390001B041B0C038070479BB243F480730380E3
:1003A000704700BF038829B923F400731B041B0C9A
:1003B000038070479BB243F400730380704700BF13
:1003C000038829B923F480631B041B0C0380704746
:1003D0009BB243F480630380704700BF0182704783
:1003E000008AC0B2704700BF22B901F0FE0189B295
:1003F0000182704741F0010189B20182704700BF5C
:10040000838A008B9BB243EA004321F07F4203EAD8
:100410000200401AB0FA80F04009704782B0002311
:100420000A0F0093019301900092009B21F07F41FD
:1004300053B1019B14330193019B1B68194214BFF4
:100440000120002002B07047019B090C1833019372
:10045000F2E700BF30B4214A536803F00C03042BC9
:1004600006D0082B25D01BB11D4A1346026001E0BF
:100470001B4B0360194A1B4C51681B4DC1F3031100
:10048000615CCB4043605168C1F30221615C23FA97
:1004900001F181605168C1F3C221615CCB40C3604E
:1004A0005268C2F38132AA5C30BCB3FBF2F3036141
:1004B000704753685168C3F38343C90303F10203D0
:1004C00007D55268920304D4054A02FB03F3036084
:1004D000D0E7064A02FB03F30360CBE700100240BB
:1004E00000127A00040000200000002000093D00F6
:1004F00029B9054A936923EA000090617047024BCD
:100500009A691043986170470010024029B9054A62
:10051000D36923EA0000D0617047024BDA691043C7
:10052000D86170470010024030B504460D46038A7A
:10053000CA889BB223F440531343038282890B89F8
:10054000888892B24989034322F4B0520B4322F0C7
:100550000C0213439BB2A381A38AAA899BB223F402
:10056000407387B01343A38201A8FFF773FF049978
:100570001A48039BA289844208BF0B4612F4004F1D
:100580002A6803EB830314BF5200920003EB83033A
:10059000B3FBF2F3124DA189A5FB032064224009AD
:1005A00000FB12330A044FEA00100AD41A01323257
:1005B000A5FB0223C3F3431303439BB2238107B07C
:1005C00030BDD9003231A5FB0131C1F3421242EAFC
:1005D00000039BB2238107B030BD00BF003801404B
:1005E0001F85EB5100234FF416510C22016042810C
:1005F0008380C38003818381704700BF838929B9C9
:1006000023F400531B041B0C838170479BB243F4FB
:1006100000538381704700BFC1F308018180704798
:100620000388194214BF01200020704708B5034910
:100630000348FFF7E5FE0028F9D008BD02000300DB
:100640000058004008B54FF400310848FFF7E6FEB7
:100650000028F8D101210548FFF796FE0449034818
:10066000FFF7CEFE0028F9D008BD00BF00580040BB
:100670000100030008B501210448FFF793FE044977
:100680000248FFF7CBFE0028F9D108BD0058004012
:100690001000001010B50C46014622460848FFF72E
:1006A000A3FE14B1012C07D010BD06490448FFF782
:1006B000A7FE0028F9D010BDBDE81040FFF7B6BF77
:1006C0000058004082000700014608B50448FFF7C3
:1006D00085FE04490248FFF793FE0028F9D008BDC3
:1006E000005800408000070070B5064615460C46CD
:1006F000FFF7A8FF0B4B00211878FFF7CBFF304620
:10070000FFF7E2FF4DB1013DEDB22544013C14F885
:10071000010FFFF7D9FFAC42F9D1BDE87040FFF7F8
:10072000A9BF00BFA000002070B50C4D00F007006D
:100730002C7882B060F38404A300012203F00C0340
:1007400043EA00130026104601A92C708DF80430EE
:100750008DF80560FFF7C8FF02B070BDAC00002047
:1007600070B50A4D82B02C7801226FF34104A300CA
:1007700003F074031046002601A92C708DF8043094
:100780008DF80560FFF7B0FF02B070BDAC0000202F
:1007900008B501210648FFF713FE06490448FFF794
:1007A0002FFE0028F9D00248BDE80840FFF718BE28
:1007B000005800404000030008B500210648FFF73C
:1007C000FFFD06490448FFF71BFE0028F9D0024848
:1007D000BDE80840FFF704BE005800404000030099
:1007E000F8B506461546154C0F46FFF72BFF0021BE
:1007F0002078FFF74FFF3046FFF766FFFFF73AFF1D
:10080000FFF720FF217801220D48FFF7EDFDFFF7EC
:100810000DFF6B1E13F0FF0609D0023DEDB23D4403
:100820007C1EFFF7B5FF04F8010FAC42F9D1FFF7CA
:10083000C3FFB855BDE8F840FFF71CBFA00000207B
:100840000058004000B583B00DF1070101220020DF
:10085000FFF7C6FF0A4A9DF807301078D90863F3FE
:10086000000061F34100190961F38200DB0963F3C1
:10087000C3001070C0F3400003B05DF804FB00BF7C
:10088000A800002070B582B0694608220220FFF758
:10089000A7FF0C489DF8006000789DF8012010F03B
:1008A00001009DF802509DF80330074C074918BF1E
:1008B0009DF8050042EA062243EA052322800B80C8
:1008C00002B070BDA8000020A60000209800002003
:1008D00000B583B00DF1070101220020FFF780FF72
:1008E0000A4A9DF807001378C10860F3000361F31A
:1008F0004103010961F38203C10961F3C30300F0FD
:100900000100137003B05DF804FB00BFA8000020D5
:10091000F0B54BF6FF77044687B001214FF4800015
:10092000FFF7F4FD01210920FFF7E2FD01264FF456
:1009300040621C2369462D48ADF800208DF8026006
:100940008DF80330FFF73AFC294B06AD4FF4804297
:10095000314645F8103D274800234FF48066ADF836
:100960000C30ADF81030ADF81420ADF80E70ADF8C5
:100970001260FFF7FBFC29461E48FFF785FC1E4A64
:100980001E4B10686400019001A90422FF201C7016
:10099000FFF7AAFE1A4C00BF013CFCD1012201A9BD
:1009A0002020FFF71DFF9DF80430812B02D000208E
:1009B00007B0F0BD01A92246F4208DF804408DF85F
:1009C0000540FFF791FE0E4B00BF013BFCD1FFF746
:1009D0007FFF0028EBD10B4B1B781B07E7D5FFF7F8
:1009E000BFFE0120FFF7A0FE0120E1E7000C01405F
:1009F000A086010000580040740E0008A0000020EE
:100A0000C0C62D00A800002070B586B002A8184E00
:100A1000FFF7E8FD4FF41653012144F2050002935D
:100A20000325FFF765FD134C304601A94FF4007212
:100A30001823ADF804208DF807308DF80650FFF725
:100A4000BDFB4FF48062042301A93046ADF80420B9
:100A50008DF807308DF80650FFF7B0FB20460121D6
:100A6000FFF7CCFD02A92046FFF75EFD06B070BD82
:100A7000000801400038014070B504462C4E86B095
:100A800030687168B268F36801AD0FC530692860DD
:100A9000002C3BD00025274E00E01D46A6FB04326B
:100AA000D20802EB8201A4EB410106A830316B1C95
:100AB00000EB450020F8141C1446DBB2002AECD1F0
:100AC00073B303F10042023A03F10043551B013BAB
:100AD00001AA02EB450502EB430480211648FFF70B
:100AE0009FFD0028F9D034F802191348FFF794FD50
:100AF000AC42F2D180211048FFF792FD80B10E4840
:100B00000A2106B0BDE87040FFF786BD80210A4883
:100B1000FFF786FD0028F9D030210748FFF77CFD5C
:100B200080210548FFF77CFD0028F9D0E7E700BFEA
:100B3000780E0008CDCCCCCC0038014038B5044646
:100B40000D4680210D48FFF76BFD0028F9D00D21DF
:100B50000A48FFF761FD85B1013DEDB22544013C36
:100B600080210648FFF75CFD0028F9D014F8011F2A
:100B70000248FFF751FDAC42F2D138BD00380140C8
:100B800008B5FFF741FF1C480C21FFF7D7FF5A209B
:100B9000FFF7BEFE58B3FFF755FE0028FBD0174DF8
:100BA000174CFFF74FFE38B9164B00BF013BFCD185
:100BB000FFF748FE0028F7D0FFF744FE70B9052183
:100BC0001148FFF7BBFF2888FFF756FF0B210F489E
:100BD000FFF7B4FF2088FFF74FFFE5E7FFF752FE6E
:100BE0000028ECD008210A48FFF7A8FFFEE70E21F5
:100BF0000848FFF7A3FFFEE78C0E0008A6000020C0
:100C000098000020C0E1E400AC0E0008B40E00081B
:100C1000C00E00089C0E00080649074A074B9A427E
:100C2000BEBF51F8040B42F8040BF8E704488047B4
:100C300004480047E00E0008000000207C0000206F
:100C4000D10C0008490100081F49204A002301E097
:100C500041F8043B9142FBD3FFF792FFFEE7FEE72A
:100C6000FEE7FEE7FEE7FEE7FEE7FEE7FEE7FEE75C
:100C7000FEE7FEE7FEE7FEE7FEE7FEE7FEE7FEE74C
:100C8000FEE7FEE7FEE7FEE7FEE7FEE7FEE7FEE73C
:100C9000FEE7FEE7FEE7FEE7FEE7FEE7FEE7FEE72C
:100CA000FEE7FEE7FEE7FEE7FEE7FEE7FEE7FEE71C
:100CB000FEE7FEE7FEE7FEE7FEE7FEE7FEE7FEE70C
:100CC000FEE7FEE7FEE7FEE77C000020AD00002027
:100CD00030B43C4B3C49186882B040F001001860C9
:100CE0005D6800202940596019684FF41F0421F005
:100CF000847121F48031196019681A4621F4802129
:100D00001960596821F4FE0159609C6000900190BF
:100D1000196841F48031196003E0009BB3F5A06FBE
:100D200009D0136803F400330193009B013300934F
:100D3000019B002BF1D0234B1B6813F4003318BF29
:100D400001230193019B012B06D0204B4FF0006241
:100D50009A6002B030BC70471D4A1A4B10681946A1
:100D600040F010001060106820F003001060106860
:100D700040F0020010605A685A605A685A605A6817
:100D800042F480625A605A6822F47C125A605A68AF
:100D900042F4E8125A601A6842F080721A600B68D6
:100DA000084A9B01FBD51146536823F003035360A7
:100DB000536843F0020353604B6803F00C03082BA5
:100DC000FAD1C2E7001002400000FFF800ED00E099
:100DD0000020024008B5074B044613B10021AFF3D1
:100DE0000080054B1868836A03B19847204600F0DD
:100DF00033F800BF00000000D00E00080E4B70B5A5
:100E00001E460E4C0025E41AA410A54204D056F844
:100E1000253098470135F8E700F020F8084B094CD9
:100E20001E46E41AA4100025A54204D056F8253029
:100E300098470135F8E770BD740000207400002069
:100E4000740000207800002003460244934202D040
:100E500003F8011BFAE77047FEE70000F8B500BF92
:100E6000F8BC08BC9E467047F8B500BFF8BC08BC8B
:100E70009E46704711E5728A300030003000300025
:100E80003000300030003000300030004343533831
:100E9000313120746573740A0000000046616C6C87
:100EA0006120656E20746573740A0000434F323A06
:100EB0002000000070706D2C2054564F433A2000E3
:100EC0004552524F5221200A00000000430000000A
:080ED0001400002000000000E6
:080ED80070F2FF7F0100000031
:100EE00002040608000000000102030401020304DA
:100EF00006070809000000000000000000000000D4
:100F000000000000000000000000000000000000E1
:100F100000000000CC0E00080000000000000000EF
:100F200000000000000000000000000000000000C1
:100F300000000000000000000000000000000000B1
:100F400000000000000000000000000000000000A1
:0C0F50000000000011010008ED00000886
:0400000508000000EF
:00000001FF
