:020000040800F2
:1000000000500020391000087F10000881100008FF
:100010008310000885100008871000080000000009
:10002000000000000000000000000000891000082F
:100030008B100008000000008D1000088F100008D1
:1000400093100008951000089710000899100008F8
:100050009B1000089D1000089F100008A1100008C8
:10006000A3100008A5100008A7100008A910000898
:10007000AB100008AD100008AF100008B110000868
:10008000B3100008B5100008B7100008B910000838
:10009000BB100008BD100008BF100008C110000808
:1000A000C3100008C5100008C7100008C9100008D8
:1000B000CB100008CD100008CF100008950A0008EA
:1000C000B50B0008D5100008D7100008D91000089B
:1000D000DB100008DD100008DF100008E110000848
:1000E000E3100008E5100008E710000810B5054C03
:1000F000237833B9044B13B10448AFF300800123D4
:10010000237010BD7C00002000000000981400083F
:10011000084B10B51BB108490848AFF300800848E8
:10012000036803B910BD074B002BFBD0BDE810409E
:10013000184700BF0000000080000020981400084D
:100140007C00002000000000154B002B08BF134B63
:100150009D46A3F5803A00218B460F461348144A6A
:10016000121A01F081F80F4B002B00D098470E4B6C
:10017000002B00D098470020002104000D000D48FE
:10018000002802D00C48AFF3008001F047F82000AF
:10019000290000F09FFE01F02DF800BF00000800CC
:1001A0000050002000000000000000007C00002043
:1001B000A70000200000000000000000C3785BB929
:1001C000037801215A09164803F01F03203201FA6F
:1001D00003F340F82230704730B4124B8278D9686C
:1001E0004478C9430F23C1F30221C1F10405CB4078
:1001F000AC401340027823431B0102F16042DBB2A2
:1002000002F5614282F800330378012203F01F00F7
:1002100003495B09824041F8232030BC704700BF8E
:1002200000E100E000ED00E0CB782DE9F04103F0C3
:100230000F06DB0648BF8B780C8848BF1E4314F0BE
:10024000FF0F26D00568002301274FF00F0803E0B9
:100250000133082B1BD00C8807FA03F232EA04049E
:10026000F6D19C0091F803E008FA04FC25EA0C059D
:1002700006FA04F4BEF1280F45EA040538D0BEF1B1
:10028000480F03F1010308BF0261082BE3D10560A9
:100290000C88FF2C2AD94568002301274FF00F0C4A
:1002A00003E00133082B20D00C8803F1080207FA81
:1002B00002F232EA0404F4D191F803E09C00BEF1AA
:1002C000280F04BF426191F803E00CFA04F8BEF174
:1002D000480F03F1010325EA080506FA04F408BFF4
:1002E0000261082B45EA0405DED14560BDE8F081D6
:1002F0004261ADE708B50D4B012198420AD04FF499
:10030000800000F005FABDE8084000214FF48000AD
:1003100000F0FEB94FF4001000F0FAF9BDE8084013
:1003200000214FF4001000F0F3B900BF005400406A
:10033000F0B504460D4687B0868801A800F07EF926
:10034000314F039B26F03F06A7FB03273604BF0C63
:10035000360CB8B20643A68021882C4E21F001014C
:100360000904090C21802A68B24223D85200B3FB49
:10037000F2F39BB2032B00F1010098BF0423208409
:10038000A38323889BB243F0010323802388A98899
:1003900023F481636A8923F002031B040A431B0CC4
:1003A00013439BB22380AA892B8913439BB22381D9
:1003B00007B0F0BD4BF6FF71E88888421DD002EB14
:1003C000820202EB8202B3FBF2F39BB243F480435E
:1003D000C3F30B020AB943F001034FF4967202FB18
:1003E00007F70B4AF91782FB0702C1EBA212013291
:1003F00092B243F400432284C2E702EB4200B3FB13
:10040000F0F39BB2E4E700BF83DE1B43A08601004C
:10041000D34D6210038829B923F001031B041B0C80
:10042000038070479BB243F001030380704700BF15
:10043000038829B923F480731B041B0C03807047C5
:100440009BB243F480730380704700BF038829B9CF
:1004500023F400731B041B0C038070479BB243F40E
:1004600000730380704700BF038829B923F48063B9
:100470001B041B0C038070479BB243F48063038012
:10048000704700BF83889BB21AB923EA01018180BB
:10049000704719438180704701827047008AC0B25B
:1004A000704700BF22B901F0FE0189B20182704796
:1004B00041F0010189B20182704700BFB1F5006FC0
:1004C000038805D023F400631B041B0C03807047D2
:1004D0009BB243F400630380704700BFFFF7EEBF99
:1004E000038829B123F080031B041B0C0380704791
:1004F0009BB243F080030380704700BF838A008B68
:100500009BB243EA004321F07F4203EA0200401A13
:10051000B0FA80F040097047838A028B98B240EAB3
:10052000024020F07F40704782B000230A0F009302
:10053000019301900092009B21F07F4153B1019BF8
:1005400014330193019B1B68194214BF0120002042
:1005500002B07047019B090C18330193F2E700BF0A
:100560008388808A9BB280B2084006D003F4E0639F
:1005700013EA114314BF012000207047C94389B218
:1005800081827047014B1860704700BF20000E4207
:10059000034A536823F47C1319430843506070479F
:1005A00000100240014B1860704700BF60004242DB
:1005B000034A536823F0030318435060704700BF99
:1005C00000100240034A536823F0F00318435060C0
:1005D000704700BF00100240034A536823F4E063F1
:1005E00018435060704700BF00100240034A536830
:1005F00023F4605343EAC00050607047001002408B
:10060000064B002201281A701A7005D0042802D166
:1006100005221A707047704718707047201002400A
:10062000024A136A18431062704700BF001002406C
:10063000014B1860704700BF3C04424230B4214A6D
:10064000536803F00C03042B06D0082B25D01BB1F4
:100650001D4A1346026001E01B4B0360194A1B4C04
:1006600051681B4DC1F30311615CCB40436051687D
:10067000C1F30221615C23FA01F181605168C1F389
:10068000C221615CCB40C3605268C2F38132AA5C74
:1006900030BCB3FBF2F30361704753685168C3F396
:1006A0008343C90303F1020307D55268920304D4BC
:1006B000054A02FB03F30360D0E7064A02FB03F39B
:1006C0000360CBE70010024000127A000400002013
:1006D0000000002000093D0029B9054A936923EA7A
:1006E000000090617047024B9A691043986170470F
:1006F0000010024029B9054AD36923EA0000D061FD
:100700007047024BDA691043D8617047001002400D
:1007100029B9054A136923EA000010617047024BAA
:100720001A69104318617047001002404309012BF9
:100730000BD0022B094B00F01F000CBF1B6A5B6A39
:1007400023FA00F000F001007047044B00F01F0096
:100750001B6823FA00F000F001007047001002400F
:10076000034A938B108B9BB243EA0040704700BF53
:1007700000280040084A010C938880B29BB243F0E5
:100780001003938011839083938823F010031B043C
:100790001B0C9380704700BF00280040084AC0F33C
:1007A0000341938880B29BB243F010039380118180
:1007B0009081938823F010031B041B0C93807047D7
:1007C0000028004005490A468B8823F008031B04D3
:1007D0001B0C8B8093881B07FCD5704700280040BA
:1007E000034B9B88184214BF01200020704700BFB4
:1007F0000028004030B504460D46038ACA889BB2E3
:1008000023F440531343038282890B89888892B270
:100810004989034322F4B0520B4322F00C021343E4
:100820009BB2A381A38AAA899BB223F4407387B0A9
:100830001343A38201A8FFF701FF04991A48039B01
:10084000A289844208BF0B4612F4004F2A6803EBCA
:10085000830314BF5200920003EB8303B3FBF2F354
:10086000124DA189A5FB03206422400900FB12332D
:100870000A044FEA00100AD41A013232A5FB0223FF
:10088000C3F3431303439BB2238107B030BDD900A8
:100890003231A5FB0131C1F3421242EA00039BB29F
:1008A000238107B030BD00BF003801401F85EB51E8
:1008B00000234FF416510C22016042818380C380D3
:1008C00003818381704700BF838929B923F40053D2
:1008D0001B041B0C838170479BB243F4005383813C
:1008E000704700BFC1F30801818070478088C0F362
:1008F000080070470388194214BF01200020704788
:1009000008B50020FFF754FE0020FFF74BFE4FF420
:1009100080304FF4E011FFF73BFE0120FFF742FE6D
:100920003920FFF703FF0028FAD00220FFF740FE2E
:100930000020FFF747FE0020FFF758FEBDE8084003
:100940004FF48060FFF748BE70B586B002A8184E1D
:10095000FFF7AEFF4FF41653012144F20500029356
:100960000325FFF7B9FE134C304601A94FF400727E
:100970001823ADF804208DF807308DF80650FFF7E6
:1009800053FC4FF48062042301A93046ADF80420E3
:100990008DF807308DF80650FFF746FC2046012100
:1009A000FFF792FF02A92046FFF724FF06B070BDB3
:1009B0000008014000380140F0B5334C87B02046B4
:1009C000FFF798FC01214FF40010FFF793FE01217F
:1009D0000920FFF781FEC02603221C2369462B480D
:1009E000ADF800608DF802208DF80330FFF71CFC95
:1009F0004BF6FF71264B06AD242245F8103D00262C
:100A00004FF4804320464FF48067ADF80E1001216B
:100A1000ADF81020ADF81430ADF80C60ADF81270E0
:100A2000FFF7F8FC29462046FFF782FC204601210B
:100A3000FFF756FD01212046FFF716FD012501A80D
:100A40001F238DF804308DF805608DF806608DF851
:100A50000750FFF7B3FB202301A88DF80430FFF700
:100A6000ADFB2A4620464FF40071FFF70BFD2A46E6
:100A700039462046FFF706FD2A4620464FF480718E
:100A8000FFF700FD07B0F0BD00540040000C01402E
:100A9000A086010070B5404C2046FFF73DFDB0F147
:100AA000021F41D009D93D4B98420FD002339842E2
:100AB00059D03B4B98421AD070BD102838D0B0F5B1
:100AC000806F30D1A38ADBB2A38270BD354D364929
:100AD0002A78364B895C204605221A70FFF7DCFC29
:100AE0002B780133DBB2092B2B7019D870BD30493C
:100AF0002046FFF719FD0128274808BFA38AFFF702
:100B0000CDFC2A4A1378012B3ED0264D264E29785B
:100B100003244B1CDBB2092B70542B701470CBD9FF
:100B200009232B7070BD70BD204B01221A7070BD5F
:100B3000A38A9D0748BF204604D5838A038B838AF6
:100B40009C07FAD4144A938AD90608D5938A138845
:100B50009BB243F001031380938ADB06F6D4134B58
:100B600000221A7070BD0F4D0F492A780F4B895C17
:100B7000204604221A70FFF78FFC2B780133DBB27A
:100B8000092B2B70CCD870BD0928064928BF092035
:100B900002230870137070BD0054004080000600EE
:100BA00040000200980000209C000020A6000020C9
:100BB0000400001008B506490648FFF7D1FC00B94B
:100BC00008BD03490348BDE80840FFF7D7BC00BF94
:100BD0000004000100540040F0B51E4C87B02046D0
:100BE000FFF788FB01214FF48000FFF783FD01210F
:100BF0000920FFF771FD4FF4406603221C2301A971
:100C00001548ADF804608DF806208DF80730FFF721
:100C10000BFB4BF6FF71114B06AD45F8103D4FF441
:100C200080624FF480432046ADF80E10002719264D
:100C30000121ADF81220ADF81430ADF80C70ADF80C
:100C40001060FFF7E7FB29462046FFF771FB07B06E
:100C5000F0BD00BF00580040000C0140A08601001C
:100C600038B505460C461A480121FFF7E1FB194942
:100C70001748FFF743FC0028F9D00022242114482C
:100C8000FFF710FC14491248FFF738FC0028F9D090
:100C900029460F48FFF700FC10490D48FFF72EFCCE
:100CA0000028F9D021460A48FFF7F6FB0B4908480F
:100CB000FFF724FC0028F9D001210548FFF7C6FB07
:100CC00006490348FFF71AFC0028F9D038BD00BFD9
:100CD0000058004001000300820007008400070064
:100CE00038B5012104462F48FFF7BEFB4FF4003111
:100CF0002C48FFF719FC0128F8D001212948FFF7FB
:100D000097FB29492748FFF7F9FB0028F9D0002273
:100D100024212448FFF7C6FB24492248FFF7EEFBB5
:100D20000028F9D022491F48FFF7FEFB0028F9D020
:100D300021461C48FFF7B0FB1E491A48FFF7DEFBAF
:100D40000028F9D001211748FFF772FB1649154812
:100D5000FFF7D4FB0028F9D0012224211148FFF726
:100D6000A1FB15490F48FFF7C9FB0028F9D00D4C2E
:100D700012492046FFF7C2FB0028F8D02046A38A7C
:100D8000FFF78CFB054600212046FFF76DFB204650
:100D90004FF2FF71FFF7A2FB20460121FFF756FB40
:100DA000284638BD005800400100030082000700BB
:100DB00080000010840007000200030040000300D0
:100DC00008B501214FF08050FFF794FC0120FFF798
:100DD000D9FB0120FFF714FC4120FFF7A7FC0028F6
:100DE000FAD04FF48070FFF71BFC0120FFF720FCC6
:100DF000FFF7E8FC2020FFF7F3FC0028FAD04FF4BF
:100E00000040FFF7CBFCBDE808400020FFF7B2BC74
:100E100091B138B54D1EEDB20544441E80210748FE
:100E2000FFF768FD0028F9D014F8011F0348FFF709
:100E300059FDAC42F2D138BD704700BF00380140C7
:100E4000024630B5204C85B02068616801AB03C311
:100E500024891C8052B300241C4D00E01C46A5FBD5
:100E60000231C90801EB8103303204A8A2EB43022E
:100E70002044631C00F80C2CDBB20A460029EDD19B
:100E800093B19D1E2C1B01AA013B1519D41880217A
:100E90000F48FFF72FFD0028F9D014F801190C486E
:100EA000FFF720FDAC42F2D105B030BD80210848EB
:100EB000FFF720FD0028F9D00548302105B0BDE836
:100EC0003040FFF70FBD00BF94120008CDCCCCCC52
:100ED0000038014070B5FFF713FDFFF735FDFFF750
:100EE0006FFFFFF769FDFFF777FE04214748FFF723
:100EF0008FFF47494748484B00220A70027003F1B0
:100F00000A012D2203F8012B8B42FBD1FFF728FCAD
:100F100020214248FFF7EEFC0128F9D13F48FFF7B6
:100F2000E5FC3F281CD0BF28F2D103213C48FFF745
:100F30006FFFFFF715FC04460025EEB203E0FFF754
:100F4000D9FC012836D0FFF70BFC031B092B4FF00F
:100F500020013248F3D904212C48FFF759FFD7E785
:100F600003213048FFF754FF002402212E48FFF7E9
:100F70004FFF2046FFF764FF03212C48E5B2FFF73F
:100F800047FF80212548FFF7B5FC0028F9D0284607
:100F9000FFF7A6FE81B22148FFF7A4FC013401212E
:100FA0002348FFF735FF0A2CDFD104211748FFF74C
:100FB0002FFFADE71948FFF799FCC4B22146304630
:100FC000FFF74EFE02211848FFF722FF2846FFF7E1
:100FD00037FF04211748FFF71BFF80210F48FFF759
:100FE00089FC0028F9D021460C48FFF77BFC012141
:100FF0000F48FFF70DFFFFF7B3FB01350A2D04463D
:101000009BD104210148FFF703FF81E7701400081A
:1010100098000020A60000209C000020003801401D
:1010200084140008781400087C1400088014000858
:1010300088130008881400080649074A074B9A429B
:10104000BEBF51F8040B42F8040BF8E70448804790
:1010500004480047A4140008000000207C00002081
:10106000F1100008490100081F49204A002301E04F
:1010700041F8043B9142FBD3FFF72CFFFEE7FEE76C
:10108000FEE7FEE7FEE7FEE7FEE7FEE7FEE7FEE738
:10109000FEE7FEE7FEE7FEE7FEE7FEE7FEE7FEE728
:1010A000FEE7FEE7FEE7FEE7FEE7FEE7FEE7FEE718
:1010B000FEE7FEE7FEE7FEE7FEE7FEE7FEE7FEE708
:1010C000FEE7FEE7FEE7FEE7FEE7FEE7FEE7FEE7F8
:1010D000FEE7FEE7FEE7FEE7FEE7FEE7FEE7FEE7E8
:1010E000FEE7FEE7FEE7FEE77C000020A700002009
:1010F00030B43C4B3C49186882B040F001001860A5
:101100005D6800202940596019684FF41F0421F0E0
:10111000847121F48031196019681A4621F4802104
:101120001960596821F4FE0159609C60009001909B
:10113000196841F48031196003E0009BB3F5A06F9A
:1011400009D0136803F400330193009B013300932B
:10115000019B002BF1D0234B1B6813F4003318BF05
:1011600001230193019B012B06D0204B4FF000621D
:101170009A6002B030BC70471D4A1A4B106819467D
:1011800040F010001060106820F00300106010683C
:1011900040F0020010605A685A605A685A605A68F3
:1011A00042F480625A605A6822F47C125A605A688B
:1011B00042F4E8125A601A6842F080721A600B68B2
:1011C000084A9B01FBD51146536823F00303536083
:1011D000536843F0020353604B6803F00C03082B81
:1011E000FAD1C2E7001002400000FFF800ED00E075
:1011F0000020024008B5074B044613B10021AFF3AD
:101200000080054B1868836A03B19847204600F0B8
:1012100033F800BF00000000941400080E4B70B5B6
:101220001E460E4C0025E41AA410A54204D056F820
:10123000253098470135F8E700F020F8084B094CB5
:101240001E46E41AA4100025A54204D056F8253005
:1012500098470135F8E770BD740000207400002045
:10126000740000207800002003460244934202D01C
:1012700003F8011BFAE77047FEE70000F8B500BF6E
:10128000F8BC08BC9E467047F8B500BFF8BC08BC67
:101290009E467047303030303030303030300000D3
:1012A0005472616E736D69747465722F52656365F3
:1012B0006976657220666C61670D0A00427573205D
:1012C0006275737920666C61670D0A004D617374F5
:1012D00065722F536C61766520666C61670D0A003C
:1012E00054696D656F7574206F7220546C6F772030
:1012F0006572726F7220666C61670D0A00000000F3
:10130000504543206572726F7220696E207265636A
:10131000657074696F6E20666C61670D0A0000006D
:101320004F76657272756E2F556E64657272756E4A
:1013300020666C61672028536C617665206D6F6450
:1013400065290D0A0000000041636B6E6F776C65C4
:10135000646765206661696C75726520666C61679B
:101360000D0A00004172626974726174696F6E20C7
:101370006C6F737420666C616720284D61737465AF
:1013800072206D6F6465290D0A000000427573209C
:101390006572726F7220666C61670D0A0000000052
:1013A0004461746120726567697374657220656D4C
:1013B00070747920666C616720285472616E736D59
:1013C0006974746572290D0A00000000446174613B
:1013D000207265676973746572206E6F7420656D25
:1013E0007074792028526563656976657229206674
:1013F0006C61670D0A00000053746F70206465749F
:10140000656374696F6E20666C61672028536C6138
:101410007665206D6F6465290D0A00004279746558
:10142000207472616E736665722066696E69736896
:10143000656420666C61670D0A0000004164647297
:101440006573732073656E7420666C61670D0A00A6
:1014500053746172742062697420666C616720281D
:101460004D6173746572206D6F6465290D0A00000B
:101470000D0A3E3E000000003F0D0A004D2800000E
:10148000293D2000BF0D0A00293C2D20000000004E
:0C149000430000001400002000000000D9
:08149C00ACECFF7F0100000031
:1014A4000204060800000000010203040102030410
:1014B400060708090000000000000000000000000A
:1014C4000000000000000000000000000000000018
:1014D400000000009014000800000000000000005C
:1014E40000000000000000000000000000000000F8
:1014F40000000000000000000000000000000000E8
:1015040000000000000000000000000000000000D7
:0C1514000000000011010008ED000008BC
:0400000508000000EF
:00000001FF
