:020000040800F2
:10000000005000203D0E0008830E0008850E0008F9
:10001000870E0008890E00088B0E00080000000003
:100020000000000000000000000000008D0E00082D
:100030008F0E000800000000910E0008930E0008CB
:10004000970E0008990E00089B0E00089D0E0008F0
:100050009F0E0008A10E0008A30E0008A50E0008C0
:10006000A70E0008A90E0008AB0E0008AD0E000890
:10007000AF0E0008B10E0008B30E0008B50E000860
:10008000B70E0008B90E0008BB0E0008BD0E000830
:10009000BF0E0008C10E0008C30E0008C50E000800
:1000A000C70E0008C90E0008CB0E0008CD0E0008D0
:1000B000BD0D0008D10E0008D30E0008D50E0008B3
:1000C000D70E0008D90E0008DB0E0008DD0E000870
:1000D000DF0E0008E10E0008E30E0008E50E000840
:1000E000E70E0008E90E0008EB0E000810B5054CFD
:1000F000237833B9044B13B10448AFF300800123D4
:10010000237010BD8000002000000000B410000823
:10011000084B10B51BB108490848AFF300800848E8
:10012000036803B910BD074B002BFBD0BDE810409E
:10013000184700BF0000000084000020B410000831
:100140008000002000000000154B002B08BF134B5F
:100150009D46A3F5803A00218B460F461348144A6A
:10016000121A00F083FF0F4B002B00D098470E4B64
:10017000002B00D098470020002104000D000D48FE
:10018000002802D00C48AFF3008000F049FF2000A7
:10019000290000F0C1FD00F02FFF00BF00000800A3
:1001A000005000200000000000000000800000203F
:1001B000A70000200000000000000000C3785BB929
:1001C000037801215A09164803F01F03203201FA6F
:1001D00003F340F82230704730B4124B8278D9686C
:1001E0004478C9430F23C1F30221C1F10405CB4078
:1001F000AC401340027823431B0102F16042DBB2A2
:1002000002F5614282F800330378012203F01F00F7
:1002100003495B09824041F8232030BC704700BF8E
:1002200000E100E000ED00E0CB782DE9F04103F0C3
:100230000F06DB0648BF8B780C8848BF1E4314F0BE
:10024000FF0F26D00568002301274FF00F0803E0B9
:100250000133082B1BD00C8807FA03F232EA04049E
:10026000F6D19C0091F803E008FA04FC25EA0C059D
:1002700006FA04F4BEF1280F45EA040538D0BEF1B1
:10028000480F03F1010308BF0261082BE3D10560A9
:100290000C88FF2C2AD94568002301274FF00F0C4A
:1002A00003E00133082B20D00C8803F1080207FA81
:1002B00002F232EA0404F4D191F803E09C00BEF1AA
:1002C000280F04BF426191F803E00CFA04F8BEF174
:1002D000480F03F1010325EA080506FA04F408BFF4
:1002E0000261082B45EA0405DED14560BDE8F081D6
:1002F0004261ADE74FF6FF71022204230180827054
:10030000C370704730B4214A536803F00C03042BC8
:1003100006D0082B25D01BB11D4A1346026001E010
:100320001B4B0360194A1B4C51681B4DC1F3031151
:10033000615CCB4043605168C1F30221615C23FAE8
:1003400001F181605168C1F3C221615CCB40C3609F
:100350005268C2F38132AA5C30BCB3FBF2F3036192
:10036000704753685168C3F38343C90303F1020321
:1003700007D55268920304D4054A02FB03F30360D5
:10038000D0E7064A02FB03F30360CBE7001002400C
:1003900000127A00040000200000002000093D0047
:1003A00029B9054A936923EA000090617047024B1E
:1003B0009A691043986170470010024029B9054AB4
:1003C000D36923EA0000D0617047024BDA69104319
:1003D000D86170470010024070B4048C1A4E24F0AB
:1003E00001042404240C0484048B058CA4B224F09E
:1003F000F304224342EA0313B0429AB2ADB21AD0D8
:10040000124B984217D0B0F1804F14D0A3F5983317
:10041000984210D003F5806398420CD003F58063B6
:10042000984208D025F00A0545F001050D430283E6
:10043000058470BC704725F0020545F001050D43A9
:100440000283058470BC7047002C014000340140D9
:1004500070B4048C1C4E24F010042404240C048476
:10046000058B048C25F440752D052D0D45EA0222DF
:1004700042EA0333B0429BB2A4B21AD0134A90426C
:1004800017D0B0F1804F14D0A2F59832904210D01E
:1004900002F5806290420CD002F58062904208D052
:1004A00024F0A00444F010042143038370BC0184B1
:1004B000704724F0200444F0100444EA011189B28A
:1004C000038370BC01847047002C0140003401405C
:1004D000254A038890429BB212D002F500629042F6
:1004E0000ED0B0F1804F0BD0A2F59832904207D0D9
:1004F00002F58062904203D002F58062904203D1FF
:100500004A8823F070031343184A904224D002F51E
:100510008062904220D0CA8823F440739BB2134378
:1005200003808A88104B82850A88984202850ED003
:100530000F4B98420BD003F54063984207D003F568
:100540008063984203D003F58063984201D10B7A0F
:10055000038601238382704703808B8883850B8801
:100560000385012383827047002C01400010004066
:1005700000340140038CF0B423F001031B041B0C76
:100580000384048C8788028B0E8924F002044B8834
:100590001B4D240422F07302240C334312040E88F2
:1005A0002343120CA8429BB2BCB242EA060216D008
:1005B00005F50065A84212D005F54065A8420ED0A9
:1005C00005F58065A8420AD005F58065A84206D0E9
:1005D00084800283CA88F0BC8286038470474E8977
:1005E0008F89CD8923F00803334324F440748E8827
:1005F0003D4323F004032C433343A4B2E8E700BF98
:10060000002C0140038CF0B423F010031B041B0CDE
:100610000384038C858823F02003028B0C891B0440
:1006200022F4E6421B0C43EA0413174E0C88120412
:100630004F88120C43EA071342EA0422B0429BB2ED
:10064000ADB294B209D0114A904206D0858004839D
:10065000CA88F0BC0287038470474FF6BF7623F048
:1006600080024B8992B242EA03128F89164025F428
:1006700040658B88CA8945EA870546EA031345EA3F
:1006800082059BB2ADB2E1E7002C0140003401408D
:10069000038CF0B423F480731B041B0C0384038CC1
:1006A000848823F40073828B0D891B04194E1B0C64
:1006B00022F073024F8843EA052312040D8843EAAF
:1006C0000723120CB0429BB2A4B245EA02050AD03D
:1006D00006F50066B04206D084808583CA88F0BCE7
:1006E0008287038470474FF6FF3623F400624B89FC
:1006F00092B242EA03228F89164024F440548B8838
:10070000CA8944EA071446EA032344EA02149BB266
:10071000A4B2E1E7002C0140038CF0B423F4805331
:100720001B041B0C0384028C848822F40052838BEC
:100730000E89120423F4E643120C42EA0632104DED
:100740001B044F880E881B0C42EA073243EA06233B
:10075000A84292B2A4B29BB20BD005F50065A842A4
:1007600007D084808383CB88F0BCA0F8403002841B
:1007700070478D8924F4804444EA8514A4B2F0E7DC
:10078000002C0140F8B50B880D460446002B4ED0D6
:10079000042B00F09880082B028C498858D022F452
:1007A00080521204120CAF882E890284828B534827
:1007B00022F440731B051B0D43EA0723228C43EAF6
:1007C000063384429BB292B229D000F50060844285
:1007D00025D0B4F1804F22D0A0F5983084421ED0AD
:1007E00000F5806084421AD000F58060844216D003
:1007F00047F6FF5041F48051104040EA0102A383C4
:100800002284A28BE98822F440621204120CA28393
:10081000A38B9BB243EA01239BB2A383F8BD22F4CE
:10082000005242EA013292B242F48052E7E70B8969
:100830008A884988FFF7D0FD038BEA8823F00C03F0
:100840001B041B0C0383038B9BB213430383F8BD70
:1008500022F480721204120CAE882B890284828BDF
:10086000264892B222F0F30242EA0313228C9BB292
:10087000844243EA060392B238D000F50060844215
:1008800034D0B4F1804F31D0A0F5983084422DD0CF
:1008900000F58060844229D000F58060844225D034
:1008A00022F4206241F480710A43A3832284A38B43
:1008B000EA8823F00C031B041B0CA383A38B9BB2BD
:1008C0001343A383F8BD0B898A884988FFF7C0FDCD
:1008D000028BE98822F440621204120C0283038B1B
:1008E0009BB243EA01239BB20383F8BD22F400725A
:1008F00042EA012292B242F48072D6E7002C014013
:100900004FF6FF72002382800380C380438003720E
:10091000704700BF0023038043808380C38003812E
:1009200043818381C3817047002301228280038039
:100930004380C38003817047038829B923F00103F2
:100940001B041B0C038070479BB243F00103038020
:10095000704700BF83899BB21AB923EA01018181E4
:100960007047194381817047FFF7F4BF038829B9A5
:1009700023F080031B041B0C038070479BB243F0E1
:1009800080030380704700BF038B23F008031B0420
:100990001B0C194301837047038B23F400631B0472
:1009A0001B0C43EA012189B201837047838B23F03A
:1009B00008031B041B0C194381837047838B23F4AA
:1009C00000631B041B0C43EA012189B28183704739
:1009D000808E80B2704700BF038A828911EA0300CB
:1009E00092B203D0114214BF01200020704700BF13
:1009F000C94389B20182704730B504460D46038A67
:100A0000CA889BB223F440531343038282890B8923
:100A1000888892B24989034322F4B0520B4322F0F2
:100A20000C0213439BB2A381A38AAA899BB223F42D
:100A3000407387B01343A38201A8FFF763FC0499B6
:100A40001A48039BA289844208BF0B4612F4004F48
:100A50002A6803EB830314BF5200920003EB830365
:100A6000B3FBF2F3124DA189A5FB032064224009D8
:100A700000FB12330A044FEA00100AD41A01323282
:100A8000A5FB0223C3F3431303439BB2238107B0A7
:100A900030BDD9003231A5FB0131C1F3421242EA27
:100AA00000039BB2238107B030BD00BF0038014076
:100AB0001F85EB5100234FF416510C220160428137
:100AC0008380C38003818381704700BF838929B9F4
:100AD00023F400531B041B0C838170479BB243F427
:100AE00000538381704700BFC1F3080181807047C4
:100AF0000388194214BF01200020704770B586B0EA
:100B000002A8184EFFF7D6FF4FF4E133012144F25B
:100B1000050002930325FFF743FC134C304601A95F
:100B20004FF400721823ADF804208DF807308DF8CB
:100B30000650FFF779FB4FF48062042301A9304689
:100B4000ADF804208DF807308DF80650FFF76CFBE8
:100B500020460121FFF7BAFF02A92046FFF74CFF0C
:100B600006B070BD000801400038014070B5044671
:100B70002C4E86B030687168B268F36801AD0FC55D
:100B800030692860002C3BD00025274E00E01D4630
:100B9000A6FB0432D20802EB8201A4EB410106A8B5
:100BA00030316B1C00EB450020F8141C1446DBB2FE
:100BB000002AECD173B303F10042023A03F100437F
:100BC000551B013B01AA02EB450502EB43048021C2
:100BD0001648FFF78DFF0028F9D034F802191348A2
:100BE000FFF782FFAC42F2D180211048FFF780FF6F
:100BF00080B10E480A2106B0BDE87040FFF774BF0F
:100C000080210A48FFF774FF0028F9D030210748F7
:100C1000FFF76AFF80210548FFF76AFF0028F9D037
:100C2000E7E700BF98100008CDCCCCCC00380140DD
:100C300030B5012189B00D20FFF7B2FB6846FFF700
:100C400059FBC022694618233048ADF800208DF8C2
:100C50000330FFF7E9FA032369462D48ADF8003069
:100C6000FFF7E2FA01210220FFF7A8FB01A8FFF736
:100C700047FE40F21F32274C022301A92046ADF85F
:100C80000820ADF80430FFF723FC20460121FFF7D0
:100C90006DFE04A8FFF73EFE01256022502304A943
:100CA0002046ADF81020ADF81630ADF81250FFF721
:100CB00061FC20460821FFF767FEA02304A9204617
:100CC000ADF81630FFF79EFC20460821FFF764FEC2
:100CD0004FF4C87304A92046ADF81630FFF7D8FCCE
:100CE00020460821FFF762FE4FF4207304A9204636
:100CF000ADF81630FFF710FD20460821FFF75EFE25
:100D000029462046FFF718FE09B030BD0008014013
:100D1000000C01400004004030B589B0FFF7EEFE42
:100D2000FFF786FF01210520FFF73AFB012403238B
:100D3000042269461D488DF802308DF80320ADF875
:100D40000040FFF771FA21462046FFF737FB02A863
:100D5000FFF7D6FD02A94FF08040FFF7B9FB05A8C9
:100D6000FFF7E2FD05A94FF08040FFF70BFD22469B
:100D700002214FF08040FFF7F7FD00251C2301A85A
:100D80008DF804308DF807408DF805508DF8065029
:100D9000FFF714FA21464FF08040FFF7CDFD0449DC
:100DA000044A054B0D7015801D80FEE700080140C8
:100DB000A6000020A40000209C00002038B50221DD
:100DC0004FF08040FFF708FE012800D038BD164DD7
:100DD000044602214FF08040FFF70AFE2B78DBB17A
:100DE00000234FF080402B70FFF7F2FD0F4B104AAD
:100DF0001B881080984298BFDB430E4A8CBFC31AF1
:100E00001B1812689BB2B2FBF3F30B4918460B6038
:100E1000BDE83840FFF7AABE4FF08040FFF7D8FD8D
:100E2000024B2C70188038BDA6000020A4000020C2
:100E30009C00002014000020A00000200649074A62
:100E4000074B9A42BEBF51F8040B42F8040BF8E777
:100E50000448804704480047C010000800000020F4
:100E600080000020F50E0008490100081F49204AB3
:100E7000002301E041F8043B9142FBD3FFF74CFF14
:100E8000FEE7FEE7FEE7FEE7FEE7FEE7FEE7FEE73A
:100E9000FEE7FEE7FEE7FEE7FEE7FEE7FEE7FEE72A
:100EA000FEE7FEE7FEE7FEE7FEE7FEE7FEE7FEE71A
:100EB000FEE7FEE7FEE7FEE7FEE7FEE7FEE7FEE70A
:100EC000FEE7FEE7FEE7FEE7FEE7FEE7FEE7FEE7FA
:100ED000FEE7FEE7FEE7FEE7FEE7FEE7FEE7FEE7EA
:100EE000FEE7FEE7FEE7FEE7FEE7FEE78000002004
:100EF000A700002030B43C4B3C49186882B040F059
:100F0000010018605D6800202940596019684FF49D
:100F10001F0421F0847121F48031196019681A4688
:100F200021F480211960596821F4FE0159609C6008
:100F300000900190196841F48031196003E0009B32
:100F4000B3F5A06F09D0136803F400330193009B3D
:100F500001330093019B002BF1D0234B1B6813F44A
:100F6000003318BF01230193019B012B06D0204BB6
:100F70004FF000629A6002B030BC70471D4A1A4BB5
:100F80001068194640F010001060106820F003004F
:100F90001060106840F0020010605A685A605A6889
:100FA0005A605A6842F480625A605A6822F47C128D
:100FB0005A605A6842F4E8125A601A6842F0807225
:100FC0001A600B68084A9B01FBD51146536823F051
:100FD00003035360536843F0020353604B6803F00C
:100FE0000C03082BFAD1C2E7001002400000FFF802
:100FF00000ED00E00020024008B5074B044613B1A5
:101000000021AFF30080054B1868836A03B198474D
:10101000204600F033F800BF00000000B0100008C8
:101020000E4B70B51E460E4C0025E41AA410A542C6
:1010300004D056F8253098470135F8E700F020F83D
:10104000084B094C1E46E41AA4100025A54204D002
:1010500056F8253098470135F8E770BD7800002034
:1010600078000020780000207C0000200346024425
:10107000934202D003F8011BFAE77047FEE7000035
:10108000F8B500BFF8BC08BC9E467047F8B500BF75
:10109000F8BC08BC9E46704730003000300030007D
:1010A00030003000300030003000300043000000DD
:0810B000180000200000000000
:0810B80090F0FF7F0100000031
:1010C00002040608000000000102030401020304F8
:1010D0000607080900A24A04000000000000000002
:1010E0000000000000000000000000000000000000
:1010F0000000000000000000AC100008000000002C
:1011000000000000000000000000000000000000DF
:1011100000000000000000000000000000000000CF
:1011200000000000000000000000000000000000BF
:10113000000000000000000011010008ED000008A0
:0400000508000000EF
:00000001FF
