:020000040800F2
:1000000000500020250700086B0700086D07000856
:100010006F07000871070008730700080000000060
:10002000000000000000000000000000750700084C
:100030007707000800000000790700087B07000828
:100040007F0700088107000883070008850700086C
:1000500087070008890700088B0700088D0700083C
:100060008F0700089107000893070008950700080C
:1000700097070008990700089B0700089D070008DC
:100080009F070008A1070008A3070008A5070008AC
:10009000A7070008A9070008AB070008AD0700087C
:1000A000AF070008B1070008B3070008B50700084C
:1000B000B7070008B9070008BB070008BD0700081C
:1000C000BF070008C1070008C3070008C5070008EC
:1000D000C7070008C9070008CB070008CD070008BC
:1000E000CF070008D1070008D307000810B5054C5A
:1000F000237833B9044B13B10448AFF300800123D4
:10010000237010BD7C00002000000000980900084A
:10011000084B10B51BB108490848AFF300800848E8
:10012000036803B910BD074B002BFBD0BDE810409E
:10013000184700BF00000000800000209809000858
:100140007C00002000000000154B002B08BF134B63
:100150009D46A3F5803A00218B460F461348144A6A
:10016000121A00F0F7FB0F4B002B00D098470E4BF4
:10017000002B00D098470020002104000D000D48FE
:10018000002802D00C48AFF3008000F0BDFB200037
:10019000290000F06BFA00F0A3FB00BF000008008C
:1001A0000050002000000000000000007C00002043
:1001B000980000200000000000000000CB782DE92E
:1001C000F04103F00F06DB0648BF8B780C8848BF70
:1001D0001E4314F0FF0F26D00568002301274FF0BF
:1001E0000F0803E00133082B1BD00C8807FA03F239
:1001F00032EA0404F6D19C0091F803E008FA04FC0A
:1002000025EA0C0506FA04F4BEF1280F45EA0405B8
:1002100038D0BEF1480F03F1010308BF0261082B7B
:10022000E3D105600C88FF2C2AD9456800230127FB
:100230004FF00F0C03E00133082B20D00C8803F1A2
:10024000080207FA02F232EA0404F4D191F803E05A
:100250009C00BEF1280F04BF426191F803E00CFA44
:1002600004F8BEF1480F03F1010325EA080506FA78
:1002700004F408BF0261082B45EA0405DED145609D
:10028000BDE8F0814261ADE70161704741617047AF
:10029000034A536823F47C131943084350607047A2
:1002A00000100240014B1860704700BF60004242DE
:1002B000034A536823F0030318435060704700BF9C
:1002C00000100240034A536823F0F00318435060C3
:1002D000704700BF00100240034A536823F4605384
:1002E00043EAC000506070470010024030B4214A19
:1002F000536803F00C03042B06D0082B25D01BB148
:100300001D4A1346026001E01B4B0360194A1B4C57
:1003100051681B4DC1F30311615CCB4043605168D0
:10032000C1F30221615C23FA01F181605168C1F3DC
:10033000C221615CCB40C3605268C2F38132AA5CC7
:1003400030BCB3FBF2F30361704753685168C3F3E9
:100350008343C90303F1020307D55268920304D40F
:10036000054A02FB03F30360D0E7064A02FB03F3EE
:100370000360CBE70010024000127A000400002066
:100380000000002000093D0029B9054A936923EACD
:10039000000090617047024B9A6910439861704762
:1003A0000010024029B9054AD36923EA0000D06150
:1003B0007047024BDA691043D86170470010024061
:1003C0004309012B0BD0022B094B00F01F000CBF7F
:1003D0001B6A5B6A23FA00F000F001007047044BCF
:1003E00000F01F001B6823FA00F000F001007047C6
:1003F0000010024030B504460D46038ACA889BB2FD
:1004000023F440531343038282890B89888892B274
:100410004989034322F4B0520B4322F00C021343E8
:100420009BB2A381A38AAA899BB223F4407387B0AD
:100430001343A38201A8FFF759FF04991A48039BAD
:10044000A289844208BF0B4612F4004F2A6803EBCE
:10045000830314BF5200920003EB8303B3FBF2F358
:10046000124DA189A5FB03206422400900FB123331
:100470000A044FEA00100AD41A013232A5FB022303
:10048000C3F3431303439BB2238107B030BDD900AC
:100490003231A5FB0131C1F3421242EA00039BB2A3
:1004A000238107B030BD00BF003801401F85EB51EC
:1004B00000234FF416510C22016042818380C380D7
:1004C00003818381704700BF838929B923F40053D6
:1004D0001B041B0C838170479BB243F40053838140
:1004E000704700BFC1F30801818070478088C0F366
:1004F000080070470388194214BF0120002070478C
:1005000070B586B002A8184EFFF7D2FF4FF4E13362
:10051000012144F2050002930325FFF735FF134C38
:10052000304601A94FF400721823ADF804208DF86D
:1005300007308DF80650FFF741FE4FF48062042328
:1005400001A93046ADF804208DF807308DF806502B
:10055000FFF734FE20460121FFF7B6FF02A920462F
:10056000FFF748FF06B070BD0008014000380140A9
:10057000F0B587B002A8FFF79BFF194F4FF4E133A6
:1005800001214FF4003004250293FFF70BFF0121F6
:100590000520FFF7F9FE032638460DEB0501182369
:1005A000104C8DF80730ADF804508DF80660FFF759
:1005B00005FE08230DEB05013846ADF804308DF833
:1005C00006608DF80750FFF7F9FD02A92046FFF7F6
:1005D00011FF20460121FFF777FF07B0F0BD00BFF4
:1005E000000801400044004008B50020FFF760FE0D
:1005F0000020FFF757FE4FF440304FF44011FFF753
:1006000047FE0120FFF74EFE3920FFF7D9FE0028F4
:10061000FAD00220FFF74CFE0020FFF753FEBDE8A2
:1006200008400020FFF758BE38B504460D4680212B
:100630000D48FFF75FFF0028F9D00D210A48FFF7AA
:1006400051FF85B1013DEDB22544013C80210648B2
:10065000FFF750FF0028F9D014F8011F0248FFF7F8
:1006600041FFAC42F2D138BD0038014010B582B034
:10067000FFF7BAFFFFF744FFFFF77AFF01210420DD
:10068000FFF782FE02241023032201A920488DF8DF
:1006900007308DF80620ADF80440FFF78FFD2146A6
:1006A0001B48FFF7F3FD1B4B00BF013BFCD10221B0
:1006B0001748FFF7E9FD0D211748FFF7B5FF202187
:1006C0001648FFF717FF01280DD11448FFF70EFF5A
:1006D000044680211248FFF70DFF0028F9D0E1B24F
:1006E0000F48FFF7FFFE20210D48FFF703FF012809
:1006F000E5D10B48FFF7FAFE044680210748FFF7D3
:10070000F9FE0028F9D0E1B20448FFF7EBFED6E786
:1007100000080140400D0300800900080038014036
:10072000004400400649074A074B9A42BEBF51F8B1
:10073000040B42F8040BF8E70448804704480047DC
:10074000A4090008000000207C000020DD0700084C
:10075000490100081F49204A002301E041F8043BF9
:100760009142FBD3FFF782FFFEE7FEE7FEE7FEE7DD
:10077000FEE7FEE7FEE7FEE7FEE7FEE7FEE7FEE751
:10078000FEE7FEE7FEE7FEE7FEE7FEE7FEE7FEE741
:10079000FEE7FEE7FEE7FEE7FEE7FEE7FEE7FEE731
:1007A000FEE7FEE7FEE7FEE7FEE7FEE7FEE7FEE721
:1007B000FEE7FEE7FEE7FEE7FEE7FEE7FEE7FEE711
:1007C000FEE7FEE7FEE7FEE7FEE7FEE7FEE7FEE701
:1007D000FEE7FEE77C0000209800002030B43C4B90
:1007E0003C49186882B040F0010018605D68002044
:1007F0002940596019684FF41F0421F0847121F4D5
:100800008031196019681A4621F4802119605968ED
:1008100021F4FE0159609C6000900190196841F438
:100820008031196003E0009BB3F5A06F09D0136815
:1008300003F400330193009B01330093019B002BD1
:10084000F1D0234B1B6813F4003318BF012301932D
:10085000019B012B06D0204B4FF000629A6002B042
:1008600030BC70471D4A1A4B1068194640F0100002
:100870001060106820F003001060106840F0020063
:1008800010605A685A605A685A605A6842F4806226
:100890005A605A6822F47C125A605A6842F4E8128C
:1008A0005A601A6842F080721A600B68084A9B010D
:1008B000FBD51146536823F003035360536843F09C
:1008C000020353604B6803F00C03082BFAD1C2E714
:1008D000001002400000FFF800ED00E000200240A0
:1008E00008B5074B044613B10021AFF30080054B58
:1008F0001868836A03B19847204600F033F800BFB8
:1009000000000000940900080E4B70B51E460E4C06
:100910000025E41AA410A54204D056F825309847C3
:100920000135F8E700F020F8084B094C1E46E41AA0
:10093000A4100025A54204D056F82530984701356B
:10094000F8E770BD740000207400002074000020DF
:100950007800002003460244934202D003F8011BB2
:10096000FAE77047FEE70000F8B500BFF8BC08BC26
:100970009E467047F8B500BFF8BC08BC9E4670475D
:10098000496E696369616E646F2E2E2E0A00000045
:0C099000430000001400002000000000E4
:08099C00ACF7FF7F0100000031
:1009A400020406080000000001020304010203041B
:1009B4000607080900000000000000000000000015
:1009C4000000000000000000000000000000000023
:1009D4000000000090090008000000000000000072
:1009E4000000000000000000000000000000000003
:1009F40000000000000000000000000000000000F3
:100A040000000000000000000000000000000000E2
:0C0A14000000000011010008ED000008C7
:0400000508000000EF
:00000001FF
