:020000040800F2
:1000000000500020150900085B0900085D09000880
:100010005F0900086109000863090008000000008A
:10002000000000000000000000000000650900085A
:100030006709000800000000690900086B09000852
:100040006F090008710900087309000875090008A4
:1000500077090008790900087B0900087D09000874
:100060007F09000881090008830900088509000844
:1000700087090008890900088B0900088D09000814
:100080008F090008910900089309000895090008E4
:1000900097090008990900089B0900089D090008B4
:1000A0009F090008A1090008A3090008A509000884
:1000B000A7090008A9090008AB090008AD09000854
:1000C000AF090008B1090008B3090008B509000824
:1000D000B7090008B9090008BB090008BD090008F4
:1000E000BF090008C1090008C309000810B5054C84
:1000F000237833B9044B13B10448AFF300800123D4
:10010000237010BD7C000020000000008C0B000854
:10011000084B10B51BB108490848AFF300800848E8
:10012000036803B910BD074B002BFBD0BDE810409E
:10013000184700BF00000000800000208C0B000862
:100140007C00002000000000154B002B08BF134B63
:100150009D46A3F5803A00218B460F461348144A6A
:10016000121A00F0EFFC0F4B002B00D098470E4BFB
:10017000002B00D098470020002104000D000D48FE
:10018000002802D00C48AFF3008000F0B5FC20003E
:10019000290000F09DFB00F09BFC00BF0000080060
:1001A0000050002000000000000000007C00002043
:1001B00098000020000000000000000042680B686A
:1001C00022F4702230B422F480720C79134343EA93
:1001D000042343608568CC688A68094B22432B401E
:1001E0004C79134343EA440383600A7CC36A013AAF
:1001F000D2B223F4700343EA0253C36230BC7047A7
:10020000FDF7F1FF836819B923F00103836070479C
:1002100043F0010383607047836843F00803836001
:10022000704700BF8068C0F3C0007047836843F028
:1002300004038360704700BF8068C0F3800070478C
:10024000836819B923F4A0038360704743F4A003C3
:1002500083607047092970B41DD9A1F10A0606EB25
:100260004606C5680724B440B34025EA0404234386
:10027000062AC3601BD90C2A27D90D3A02EB820249
:10028000C36A1F24944001FA02F223EA04010A43DC
:10029000C26270BC704701EB410605690724B44097
:1002A000B34025EA04042343062A0361E3D8013A54
:1002B00002EB8202436B1F24944001FA02F223EA0C
:1002C00004010A43426370BC7047073A02EB8202A2
:1002D000036B1F24944001FA02F223EA04010A434B
:1002E000026370BC704700BFC06C80B2704700BF33
:1002F0000368194214BF012000207047CB782DE914
:10030000F04103F00F06DB0648BF8B780C8848BF2E
:100310001E4314F0FF0F26D00568002301274FF07D
:100320000F0803E00133082B1BD00C8807FA03F2F7
:1003300032EA0404F6D19C0091F803E008FA04FCC8
:1003400025EA0C0506FA04F4BEF1280F45EA040577
:1003500038D0BEF1480F03F1010308BF0261082B3A
:10036000E3D105600C88FF2C2AD9456800230127BA
:100370004FF00F0C03E00133082B20D00C8803F161
:10038000080207FA02F232EA0404F4D191F803E019
:100390009C00BEF1280F04BF426191F803E00CFA03
:1003A00004F8BEF1480F03F1010325EA080506FA37
:1003B00004F408BF0261082B45EA0405DED145605C
:1003C000BDE8F0814261ADE7034A536823F47C1332
:1003D000194308435060704700100240014B1860F9
:1003E000704700BF60004242034A536823F0030392
:1003F00018435060704700BF00100240034A536822
:1004000023F0F00318435060704700BF0010024013
:10041000034A536823F4605343EAC00050607047B6
:1004200000100240034A536823F4404318435060CD
:10043000704700BF0010024030B4214A536803F0F7
:100440000C03042B06D0082B25D01BB11D4A1346E4
:10045000026001E01B4B0360194A1B4C51681B4DA5
:10046000C1F30311615CCB4043605168C1F30221C9
:10047000615C23FA01F181605168C1F3C221615CC2
:10048000CB40C3605268C2F38132AA5C30BCB3FB7C
:10049000F2F30361704753685168C3F38343C903A0
:1004A00003F1020307D55268920304D4054A02FB04
:1004B00003F30360D0E7064A02FB03F30360CBE7D4
:1004C0000010024000127A0004000020000000200A
:1004D00000093D0029B9054A936923EA00009061AB
:1004E0007047024B9A6910439861704700100240B0
:1004F0004309012B0BD0022B094B00F01F000CBF4E
:100500001B6A5B6A23FA00F000F001007047044B9D
:1005100000F01F001B6823FA00F000F00100704794
:100520000010024030B504460D46038ACA889BB2CB
:1005300023F440531343038282890B89888892B243
:100540004989034322F4B0520B4322F00C021343B7
:100550009BB2A381A38AAA899BB223F4407387B07C
:100560001343A38201A8FFF767FF04991A48039B6E
:10057000A289844208BF0B4612F4004F2A6803EB9D
:10058000830314BF5200920003EB8303B3FBF2F327
:10059000124DA189A5FB03206422400900FB123300
:1005A0000A044FEA00100AD41A013232A5FB0223D2
:1005B000C3F3431303439BB2238107B030BDD9007B
:1005C0003231A5FB0131C1F3421242EA00039BB272
:1005D000238107B030BD00BF003801401F85EB51BB
:1005E00000234FF416510C22016042818380C380A6
:1005F00003818381704700BF838929B923F40053A5
:100600001B041B0C838170479BB243F4005383810E
:10061000704700BFC1F30801818070470388194209
:1006200014BF01200020704770B586B002A8184E94
:10063000FFF7D6FF4FF41653012144F20500029351
:100640000325FFF747FF134C304601A94FF4007212
:100650001823ADF804208DF807308DF80650FFF709
:100660004DFE4FF48062042301A93046ADF804200A
:100670008DF807308DF80650FFF740FE2046012127
:10068000FFF7BAFF02A92046FFF74CFF06B070BD86
:10069000000801400038014008B50020FFF7A4FE23
:1006A0000020FFF79BFE4FF440304FF44011FFF75E
:1006B0008BFE0120FFF792FE3920FFF719FF00287B
:1006C000FAD00220FFF790FE0020FFF797FEBDE86A
:1006D00008400020FFF79CBE70B504462C4E86B043
:1006E00030687168B268F36801AD0FC53069286081
:1006F000002C3BD00025274E00E01D46A6FB04320F
:10070000D20802EB8201A4EB410106A830316B1C38
:1007100000EB450020F8141C1446DBB2002AECD193
:1007200073B303F10042023A03F10043551B013B4E
:1007300001AA02EB450502EB430480211648FFF7AE
:100740006DFF0028F9D034F802191348FFF762FF53
:10075000AC42F2D180211048FFF760FF80B10E4813
:100760000A2106B0BDE87040FFF754BF80210A4857
:10077000FFF754FF0028F9D030210748FFF74AFF60
:1007800080210548FFF74AFF0028F9D0E7E700BFBE
:10079000700B0008CDCCCCCC0038014030B5012224
:1007A00087B0002305468DF802208DF8033006AC93
:1007B000092806D8DFE800F005595E696E73787D78
:1007C000824D012124F8181D0420FFF783FE2146E5
:1007D0003C48FFF793FD4FF48040FFF723FE0121D3
:1007E0004FF40070FFF776FE012400234FF46022DF
:1007F00001A9354801938DF808308DF8093004932C
:1008000003928DF81440FFF7D9FC294622460723AE
:100810002D48FFF71FFD2C482146FFF7F3FC2A481F
:10082000FFF7FAFC2848FFF7FDFC0028FAD126481C
:10083000FFF7FCFC2448FFF7FFFC0028FAD1012158
:100840002148FFF7DFFC01211F48FFF7F9FC07B043
:1008500030BD022324F8183D01210820FFF73AFE9D
:1008600021461A48FFF74AFDB5E7022324F8183D50
:100870000121A9E7042024F8180D0121FFF72AFE21
:1008800021461048FFF73AFDA5E7082324F8183D54
:10089000012199E7102324F8183D012194E7202332
:1008A00024F8183D01218FE7402324F8183D012149
:1008B0008AE7802324F8183D012185E7012124F8E7
:1008C000181DCAE70008014000240140000C014047
:1008D00010B5FFF7E1FEFFF7A7FE0520FFF75EFF6B
:1008E00002210A48FFF704FD0028F9D00748FFF766
:1008F000FBFC044601210548FFF7A2FC2046FFF758
:10090000EBFE034B00BF013BFCD1E9E700240140B3
:1009100080841E000649074A074B9A42BEBF51F821
:10092000040B42F8040BF8E70448804704480047EA
:10093000980B0008000000207C000020CD09000872
:10094000490100081F49204A002301E041F8043B07
:100950009142FBD3FFF7BCFFFEE7FEE7FEE7FEE7B1
:10096000FEE7FEE7FEE7FEE7FEE7FEE7FEE7FEE75F
:10097000FEE7FEE7FEE7FEE7FEE7FEE7FEE7FEE74F
:10098000FEE7FEE7FEE7FEE7FEE7FEE7FEE7FEE73F
:10099000FEE7FEE7FEE7FEE7FEE7FEE7FEE7FEE72F
:1009A000FEE7FEE7FEE7FEE7FEE7FEE7FEE7FEE71F
:1009B000FEE7FEE7FEE7FEE7FEE7FEE7FEE7FEE70F
:1009C000FEE7FEE77C0000209800002030B43C4B9E
:1009D0003C49186882B040F0010018605D68002052
:1009E0002940596019684FF41F0421F0847121F4E3
:1009F0008031196019681A4621F4802119605968FC
:100A000021F4FE0159609C6000900190196841F446
:100A10008031196003E0009BB3F5A06F09D0136823
:100A200003F400330193009B01330093019B002BDF
:100A3000F1D0234B1B6813F4003318BF012301933B
:100A4000019B012B06D0204B4FF000629A6002B050
:100A500030BC70471D4A1A4B1068194640F0100010
:100A60001060106820F003001060106840F0020071
:100A700010605A685A605A685A605A6842F4806234
:100A80005A605A6822F47C125A605A6842F4E8129A
:100A90005A601A6842F080721A600B68084A9B011B
:100AA000FBD51146536823F003035360536843F0AA
:100AB000020353604B6803F00C03082BFAD1C2E722
:100AC000001002400000FFF800ED00E000200240AE
:100AD00008B5074B044613B10021AFF30080054B66
:100AE0001868836A03B19847204600F033F800BFC6
:100AF00000000000880B00080E4B70B51E460E4C1F
:100B00000025E41AA410A54204D056F825309847D1
:100B10000135F8E700F020F8084B094C1E46E41AAE
:100B2000A4100025A54204D056F825309847013579
:100B3000F8E770BD740000207400002074000020ED
:100B40007800002003460244934202D003F8011BC0
:100B5000FAE77047FEE70000F8B500BFF8BC08BC34
:100B60009E467047F8B500BFF8BC08BC9E4670476B
:100B700030003000300030003000300030003000F5
:100B8000300030004300000014000020000000008E
:080B9000B8F5FF7F0100000031
:100B98000204060800000000010203040102030425
:100BA800060708090000000000000000000000001F
:100BB800000000000000000000000000000000002D
:100BC80000000000840B0008000000000000000086
:100BD800000000000000000000000000000000000D
:100BE80000000000000000000000000000000000FD
:100BF80000000000000000000000000000000000ED
:0C0C08000000000011010008ED000008D1
:0400000508000000EF
:00000001FF
