:020000040800F2
:10000000005000200D0B0008530B0008550B000892
:10001000570B0008590B00085B0B0008000000009C
:100020000000000000000000000000005D0B000860
:100030005F0B000800000000610B0008630B000864
:10004000670B0008690B00086B0B00086D0B0008BC
:100050006F0B0008710B0008730B0008750B00088C
:10006000770B0008790B00087B0B00087D0B00085C
:100070007F0B0008810B0008830B0008850B00082C
:10008000870B0008890B00088B0B00088D0B0008FC
:100090008F0B0008910B0008930B0008950B0008CC
:1000A000970B0008990B00089B0B00089D0B00089C
:1000B0009F0B0008A10B0008A30B0008A50B00086C
:1000C000A70B0008A90B0008AB0B0008AD0B00083C
:1000D000AF0B0008B10B0008B30B0008B50B00080C
:1000E000B70B0008B90B0008BB0B000810B5054C96
:1000F000237833B9044B13B10448AFF300800123D4
:10010000237010BD7C00002000000000180E0008C5
:10011000084B10B51BB108490848AFF300800848E8
:10012000036803B910BD074B002BFBD0BDE810409E
:10013000184700BF0000000080000020180E0008D3
:100140007C00002000000000154B002B08BF134B63
:100150009D46A3F5803A00218B460F461348144A6A
:10016000121A00F0EBFD0F4B002B00D098470E4BFE
:10017000002B00D098470020002104000D000D48FE
:10018000002802D00C48AFF3008000F0B1FD200041
:10019000290000F063FC00F097FD00BF000008009C
:1001A0000050002000000000000000007C00002043
:1001B0009E0000200000000000000000CB782DE928
:1001C000F04103F00F06DB0648BF8B780C8848BF70
:1001D0001E4314F0FF0F26D00568002301274FF0BF
:1001E0000F0803E00133082B1BD00C8807FA03F239
:1001F00032EA0404F6D19C0091F803E008FA04FC0A
:1002000025EA0C0506FA04F4BEF1280F45EA0405B8
:1002100038D0BEF1480F03F1010308BF0261082B7B
:10022000E3D105600C88FF2C2AD9456800230127FB
:100230004FF00F0C03E00133082B20D00C8803F1A2
:10024000080207FA02F232EA0404F4D191F803E05A
:100250009C00BEF1280F04BF426191F803E00CFA44
:1002600004F8BEF1480F03F1010325EA080506FA78
:1002700004F408BF0261082B45EA0405DED145609D
:10028000BDE8F0814261ADE7F0B504460D4687B0A8
:10029000868801A800F0DEF8314F039B26F03F0668
:1002A000A7FB03273604BF0C360CB8B20643A68062
:1002B00021882C4E21F001010904090C21802A68B3
:1002C000B24223D85200B3FBF2F39BB2032B00F1EE
:1002D000010098BF04232084A38323889BB243F0AA
:1002E000010323802388A98823F481636A8923F08A
:1002F00002031B040A431B0C13439BB22380AA89ED
:100300002B8913439BB2238107B0F0BD4BF6FF71DD
:10031000E88888421DD002EB820202EB8202B3FB26
:10032000F2F39BB243F48043C3F30B020AB943F0E8
:1003300001034FF4967202FB07F70B4AF91782FB91
:100340000702C1EBA212013292B243F400432284AD
:10035000C2E702EB4200B3FBF0F39BB2E4E700BF5D
:1003600083DE1B43A0860100D34D6210038829B9A8
:1003700023F001031B041B0C038070479BB243F066
:1003800001030380704700BF038829B923F48073F9
:100390001B041B0C038070479BB243F480730380E3
:1003A000704700BF038829B923F400731B041B0C9A
:1003B000038070479BB243F400730380704700BF13
:1003C000038829B923F480631B041B0C0380704746
:1003D0009BB243F480630380704700BF0182704783
:1003E000008AC0B2704700BF22B901F0FE0189B295
:1003F0000182704741F0010189B20182704700BF5C
:10040000838A008B9BB243EA004321F07F4203EAD8
:100410000200401AB0FA80F04009704782B0002311
:100420000A0F0093019301900092009B21F07F41FD
:1004300053B1019B14330193019B1B68194214BFF4
:100440000120002002B07047019B090C1833019372
:10045000F2E700BF30B4214A536803F00C03042BC9
:1004600006D0082B25D01BB11D4A1346026001E0BF
:100470001B4B0360194A1B4C51681B4DC1F3031100
:10048000615CCB4043605168C1F30221615C23FA97
:1004900001F181605168C1F3C221615CCB40C3604E
:1004A0005268C2F38132AA5C30BCB3FBF2F3036141
:1004B000704753685168C3F38343C90303F10203D0
:1004C00007D55268920304D4054A02FB03F3036084
:1004D000D0E7064A02FB03F30360CBE700100240BB
:1004E00000127A00040000200000002000093D00F6
:1004F00029B9054A936923EA000090617047024BCD
:100500009A691043986170470010024029B9054A62
:10051000D36923EA0000D0617047024BDA691043C7
:10052000D86170470010024030B504460D46038A7A
:10053000CA889BB223F440531343038282890B89F8
:10054000888892B24989034322F4B0520B4322F0C7
:100550000C0213439BB2A381A38AAA899BB223F402
:10056000407387B01343A38201A8FFF773FF049978
:100570001A48039BA289844208BF0B4612F4004F1D
:100580002A6803EB830314BF5200920003EB83033A
:10059000B3FBF2F3124DA189A5FB032064224009AD
:1005A00000FB12330A044FEA00100AD41A01323257
:1005B000A5FB0223C3F3431303439BB2238107B07C
:1005C00030BDD9003231A5FB0131C1F3421242EAFC
:1005D00000039BB2238107B030BD00BF003801404B
:1005E0001F85EB5100234FF416510C22016042810C
:1005F0008380C38003818381704700BF838929B9C9
:1006000023F400531B041B0C838170479BB243F4FB
:1006100000538381704700BFC1F308018180704798
:100620000388194214BF01200020704708B5034910
:100630000348FFF7E5FE0028F9D008BD02000300DB
:1006400000580040F0B54BF6FF7787B001214FF41A
:100650008000FFF75BFF01210920FFF749FF01241C
:100660004FF440621C2301A91848ADF804208DF80E
:1006700006408DF80730164EFFF7A0FD154B06AD6E
:1006800045F8103D4FF480624FF4804321463046D8
:100690000024ADF81220ADF81430ADF80E70ADF8AE
:1006A0000C40ADF81040FFF761FE29463046FFF7D9
:1006B000EBFD094E094D0A490A4B0920902234707E
:1006C0002C8008701A7007B0F0BD00BF000C01400C
:1006D00000580040A08601009A0000209C000020E5
:1006E000980000209900002008B54FF40031084818
:1006F000FFF794FE0028F8D101210548FFF744FEDA
:1007000004490348FFF77CFE0028F9D008BD00BF6C
:10071000005800400100030008B501210448FFF71C
:1007200041FE04490248FFF779FE0028F9D108BDCF
:10073000005800401000001010B50C46014622463B
:100740000848FFF751FE14B1012C07D010BD06492F
:100750000448FFF755FE0028F9D010BDBDE8104051
:10076000FFF764BF0058004082000700014608B54B
:100770000448FFF733FE04490248FFF741FE002812
:10078000F9D008BD005800408000070008B50121DD
:100790000648FFF715FE06490448FFF731FE00281A
:1007A000F9D00248BDE80840FFF71ABE00580040E3
:1007B0004000030008B500210648FFF701FE064986
:1007C0000448FFF71DFE0028F9D00248BDE80840A4
:1007D000FFF706BE005800404000030070B5064613
:1007E0000D461446FFF780FF00213046FFF7A4FFB7
:1007F0002846FFF7BBFF200AFFF7B8FFE0B2FFF77C
:10080000B5FFBDE87040FFF787BF00BF38B50446AD
:100810000D46FFF769FF00212046FFF78DFF2846B0
:10082000FFF7A4FFFFF778FFFFF75EFF21460122E5
:100830000848FFF7D9FDFFF7F9FEFFF7A7FF000211
:1008400084B2FFF7B7FF204484B2FFF765FF20466C
:1008500038BD00BF0058004010B51E4B1A88032851
:1008600032D8DFE800F02C27220242F4E34242F0C3
:100870000302194C42F4004220780121FFF7AEFF39
:1008800047F23053154A127803FB02F222B10023DB
:1008900000BF01339342FBD120780021FFF7B6FF60
:1008A0000F4B1B78184180B210BD42F4C34242F096
:1008B0000302DEE742F4A34242F00302D9E742F426
:1008C000834242F00302D4E742F4C17242F00102D3
:1008D000CFE700BF9C000020990000209800002076
:1008E0009A00002070B586B002A8184EFFF77AFE75
:1008F0004FF41653012144F2050002930325FFF73C
:10090000F7FD134C304601A94FF400721823ADF8DF
:1009100004208DF807308DF80650FFF74FFC4FF498
:100920008062042301A93046ADF804208DF8073019
:100930008DF80650FFF742FC20460121FFF75EFECE
:1009400002A92046FFF7F0FD06B070BD0008014087
:100950000038014070B504462C4E86B0306871688E
:10096000B268F36801AD0FC530692860002C3BD038
:100970000025274E00E01D46A6FB0432D20802EBFC
:100980008201A4EB410106A830316B1C00EB45004D
:1009900020F8141C1446DBB2002AECD173B303F127
:1009A0000042023A03F10043551B013B01AA02EB4E
:1009B000450502EB430480211648FFF731FE00286D
:1009C000F9D034F802191348FFF726FEAC42F2D1F1
:1009D00080211048FFF724FE80B10E480A2106B09E
:1009E000BDE87040FFF718BE80210A48FFF718FEE7
:1009F0000028F9D030210748FFF70EFE8021054876
:100A0000FFF70EFE0028F9D0E7E700BF680D0008E9
:100A1000CDCCCCCC0038014038B504460D46802101
:100A20000D48FFF7FDFD0028F9D00D210A48FFF71A
:100A3000F3FD85B1013DEDB22544013C802106481E
:100A4000FFF7EEFD0028F9D014F8011F0248FFF768
:100A5000E3FDAC42F2D138BD00380140F8B5FFF7F4
:100A600041FFFFF7EFFD2B211F48FFF7D5FF3E2188
:100A70001E48FFF7D1FF1E4B4FF400721A80002072
:100A8000FFF7EAFE07460120FFF7E6FE06460220D2
:100A9000FFF7E2FE05460320FFF7DEFE04460621CF
:100AA0001448FFF7B9FF38B2FFF754FF0621124888
:100AB000FFF7B2FF30B2FFF74DFF06210F48FFF7F7
:100AC000ABFF28B2FFF746FF06210D48FFF7A4FF52
:100AD00020B2FFF73FFF02210A48FFF79DFF0A4BB4
:100AE00000BF013BFCD1CAE77C0D0008A80D00083F
:100AF0009C000020E80D0008F00D0008F80D00082B
:100B0000000E0008080E000880C3C9010649074A04
:100B1000074B9A42BEBF51F8040B42F8040BF8E7AA
:100B20000448804704480047240E000800000020C5
:100B30007C000020C50B0008490100081F49204A1D
:100B4000002301E041F8043B9142FBD3FFF786FF0D
:100B5000FEE7FEE7FEE7FEE7FEE7FEE7FEE7FEE76D
:100B6000FEE7FEE7FEE7FEE7FEE7FEE7FEE7FEE75D
:100B7000FEE7FEE7FEE7FEE7FEE7FEE7FEE7FEE74D
:100B8000FEE7FEE7FEE7FEE7FEE7FEE7FEE7FEE73D
:100B9000FEE7FEE7FEE7FEE7FEE7FEE7FEE7FEE72D
:100BA000FEE7FEE7FEE7FEE7FEE7FEE7FEE7FEE71D
:100BB000FEE7FEE7FEE7FEE7FEE7FEE77C0000203B
:100BC0009E00002030B43C4B3C49186882B040F095
:100BD000010018605D6800202940596019684FF4D1
:100BE0001F0421F0847121F48031196019681A46BC
:100BF00021F480211960596821F4FE0159609C603C
:100C000000900190196841F48031196003E0009B65
:100C1000B3F5A06F09D0136803F400330193009B70
:100C200001330093019B002BF1D0234B1B6813F47D
:100C3000003318BF01230193019B012B06D0204BE9
:100C40004FF000629A6002B030BC70471D4A1A4BE8
:100C50001068194640F010001060106820F0030082
:100C60001060106840F0020010605A685A605A68BC
:100C70005A605A6842F480625A605A6822F47C12C0
:100C80005A605A6842F4E8125A601A6842F0807258
:100C90001A600B68084A9B01FBD51146536823F084
:100CA00003035360536843F0020353604B6803F03F
:100CB0000C03082BFAD1C2E7001002400000FFF835
:100CC00000ED00E00020024008B5074B044613B1D8
:100CD0000021AFF30080054B1868836A03B1984781
:100CE000204600F033F800BF00000000140E00089A
:100CF0000E4B70B51E460E4C0025E41AA410A542FA
:100D000004D056F8253098470135F8E700F020F870
:100D1000084B094C1E46E41AA4100025A54204D035
:100D200056F8253098470135F8E770BD740000206B
:100D30007400002074000020780000200346024464
:100D4000934202D003F8011BFAE77047FEE7000068
:100D5000F8B500BFF8BC08BC9E467047F8B500BFA8
:100D6000F8BC08BC9E4670473000300030003000B0
:100D700030003000300030003000300047657474BF
:100D8000696E672073696E676C652D656E64656456
:100D90002072656164696E67732066726F6D2041B1
:100DA000494E302E2E330A004144432052616E6773
:100DB000653A202B2F2D20342E30393656202831FD
:100DC00020626974203D20326D562F4144533130EA
:100DD00031352C20302E3132356D562F4144533170
:100DE000313135290A00000041494E303A200000D7
:100DF00041494E313A20000041494E323A2000002C
:100E000041494E333A200000200A3A2000000000F9
:0C0E10004300000014000020000000005F
:080E1C002CF3FF7F0100000030
:100E24000204060800000000010203040102030496
:100E34000607080900000000000000000000000090
:100E4400000000000000000000000000000000009E
:100E540000000000100E0008000000000000000068
:100E6400000000000000000000000000000000007E
:100E7400000000000000000000000000000000006E
:100E8400000000000000000000000000000000005E
:0C0E94000000000011010008ED00000843
:0400000508000000EF
:00000001FF
